:1000000000800020BD010000AD090000790900005A
:1000100079090000790900007909000079090000D8
:10002000790900007909000079090000AD09000094
:10003000AD09000079090000AD0900006909000060
:10004000AD090000AD090000AD090000AD090000D8
:10005000AD090000AD090000AD090000AD090000C8
:10006000AD090000AD090000AD090000AD090000B8
:10007000AD090000AD090000AD090000AD090000A8
:10008000AD090000AD090000AD090000AD09000098
:10009000AD090000AD090000AD090000AD09000088
:1000A000AD090000AD090000AD090000AD09000078
:1000B000AD090000AD090000AD090000AD09000068
:1000C000AD090000AD090000AD090000AD09000058
:1000D000AD090000AD090000AD090000AD09000048
:1000E000AD090000AD090000AD090000AD09000038
:1000F000AD09000025210000AD090000E127000046
:10010000AD090000E12C0000AD090000AD090000C0
:10011000AD090000AD090000AD090000AD09000007
:10012000AD090000AD090000AD090000AD090000F7
:10013000AD090000AD090000AD090000AD090000E7
:10014000AD090000AD090000AD090000AD090000D7
:10015000AD090000AD090000AD090000AD090000C7
:10016000AD090000E10D0000AD090000AD0900007F
:10017000AD090000AD090000AD090000AD090000A7
:10018000AD090000AD090000AD090000AD09000097
:10019000AD090000AD090000AD090000AD09000087
:1001A000AD090000AD090000AD090000AD09000077
:1001B000AD090000AD090000AD090000564B4CF23E
:1001C000205210B51A804DF628121A8000BF00BFC9
:1001D00000F0F0FB514B4FF010621A60504A9A60E9
:1001E000504ADA60A3F53043203B1A6812F480725B
:1001F00004D14D490A604FF4A8521A604B4B1A784B
:10020000110703D51A7842F008021A70484B2A22C7
:100210001A700023474A48499818884204D247492F
:10022000595899500433F5E7454A464B9A424FF0E6
:10023000000302D242F8043BF7E74349434A5958C6
:1002400099500433B3F5DE7FF7D1414B802103F899
:10025000011B40498B42F9D13F4B1A603F4B8A2228
:100260001A70A3F5805324225A70A0221A709A792A
:100270009207FCD59A79D406FCD4394B9A7902F0CE
:100280000C02082AF9D105221A7143225A719A796F
:100290009006FCD5324B9A795106FBD5314A4FF086
:1002A000817111600521516020221A702C4B9B79BD
:1002B00003F00C030C2BF9D12B4B2C4A1A602C4B5E
:1002C0002C4A1A6000225A60072243F8042C2A4A5A
:1002D000C3F80C2D62B600F069FC134B1B68DA07FB
:1002E00005D5264800F0BEFB254B264A1A60264B52
:1002F0001B785B0609D5224C224A2368934204D11D
:100300001E4800F0AFFB0023236003F017FB00F052
:1003100057FB00F021FBFEE70E2005403080044033
:10032000823F04000100002B14D0034002D007409C
:1003300000E00740E087FF1FF888FF1F303F000004
:10034000F888FF1F588DFF1F000000000082FF1F6C
:1003500000E400E05FE400E008ED00E0005006404B
:10036000004006404480044004800440C010050062
:1003700014E000E03F19010000002020F1DB1058DC
:100380001CE00340A5C3945A00F00740FFFFFFFFA5
:10039000FFFFFFFFFFFFFFFFFFFFFFFFFFFFFFFF6D
:1003A000FFFFFFFFFFFFFFFFFFFFFFFFFFFFFFFF5D
:1003B000FFFFFFFFFFFFFFFFFFFFFFFFFFFFFFFF4D
:1003C000FFFFFFFFFFFFFFFFFFFFFFFFFFFFFFFF3D
:1003D000FFFFFFFFFFFFFFFFFFFFFFFFFFFFFFFF2D
:1003E000FFFFFFFFFFFFFFFFFFFFFFFFFFFFFFFF1D
:1003F000FFFFFFFFFFFFFFFFFFFFFFFFFFFFFFFF0D
:10040000FFFFFFFFFFFFFFFFFFFFFFFFDEF9FFFF23
:1004100010B5054C237833B9044B13B10448AFF33E
:1004200000800123237010BDF888FF1F000000002A
:10043000303F000008B5064B1BB106480649AFF334
:1004400000800648036813B1054B03B1984708BD07
:1004500000000000303F0000FC88FF1FF888FF1FED
:100460000000000010B583709DF80830C3709DF83F
:100470000C3003719DF8103001704270437110BD53
:10048000704708B50368C9B21B68984708BD08B52E
:100490000368C9B21B68984708BD08B50368C9B2AC
:1004A0001B68984708BD08B50368C9B21B68984720
:1004B00008BD0020704770477047FFFF38B50C46F5
:1004C0001146054602F07EFE044901EB5401284620
:1004D000B1FBF4F1BDE8384002F042BD004495089C
:1004E000034B03EB5103B3FBF1F102F039BD00BF45
:1004F0000044950802F090BE02F0C6BE02F060BF54
:1005000002F086BF02F06CBF02F0DCBE02F098BFC2
:1005100002F0EEBE08B502F047FF012008BD02F070
:10052000F9BE38B5054608460C4603F0E5FA214603
:1005300002462846BDE8384002F0ECBE70B50446DD
:1005400088000D4600F064FA002306466268A06841
:10055000934205DA50F8232046F823200133F5E7CB
:1005600008B100F057FAA660E56070BD38B50446E2
:1005700008460D4603F0C0FA236802465B68204631
:100580002946984738BD38B50446FFF7EFFF0546C2
:10059000204600F091F9284438BD38B50A220023DE
:1005A000044600F099F90546204600F085F92844F4
:1005B00038BD38B5044600F0C7F90546204600F0BE
:1005C0007BF9284438BDFFFF38B50D4C204602F0BA
:1005D00037FF0C4B0C4A1A600C4B0D4A1A600D4B3E
:1005E0000125204690211D6002F0BAFC204602F051
:1005F00027FF29460D20BDE8384000F063BA00BF50
:100600001889FF1F208DFF1FB70400001C8DFF1FDE
:1006100015070000048DFF1F70B50D20012100F0AB
:1006200031FA0025204CE268264612B92046042102
:1006300006E06368934205D15900994202DD2046E5
:10064000FFF77CFF6268A36843F8225063680A35AD
:100650000133C82D6360E5D114481549FFF793FFB6
:10066000002473689C4214DA12491048FFF77EFF99
:1006700021460E4800F068F90F490C48FFF776FF55
:10068000094B0A489B6853F82410FFF792FF013486
:10069000E7E741F2883000F073FA0D200021BDE851
:1006A000704000F0EFB900BF2889FF1F288BFF1FA3
:1006B000583B0000723B0000893B000010B500234E
:1006C000C0B000240DF803400133FF2BF9D18DF8A1
:1006D000062006328DF8051011448DF802000844FA
:1006E0008DF800308DF80130C04304238DF80330BD
:1006F0008DF8070002236946082205488DF804306A
:10070000FFF70DFF024802F0DDFD40B010BD00BF55
:100710001889FF1F2DE9F0413B4F3B78002B4ED04D
:100720003A4C3B483B493C4DFFF72DFF23889BB299
:10073000032B85BF394BDB78042304332B803848E7
:1007400002F03EFEE0B122882B88304E92B29BB27E
:100750009A4215D23248B6F8008002F041FE1FFAE4
:1007600088F82E4BC0B203F808003288284892B2AD
:10077000995CFFF712FF338801339BB23380DEE7C9
:100780002288224B274E92B2042A26D823889BB275
:10079000032B03D9214BDB7804332B802A88238851
:1007A00092B29BB2D31A336033683268002A20DDDC
:1007B000642B1EDC042024210246FFF77FFF1A4928
:1007C0001348FFF7E0FE174B11481968FFF7F1FED9
:1007D000164B01221A70BDE8F081104AD1781A88B0
:1007E000033192B29142D1DA0422326000221A809F
:1007F000E0E707480E49FFF7C6FE00233B70238061
:1008000001233360D6E700BFE687FF1F1489FF1F6F
:10081000288BFF1FB13B0000E487FF1F3889FF1FB3
:100820001889FF1F048DFF1FE13B00003E8AFF1F58
:10083000B93B00001FB50024032301930094234615
:100840000294022104221148FFF70CFE104B1148BC
:100850001C714FF47A729A600F4A1A600F4A1C7327
:100860005C734FF0FF3313600D4A0E4913600E4A5C
:100870000E4B13600E4A446013600E4A8460C460DD
:1008800004B0BDE8104003F043B800BF388AFF1F32
:100890001889FF1F2889FF1F103B00000C8DFF1FC8
:1008A000048DFF1FB9040000208DFF1F810400008C
:1008B0001C8DFF1FE087FF1F07B5064B1B88ADF897
:1008C0000430036801A95B680222984703B05DF811
:1008D00004FB00BFEF3B000070B505468AB022B9AB
:1008E0000368C9B21B6898472CE0012A08BF0A2296
:1008F00021B930228DF82520212413E02124B1FBD9
:10090000F2F002FB1011C9B209290AAE94BF3031CE
:1009100037312644C9B206F8241C014610B1013C07
:10092000E4B2ECE733B1013CE4B20AAB23442D223C
:1009300003F8242C2B6801A95B6828462144C4F1E4
:10094000220298470AB070BD0029BABF49422D2340
:1009500000230A22FFF7C0BF08B5FFF735FEFFF7F7
:100960005BFE00F009FFFAE7024B1A6801321A60D9
:10097000704700BF408AFF1F08B50B4C236858031F
:1009800001D500F02DFA2368590501D501F0CAFB05
:1009900023681A0501D501F023FF2368DB04ECD599
:1009A00002F09EF9E9E700BF3480044008B5FFF784
:1009B000E3FFFFFF014B10221A8070470020054023
:1009C0007047FFFF024A13681844106018467047CA
:1009D000E887FF1FEFF313839BB9EFF3108098B9FB
:1009E000EFF3058323B10F2B04D9084A985C01E08B
:1009F0004FF48070EFF311833BB1834238BF184648
:100A000070474FF0FF30704718467047F0E300E042
:100A100002F0BABF02F0C0BF10B50023B0FBF2F481
:100A200002FB1400092894BF30303730C0B2C854DC
:100A300020460CB10133F1E7CA18547022469A429D
:100A400006DA885CCC5C8C54C8540132013BF6E772
:100A5000084610BD1030024B43F82010704700BF0D
:100A60000082FF1F044B054900221A600A60044AF5
:100A7000106010221A60704714D0034004D0034065
:100A800000D00340212810B518D80D4A52F8303054
:100A900093F880423CB1012211B183F8802010BD4F
:100AA00083F8002110BD02EBC00043681A6811B141
:100AB00042F0030201E022F002021A6010BD00BF02
:100AC000F43B0000212810B537D81C4A02EBC003C4
:100AD00001295B68144601D004290FD154F8302055
:100AE000012082F880024FF4A2721A601A68042969
:100AF0000CBF42F0200222F020021DE052F830200C
:100B0000002082F8800211B18A1E012A12D84FF407
:100B1000807202291A6003D11A6842F003020BE0C6
:100B200003290AD11A6842F002021A601A6822F0F8
:100B3000010201E040F203121A6010BDF43B000014
:100B400072B60C4B0C491A680C4B1B68096862B6EC
:100B5000490102D5322A88BF0133C2F58C324821BF
:100B600002F23F12B2FBF1F24FF47A7000FB032065
:100B7000704700BF18E000E004ED00E0408AFF1F6E
:100B800038B50446FFF7DCFF054624B938BD013C03
:100B90000AD005F57A75FFF7D3FF401BB0F57A7FD1
:100BA000F5D200F0E9FDF6E738BDFFFF204B4FF42A
:100BB000000210B51A604FF080721A604FF0007298
:100BC0001A604FF080621A604FF000621A60194B91
:100BD000194A1A4C002048F6FF7118605960282302
:100BE0001360936013619361136293621363936361
:100BF0000922226004F58054043420606160A360FF
:100C0000236144F8042C04F5FE2420600C480160A4
:100C10000C490B608B600C4B1A6000F06BFF4FF4BB
:100C2000C870FFF7ADFFBDE8104000F0D7BB00BFB4
:100C300008E100E0048003400C8003400080034092
:100C400008800B400C800B4000800B40F0B50C4B33
:100C50000C4C1A7842F0020504EBC50682F0010242
:100C6000706009481A700678002E0CBF8827C827C4
:100C700086F0010647EA0141067044F83510F0BDE0
:100C8000AC8AFF1F0080FF1F248BFF1F431E032B16
:100C900010B510D872B6094A52F8230048B141681D
:100CA00042F82310064A018832F81340611A22F8EC
:100CB000131062B610BD002010BD00BF9C8AFF1F3C
:100CC000408DFF1F013803280AD872B6054B53F830
:100CD0002030002013B101305B68FBE762B670473B
:100CE00000207047F08AFF1F10B572B60123174A23
:100CF0001A4412F8012C12071CD59900144A52F814
:100D000031402CB902EB431308305860114B09E015
:100D100041F0010152F8314064B902EBC1030830DF
:100D200058600D4B42F831300C4B1A78013A1A706A
:100D300062B610BD0133052BD9D162B6074B002234
:100D40001A70BDE8104000F0C7BB00BF503E000065
:100D50000080FF1F88004000C80040001A8BFF1F62
:100D6000431E032B30B532D8194A400140F0100021
:100D7000104472B6174CE25C032A09D8DFE802F08F
:100D8000160218050830022213E00830042210E091
:100D90001148124A50F8234014B940F8231002E0D9
:100DA00052F82300416042F823100FE0032200E0D4
:100DB0000522E25410F0080F01F108030A8843608D
:100DC0000CBF8823C82343EA0243036062B630BDE8
:100DD0000080FF1F588AFF1FF08AFF1F008BFF1F34
:100DE0002DE9F84FAB4F3C78E4B214F0040F3D46C8
:100DF00019D0A94B1B78A3B1A84A117801F0FF03C1
:100E000021B1013BDBB2137003B900BEA44A1178D3
:100E100001F0FF0329B1013BDBB213700BB900F005
:100E200087FC04233B7004F0080303F0FF02002B4F
:100E300000F067829B4B9C4C1A78D2B215094FEA9E
:100E4000920840F0E48104EBC803596854F8383044
:100E5000C3F38303013B0C2B00F2D681DFE813F0D0
:100E600095019501D401D401D401D401D401D40158
:100E7000B001D401D401D4010D008C4D0A684B6837
:100E80008B486B6001218B4B44F838302A60DFF8C7
:100E90005082017092B240F2816000238242C8F811
:100EA00000302361A36117D8B2F5D06F80F01E81A6
:100EB000B2F5817F00F0CF8006D8802A00F0BA809A
:100EC000822A00F0BB8031E140F202339A4200F006
:100ED000D180B2F5A06F1CE042F22100824200F006
:100EE00051810ED8B2F5086F00F09E80B2F5106FF8
:100EF00040F01C81684B6C4EAA781A7006F180098C
:100F00000AE042F221218A4200F0088142F22133B4
:100F10009A4200F00F8109E1336A1B0603D5706A1B
:100F2000083800F0D9FA08364E45F5D10026B1460A
:100F3000DFF8B0A156F80A0028B1D0F804B000F0EC
:100F4000CBFA5846F8E74AF806005B4BDFF898A161
:100F5000F05056F80A0028B1D0F804B000F0BCFAFE
:100F60005846F8E7554B4AF80600F050544B23F822
:100F70001900544B19F80320023A032A08D8DFE875
:100F800002F002040204002200E0012203F809201A
:100F900009F10109B9F1040F06F10406C8D14A4B61
:100FA00000221A7001269A46484A494B324433447B
:100FB00012F8012C9B0012F0080F1A704FEA8609F4
:100FC00025D000F06BFA38B104EB461308305860B6
:100FD000404B44F8393006E09AF8003044F83900C4
:100FE00001338AF8003000F059FA49F0010338B1B2
:100FF00004EBC302083050602E4A44F8332006E068
:1010000044F833009AF8003001338AF8003049F090
:101010000202013649F003090023052E44F832305C
:1010200044F83930C0D186E01B4B2B4C1B78237021
:101030000B4683E0284C237063707EE0AA88042A64
:1010400074D8254C920023706370244B9B5C9E07E0
:1010500073D5217071E0AA8802F07F02042A65DC52
:101060006B88002B62D191001C4A0A44117821F050
:10107000020159E0AA8802F07F02042A56DC6B883C
:10108000002B53D19100154A0A44117841F0020116
:101090004AE000BF80200740238BFF1FAD8AFF1F5F
:1010A000388BFF1F902007400080FF1F108BFF1F11
:1010B000248BFF1FC8004000488AFF1F008BFF1FC2
:1010C000408DFF1F588AFF1F1A8BFF1F503E0000E4
:1010D00030C80110880040001B8BFF1FC020074054
:1010E000448AFF1F9C8AFF1FF08AFF1F6A88A98815
:1010F0009F4B53F8084CA3F10C00BCB133F80C6CB7
:10110000964209D133F80A6C8E4205D1120A032A9D
:101110000CBF2378038911E00C33EAE7954A116884
:10112000954A1160A978954A117004E0944B0F22FA
:101130001A7027E000231C4600E00223EE88B34229
:1011400038BF1E46402E34BF35464025204629462E
:10115000FFF77CFD761B2C4403D1402D12D1354680
:1011600003E0402E34BF3546402520462946FFF790
:101170006DFD761B2C4401D1402D03D1814AC8F866
:10118000004016800122804B3DE0804B1A8842F2DD
:1011900021039A4210D100237D4AC85C9854013340
:1011A000072BF9D11368862B02D17A4B0F221A70C4
:1011B00000200146FFF74AFD774B44F8383023E022
:1011C000764E3568B5B1DFF8BC81B8F80090B9F15A
:1011D000400F34BF4C46402428462146FFF736FDD9
:1011E000C4EB09039BB2A8F800300BB9402C00D126
:1011F0002B193360654B1A88B2F5A06F04D1002219
:101200005A709A78664B1A7001225F4B6CE004EBBF
:10121000C806013D736802F00802A3F10800EDB2B0
:1012200002F0FF01002A36D000F056F95D485E4B0F
:1012300050F82520EAB1516840F8251002F1080164
:101240007160595D03290BD8DFE801F0020406083C
:10125000032104E0022102E0052100E004215955A8
:1012600016F0080F12880CBF8823C82343EA0243F4
:1012700042E05A5D032A07D8DFE802F0404002044A
:10128000002206E0012204E016F0080F0CBF022243
:1012900003225A5532E054F83820120C23F8082C57
:1012A00022B3DFF834E123F8061C43F8041C5EF88F
:1012B00025303E4913B94EF8250002E051F825309B
:1012C00058603B4B41F8250033F815100A4423F8C9
:1012D000152000F0E3F810B10830706006E0354BDF
:1012E00044F838001A7801321A7007E02A4B324A63
:1012F00016F0080F08BF134644F8383008233B7037
:1013000070E5E0071FD520492B482C4C02230B70B9
:101310002B4B1A702B4B186098602B48D8601A61C1
:101320009A615C60164B0D2018702848FF230370EB
:101330002B700274264A1370264B9F221A700123C9
:101340000B70BDE8F88F210604D50D4B0D221A70E5
:1013500080232B70A20705D51C4B1A78D2B21A70C5
:1013600002232B70E30644BF10232B70BDE8F88FD7
:10137000603E0000408AFF1F508DFF1F488BFF1FFB
:10138000C0200740188BFF1F94200740108BFF1FC1
:10139000488DFF1FAD8AFF1FC8004000448AFF1F11
:1013A00098200740F08AFF1F588AFF1F488AFF1FB6
:1013B000408DFF1F1A8BFF1F880040005C8AFF1FB3
:1013C000AC8AFF1F0080FF1FB08AFF1F88200740E4
:1013D0008C200740842007409C8AFF1F08B501F03D
:1013E000E7FC00221A4B0021D15098180832882AB5
:1013F0004160F7D1174A106840F48020106002F570
:1014000028326832C3F307201070C3F307401B0E65
:1014100010751376FF2302F81C3C02F8143C02F806
:101420008C3C012302F8083C82F8641002F8183C56
:10143000094B70226FF450711A700B444FF4007214
:101440001A6003F1C04303F5C82310221A7008BDC7
:101450000080FF1F3480044049E400E000F0A0B8A1
:1014600000F05CB800F080B800F034B900F0A6B825
:10147000084600F023B90846114600F0B7B8704797
:10148000044B00221A714FF47A711A73024A996060
:101490001A607047288BFF1F103D000072B60C4A7F
:1014A0001168B1FA81F30B2B02D962B600207047A4
:1014B0004FF00040D84021EA0001116062B60549B2
:1014C00048225343C8180022CA504260704700BFE8
:1014D000EC87FF1F8084FF1F0C4B4822C31AB3FB0D
:1014E000F2F30B2B11D80A4A127822B1094A12786A
:1014F0000AB1FFF7F9BB72B6074A4FF0004121FA73
:1015000003F311681943116062B670478084FF1FAE
:101510001A8BFF1F238BFF1FEC87FF1F10B5104C8A
:1015200023686BB120684288531C0244147A0288F5
:10153000934212D3FFF7D0FF094B00221A600DE04F
:10154000084B1B7813B94FF0FF3010BD0320FFF795
:101550009DFB20600028E5D1F5E74380204610BDC3
:10156000448BFF1F238BFF1F10B50B4C236813B157
:1015700023686BB902E0094B1B7813B94FF0FF30B9
:1015800010BD0320FFF782FB20600028F0D1F5E7B3
:101590005A881344187A10BD448BFF1F238BFF1FFA
:1015A000044B9888044B1B681BB11A885B88D31ABC
:1015B00018447047408DFF1F448BFF1F10B5094B27
:1015C0001B786BB1084C206818B1FFF785FF00232A
:1015D00023600320FFF75AFB10B1FFF77DFFF8E708
:1015E00010BD00BF238BFF1F448BFF1F2DE9F84365
:1015F0002D4E012307460C463370002C4FD02B4D47
:101600002B68A9462BBB48F60148294B1B7803F0F1
:10161000FF020BB9327015E00420FFF753FB0728D7
:1016200008D801233370FFF739FFC9F8000080B9EB
:101630001D4B1870B8F101081E4B01D01A782AB161
:1016400001221A704FF0FF30BDE8F88300F094F8E3
:10165000DBE72968174A488800231370C0F140026D
:10166000944238BF224600F1080C10448C44488054
:10167000A41A934204D0F85C0CF803000133F8E795
:101680001F444B883F2B06D940230B800420FFF7D3
:1016900067FB00232B60084B05221A70ADE73470FE
:1016A0002046BDE8F88300BF398BFF1F3C8BFF1F2E
:1016B000238BFF1F408BFF1F388BFF1F07B502AB2B
:1016C000012103F8010D1846FFF790FF03B05DF804
:1016D00004FBFFFF2DE9F041114B1B78F3B1114ED4
:1016E000114B3468114D01271F7098464CB10027EB
:1016F00063882F70042023802146FFF731FB376079
:1017000009E0FFF7CBFE014620B104202C70FFF763
:1017100027FB00E02F70002388F80030BDE8F0813F
:10172000238BFF1F3C8BFF1F398BFF1F388BFF1F45
:1017300038B50E4B1B7803F0FF05ABB90C4C216894
:1017400031B14B880B800420FFF70AFB256038BDC0
:10175000FFF7A4FE014620B10420BDE83840FFF7A2
:10176000FFBA044B01221A7038BD00BF398BFF1F2E
:101770003C8BFF1F388BFF1F10B50E4C2378BBB975
:1017800001232370FFF70CFF08B1FFF778FE00F08C
:1017900053FC08B100F08AF800F0ACFF08B100F08B
:1017A0000FF901F039FA08B100F094F90023237021
:1017B00010BD00BF498BFF1F08B50368C9B21B6885
:1017C000984708BD08B50368C9B21B68984708BDAB
:1017D00008B50368C9B21B68984708BD08B5036817
:1017E000C9B21B68984708BD034800EB5100B0FB25
:1017F000F1F000F0DBB900BF0044950810B50648D1
:1018000000EB51001446B0FBF1F000F0CFF9204698
:10181000BDE8104000F02EBA0044950800F054BA1C
:10182000084600F085BA084600F0D4BA08461146CA
:1018300000F09ABA08B5084600F0F2FA003018BF76
:10184000012008BD08B5084600F00CFB003018BFA9
:10185000012008BD00F0F0BB00F028BC00F0FCBB8C
:1018600000F0CEBB00F03ABC00F0D4BB08B508468F
:1018700000F01EFB012008BD08B5084600F018FB6B
:10188000012008BD10B508461446114600F05AFB69
:10189000204610BD38B508460D4602F02DF9044625
:1018A0002146284600F04EFB204638BD7047FFFF1A
:1018B000044B00221A714FF47A711A73024A99602C
:1018C0001A6070474C8BFF1F383D000008B5036855
:1018D000C9B21B68984708BD08B50368C9B21B6840
:1018E000984708BD08B50368C9B21B68984708BD8A
:1018F00008B50368C9B21B68984708BD034800EBE8
:101900005100B0FBF1F000F091BC00BF004495081D
:1019100010B5064800EB51001446B0FBF1F000F0A2
:1019200085FC2046BDE8104000F0E4BC004495086A
:1019300000F00ABD084600F05FBD084600F0AEBDED
:101940000846114600F074BD08B5084600F0CEFD0B
:10195000003018BF012008BD08B5084600F0E8FDBA
:10196000003018BF012008BD00F0C4BE00F0FCBE6E
:1019700000F0D0BE00F0A2BE00F00EBF00F0A8BE86
:1019800008B5084600F0F2FD012008BD08B508467C
:1019900000F0ECFD012008BD10B5084614461146C4
:1019A00000F02EFE204610BD38B508460D4602F068
:1019B000A3F804462146284600F022FE204638BD02
:1019C0007047FFFF044B00221A714FF47A711A73AB
:1019D000024A99601A6070475C8BFF1F983D0000B7
:1019E00008B50368C9B21B68984708BD08B5036805
:1019F000C9B21B68984708BD08B50368C9B21B681F
:101A0000984708BD08B50368C9B21B68984708BD68
:101A1000034800EB5100B0FBF1F000F065BF00BFE0
:101A200000A24A0410B5064800EB51001446B0FB72
:101A3000F1F000F059FF2046BDE8104000F096BFDD
:101A400000A24A0400F0BCBF084600F0EDBF084603
:101A500001F02EB80846114601F002B808B5084654
:101A600001F028F8003018BF012008BD08B508466D
:101A700001F042F8003018BF012008BD01F0CCB8D9
:101A800001F004B901F0D8B801F0AAB801F016B914
:101A900001F0B0B808B5084601F04CF8012008BDC7
:101AA00008B5084601F046F8012008BD10B5084603
:101AB0001446114601F088F8204610BD38B5084696
:101AC0000D4602F019F804462146284601F07CF83C
:101AD000204638BD7047FFFF044B00221A714FF4B7
:101AE0007A711A73024A99601A6070476C8BFF1FF3
:101AF000F83D000010B5204B2048214960221A70A3
:101B0000E1225A701F4B204A1C78204B082C01D12F
:101B1000012402E00A2C03D119240460132005E0FB
:101B20000C2C0CBF15243D240460122008601460A6
:101B30001860174B17491B78174A03B101230B6034
:101B40001360164B164A1978164B012901D88021CB
:101B50000BE0042901D8842107E0082901D8852158
:101B600003E0102994BF86218721116019600E4B74
:101B700001221A7010BD00BF0040074008B00340AA
:101B80000CB00340F087FF1F08B00B400CB00B40B7
:101B90007D8BFF1F20B0034020B00B40F187FF1F5B
:101BA00024B0034024B00B407C8BFF1F234B1A68EA
:101BB00042F480621A60224A00231370214A137093
:101BC000214A1370214A1370214A1370214B1B784C
:101BD0002BB1152B07D140F213321F4B02E01F4BE4
:101BE00040F213321A601E4B1B78012B05D0052BD7
:101BF00007D14FF451721B4B02E01B4B4FF4517253
:101C00001A601A4BC0F344321A70C0F347125A706C
:101C10000221042200F01F0098729A70D9745A753C
:101C200088221A743C22DA70114B40226FF44A71F8
:101C30001A700B444FF400521A607047348004400D
:101C4000078CFF1F858BFF1F108CFF1F088CFF1F49
:101C5000848BFF1FC68BFF1F18C0044040A00440A8
:101C6000F287FF1F1CC0044044A0044000A00640AF
:101C70002DE400E0134A937800F0030103F0EC0335
:101C80000B43410748BF43F01003937000F00F036C
:101C9000042B0C4903D18B7943F040038B715379AA
:101CA000C20603F0EF03074A48BF43F01003537125
:101CB0009379810603F0EF0348BF43F0100393715B
:101CC000704700BF00A0064008B5114B1B685B05BC
:101CD00000D408BD0F4B1A7802F0FF0312B1FFF7D2
:101CE0004BFDF7E70C4A4FF4005111600B4A0C49C9
:101CF000D37040F203120A604A600A4A13700A4A1B
:101D000013700A4B1B680BB101221A7008BD00BF8B
:101D100034800440848BFF1F84E100E000A0064073
:101D200040A00440078CFF1F858BFF1F808BFF1F87
:101D300038B50446094B1B7803F0FF05002BF9D199
:101D400020460121FEF7BEFE20462946FEF79AFEF8
:101D5000034B53F83420034B1A6038BD848BFF1FAC
:101D6000F43B00000C8CFF1F10B509B140F080005F
:101D7000144A13789842144622D0134A1268520526
:101D80001DD503F07F03012B04D0052B05D10022C4
:101D90000E4B01E00E4B00221A60002900F07F027A
:101DA0000CBF44236023012A05D0052A07D143F440
:101DB0004073064A02E0064A43F440731360207001
:101DC00010BD00BFF287FF1F348004401CC00440D8
:101DD00044A004400E4A1378984218D00D4909686F
:101DE000490513D52BB1152B05D10B4B00211960DB
:101DF00001E00A490B6028B1152807D140F21331E0
:101E0000054B02E0054B40F213311960107070472A
:101E1000C68BFF1F3480044018C0044040A004401B
:101E20000D4A38B5146814F480624FF0000410D0E5
:101E300021280A4D0AD80A4A012152F830302B6075
:101E4000FEF740FE2B681C70012038BD2C60204638
:101E500038BD104638BD00BF34800440808BFF1F62
:101E6000F43B00000E4B1B6813F4806316D012285D
:101E70000C4B03D140F202310B4A04E0142809D183
:101E80000A4A40F2023111605A7B42F001025A7351
:101E9000012070475A7B02F0FE025A7300207047FF
:101EA0003480044000A006400CA0044014C004404C
:101EB000F8B51D4B1B685A05064633D51B4B1B68EE
:101EC0000BB101221A701A4B1C780134402C1F46AA
:101ED00028BF0024174D2B78A34218D1FEF77AFDB6
:101EE00040280FDC144A13791B06F3D52B781349CD
:101EF0000133402B28BF0023C95CDBB2C9B2D171CA
:101F00002B70E7E7FF28E5DDFFF736FCE2E70B4B38
:101F1000F6B21E550A4B01221A70074BE4B2BC22DE
:101F20003C70DA70F8BD00BF348004400C8CFF1F99
:101F3000108CFF1F088CFF1F00A00640868BFF1F20
:101F4000848BFF1F274B1B685A052DE9F047074676
:101F50008A4644D5244B1B680BB101221A703D46BA
:101F600007EB0A039D4237D2DFF890801F4E98F8A6
:101F7000004096F800900134402C28BF00245FFAFE
:101F800089F9A1451DD11A4BBC22DA70FEF722FD5A
:101F900040280FDC164A13791B060FD533781549F4
:101FA0000133402B28BF0023C95CDBB2C9B2D17119
:101FB000337003E0FF2801DDFFF7DEFB33784B458C
:101FC000E4D00C4B15F8012B1A550B4B0122E4B24F
:101FD0001A7088F80040C3E7054BBC22DA70BDE8F0
:101FE000F08700BF348004400C8CFF1F088CFF1F5B
:101FF00000A00640868BFF1F848BFF1F108CFF1FE5
:1020000008B5034B1B7813B1FFF7B6FBF9E708BD22
:10201000848BFF1F064A074B1B781078DBB2C0B2D7
:1020200083422CBF3F3000F1FF30C01A704700BF21
:10203000088CFF1F108CFF1F054B1878054B1B7871
:10204000C0B2DBB2984238BF4030C01A704700BF00
:10205000078CFF1F858BFF1F10B5104B10491A7896
:102060000B78D2B2DBB29A4214D00133402B28BF96
:1020700000230C48DCB2C05C0C700B490968C0B28C
:1020800051B19A4238BF4032D31A1A2B04DC0023D4
:102090000B7010BD4FF0FF3010BD00BF078CFF1F4D
:1020A000858BFF1FC78BFF1F808BFF1F084B1A7884
:1020B000084B1B78DBB29A4207D00133402B28BF74
:1020C0000023054AD05CC0B270474FF0FF30704724
:1020D000078CFF1F858BFF1FC78BFF1F0C4B1B68D7
:1020E0005B0514D50B4BDA7802F0CB02DA70402294
:1020F0005A74DA7842F03402DA70074B1A78074BD8
:10210000D2B21A70064B1B680BB100221A707047CE
:102110003480044000A00640858BFF1F078CFF1F02
:10212000808BFF1F30B5374B1A7912F0300F31D04A
:1021300072B69A7D02F0FF0022B9DA7940225A7411
:1021400062B627E062B6304A304913780978DBB2CC
:10215000C9B214462B4AD5795A1C402A28BF0022FE
:102160008A42EDB202D02A4B9D541346421E12F011
:10217000FF00EFD1DAB22270264A126852B18B42C8
:1021800036BFC1F14001C1EB03035B18272BC4BF6D
:10219000012313701B4BD978C9B20C0620D51B79CB
:1021A00018061DD51C4B1D4A1D781378EDB2DBB205
:1021B0001046AB420CD0134A0133402B1479184C13
:1021C00028BF0023E45CE4B2D471127D072AF0D961
:1021D000DBB203700B4B1A79120644BF7C22DA7013
:1021E0004B060ED5074B1A7912F0400F194608D04E
:1021F0000C4B00221A700C4B1B6803B11A703C2365
:10220000CB7030BD00A00640078CFF1F858BFF1FE1
:10221000C78BFF1F808BFF1F108CFF1F088CFF1FB9
:10222000868BFF1F848BFF1F0C8CFF1F234B1A68AC
:1022300042F400621A60224A00231370214A13708C
:10224000214A1370214A1370214A1370214B1B78C5
:10225000092B05D01A2B07D140F213321E4B02E096
:102260001E4B40F213321A601D4B1B780A2B05D00F
:102270001F2B07D14FF451721A4B02E01A4B4FF447
:1022800051721A60194BC0F344321A70C0F34712EE
:102290005A7000F01F000422022198729A70D974BB
:1022A0005A7588221A743C22DA70114B40221A7037
:1022B000A3F22B334FF400421A607047348004407D
:1022C000828CFF1F198CFF1F888CFF1F838CFF1FC0
:1022D000188CFF1FF387FF1F04D004400CB004408C
:1022E000F487FF1F00D0044010B0044000B0064047
:1022F0002FE400E0134A937800F0030103F0EC03AD
:102300000B43410748BF43F01003937000F00F03E5
:10231000042B0C4903D18B7943F040038B71537923
:10232000C20603F0EF03074A48BF43F0100353719E
:102330009379810603F0EF0348BF43F010039371D4
:10234000704700BF00B0064008B51E4B1B681B0558
:1023500000D408BD1C4B1B7803F0FF0213B1FFF73C
:102360000BFAF7E7194B4FF400411960184BDA707C
:10237000184B1B78092B05D01A2B07D140F20312FA
:10238000154B02E0154B40F203121A60144B1B78F8
:1023900003F07F030A2B05D01F2B07D140F2031255
:1023A000104B02E0104B40F203121A600F4A002358
:1023B00013700F4A13700F4B1B680BB101221A7078
:1023C00008BD00BF34800440188CFF1F84E100E08A
:1023D00000B00640F387FF1F04D004400CB0044057
:1023E000F487FF1F00D0044010B00440828CFF1F10
:1023F000198CFF1F148CFF1F38B50446094B1B783E
:1024000003F0FF05002BF9D120460121FEF75AFB0E
:1024100020462946FEF736FB034B53F83420034B86
:102420001A6038BD188CFF1FF43B0000848CFF1F1E
:1024300010B509B140F08000144A13789842144650
:1024400022D0134A126812051DD503F07F030A2B10
:1024500004D01F2B05D100220E4B01E00E4B0022B1
:102460001A60002900F07F020CBF442360230A2A6F
:1024700005D01F2A07D143F44073064A02E0064AFA
:1024800043F440731360207010BD00BFF487FF1F3A
:102490003480044000D0044010B004400F4A137848
:1024A00098421AD00E490968090515D5092B04D0A0
:1024B0001A2B05D100210B4B01E00B4B00211960B9
:1024C000092805D01A2807D140F21331054B02E044
:1024D000054B40F21331196010707047F387FF1FEE
:1024E0003480044004D004400CB004400D4A38B598
:1024F000146814F400624FF0000410D021280A4D33
:102500000AD80A4A012152F830302B60FEF7DAFA75
:102510002B681C70012038BD2C60204638BD104649
:1025200038BD00BF34800440148CFF1FF43B000012
:102530000B4B1B6813F4006310D01728094B09D10B
:10254000094A40F2023111605A7B42F001025A738B
:10255000012070475A7B02F0FE025A730020704738
:102560003480044000B0064008B00440F8B51D4B6C
:102570001B681A05064633D51B4B1B680BB101229D
:102580001A701A4B1C780134282C1F4628BF0024CF
:10259000174D2B78A34218D1FEF71CFA40280FDC08
:1025A000144A13791B06F3D52B7813490133282BD2
:1025B00028BF0023C95CDBB2C9B2D1712B70E7E739
:1025C000FF28E5DDFFF7D8F8E2E70B4BF6B21E5522
:1025D0000A4B01221A70074BE4B2BC223C70DA703D
:1025E000F8BD00BF34800440848CFF1F888CFF1F1F
:1025F000838CFF1F00B006401A8CFF1F188CFF1F32
:10260000274B1B681A052DE9F04707468A4644D533
:10261000244B1B680BB101221A703D4607EB0A03DD
:102620009D4237D2DFF890801F4E98F8004096F810
:1026300000900134282C28BF00245FFA89F9A145B5
:102640001DD11A4BBC22DA70FEF7C4F940280FDC0A
:10265000164A13791B060FD5337815490133282BF9
:1026600028BF0023C95CDBB2C9B2D171337003E06B
:10267000FF2801DDFFF780F833784B45E4D00C4BA1
:1026800015F8012B1A550B4B0122E4B21A7088F889
:102690000040C3E7054BBC22DA70BDE8F08700BFFD
:1026A00034800440848CFF1F838CFF1F00B00640E1
:1026B0001A8CFF1F188CFF1F888CFF1F08B5034B57
:1026C0001B7813B1FFF758F8F9E708BD188CFF1F06
:1026D000064A074B1B781078DBB2C0B283422CBF8E
:1026E000273000F1FF30C01A704700BF838CFF1FF6
:1026F000888CFF1F054B1878054B1B78C0B2DBB2E6
:10270000984238BF4030C01A704700BF828CFF1F0C
:10271000198CFF1F10B5104B10491A780B78D2B2E4
:10272000DBB29A4214D00133402B28BF00230C485F
:10273000DCB2C05C0C700B490968C0B251B19A425E
:1027400038BF4032D31A1A2B04DC00230B7010BDA3
:102750004FF0FF3010BD00BF828CFF1F198CFF1F90
:10276000428CFF1F148CFF1F084B1A78084B1B78F4
:10277000DBB29A4207D00133402B28BF0023054A21
:10278000D05CC0B270474FF0FF307047828CFF1FA3
:10279000198CFF1F428CFF1F0C4B1B681B0514D5A7
:1027A0000B4BDA7802F0CB02DA7040225A74DA78F6
:1027B00042F03402DA70074B1A78074BD2B21A7023
:1027C000064B1B680BB100221A707047348004401E
:1027D00000B00640198CFF1F828CFF1F148CFF1F56
:1027E00030B5374B1A7912F0300F31D072B69A7D6E
:1027F00002F0FF0022B9DA7940225A7462B627E06B
:1028000062B6304A304913780978DBB2C9B214464F
:102810002B4AD5795A1C402A28BF00228A42EDB2A1
:1028200002D02A4B9D541346421E12F0FF00EFD1F6
:10283000DAB22270264A126852B18B4236BFC1F119
:102840004001C1EB03035B18272BC4BF01231370A6
:102850001B4BD978C9B20C0620D51B7918061DD59B
:102860001C4B1D4A1D781378EDB2DBB21046AB420B
:102870000CD0134A0133282B1479184C28BF00239D
:10288000E45CE4B2D471127D072AF0D9DBB20370A4
:102890000B4B1A79120644BF7C22DA704B060ED518
:1028A000074B1A7912F0400F194608D00C4B002242
:1028B0001A700C4B1B6803B11A703C23CB7030BDEF
:1028C00000B00640828CFF1F198CFF1F428CFF1F37
:1028D000148CFF1F888CFF1F838CFF1F1A8CFF1F17
:1028E000188CFF1F848CFF1F174B1A6842F480520C
:1028F0001A60164A00231370154A1370154A137094
:10290000154A1370154A1370154A40F213311160BD
:102910004FF451715160134AC0F344311170C0F348
:10292000471100F01F0051709072937013742C23A4
:10293000D3700D4B40226FF44B711A700B444FF45F
:1029400000321A60704700BF34800440FA8CFF1FC9
:10295000918CFF1F008DFF1FFB8CFF1F908CFF1FB2
:1029600008C0044000C0064031E400E0134A9378F8
:1029700000F0030103F0EC030B43410748BF43F0B1
:102980001003937000F00F03042B0C4903D18B79D3
:1029900043F040038B715379C20603F0EF03074AFB
:1029A00048BF43F0100353719379810603F0EF039E
:1029B00048BF43F010039371704700BF00C006404A
:1029C00008B5114B1B68DB0400D408BD0F4B1A7807
:1029D00002F0FF0312B1FEF7CFFEF7E70C4A4FF407
:1029E000003111600B4A0C49D37040F203120A60A7
:1029F0004A600A4A13700A4A13700A4B1B680BB1EB
:102A000001221A7008BD00BF34800440908CFF1F63
:102A100084E100E000C0064008C00440FA8CFF1FBB
:102A2000918CFF1F8C8CFF1F38B50446094B1B7817
:102A300003F0FF05002BF9D120460121FEF742F8F3
:102A400020462946FEF71EF8034B53F83420034B6B
:102A50001A6038BD908CFF1FF43B0000FC8CFF1FF8
:102A600010B509B140F080000E4A1378984217D093
:102A70000D4C2468E40412D503F07F03082B02D127
:102A80000A4B00241C60002900F07F030CBF442186
:102A90006021082B03D1054B41F44071196010707F
:102AA00010BD00BFF587FF1F348004400CC00440F8
:102AB0007047FFFF0D4A38B5146814F480524FF088
:102AC000000410D021280A4D0AD80A4A012152F8E0
:102AD00030302B60FDF7F6FF2B681C70012038BDED
:102AE0002C60204638BD104638BD00BF34800440FD
:102AF0008C8CFF1FF43B00000B4B1B6813F48053BE
:102B000010D00E28094B09D1094A40F20231116058
:102B10005A7B42F001025A73012070475A7B02F03F
:102B2000FE025A73002070473480044000C0064003
:102B300004C00440F8B51D4B1B68DA04064633D5C3
:102B40001B4B1B680BB101221A701A4B1C78013405
:102B5000282C1F4628BF0024174D2B78A34218D1DC
:102B6000FDF738FF40280FDC144A13791B06F3D514
:102B70002B7813490133282B28BF0023C95CDBB213
:102B8000C9B2D1712B70E7E7FF28E5DDFEF7F4FD50
:102B9000E2E70B4BF6B21E550A4B01221A70074BA7
:102BA000E4B2AC223C70DA70F8BD00BF348004405F
:102BB000FC8CFF1F008DFF1FFB8CFF1F00C0064019
:102BC000928CFF1F908CFF1F38B504464518AC420D
:102BD00004D014F8010BFFF7ADFFF8E738BDFFFF95
:102BE00008B5034B1B7813B1FEF7C6FDF9E708BD26
:102BF000908CFF1F064A074B1B781078DBB2C0B2DF
:102C000083422CBF273000F1FF30C01A704700BF4D
:102C1000FB8CFF1F008DFF1F054B1878054B1B78A1
:102C2000C0B2DBB2984238BF4030C01A704700BF14
:102C3000FA8CFF1F918CFF1F10B5104B10491A78AA
:102C40000B78D2B2DBB29A4214D00133402B28BFAA
:102C500000230C48DCB2C05C0C700B490968C0B2A0
:102C600051B19A4238BF4032D31A1A2B04DC0023E8
:102C70000B7010BD4FF0FF3010BD00BFFA8CFF1F6E
:102C8000918CFF1FBA8CFF1F8C8CFF1F084B1A788A
:102C9000084B1B78DBB29A4207D00133402B28BF88
:102CA0000023054AD05CC0B270474FF0FF30704738
:102CB000FA8CFF1F918CFF1FBA8CFF1F054B1A78EF
:102CC000054BD2B21A70054B1B680BB100221A706B
:102CD000704700BF918CFF1FFA8CFF1F8C8CFF1F69
:102CE00010B5294B1A79920620D5284AD87913783D
:102CF00027490133402B097828BF00238B42C0B2FB
:102D000003D02449C854D9B21170234A116869B15B
:102D1000224A1278D2B2934236BFC2F14002C2EBCD
:102D200003039B18272BC4BF01230B70164AD178CD
:102D3000C9B20C0616D51379180613D5184B1748C7
:102D40001C780378DBB29C4202D16C23D37009E07B
:102D50000133282B28BF0023124CE45CDBB2E4B221
:102D6000D47103704B060ED5074B1A7912F0400F41
:102D7000194608D00C4B00221A700C4B1B6803B18B
:102D80001A702C23CB7010BD00C00640FA8CFF1FB8
:102D9000918CFF1FBA8CFF1F8C8CFF1FFB8CFF1FB9
:102DA000008DFF1F928CFF1F908CFF1FFC8CFF1F5C
:102DB0001FB572B6154B70221A70154A4121117059
:102DC0000F2102F8011C80221A701A781206FCD515
:102DD000104B186862B6104B984298BF0A2301AC9A
:102DE00098BF584321460A22FDF716FE0023E15CF6
:102DF0000A4A29B102EB430001330A2B4180F6D184
:102E000001335B00137004B010BD00BF000002402E
:102E100007000240080002407F9698007E88FF1F4E
:102E200008B5024B1B68984708BD00BF208DFF1FE7
:102E300030B51A491A4B0A791A701A481A4B0C689D
:102E40001A780378E48A13FA84F33F2BD2B288BF4E
:102E5000403B9A420446154812D093424FF0010578
:102E600088BF40320570D01A72B60A680979D58ACF
:102E700080B2D082D58BD0830D4A117062B605E046
:102E8000002202700B4A4FF4804111600A4A126816
:102E90000AB100211170DBB2237030BD148DFF1F09
:102EA0001F800040348DFF1F128DFF1F288DFF1FD4
:102EB0001B80004004E200E0248DFF1F08B5024B98
:102EC0001B68984708BD00BF1C8DFF1F10B5044646
:102ED00000F004FD204610BD10B5184B1A79184BB0
:102EE0001A70184A1378013303F03F03D9B21170F6
:102EF000154A1168154A1468621C154A0FD0154806
:102F00000078C0B2834236BFC0F14000C0EB03007E
:102F1000C01880B2A04208DA4C1C02D109E0481C5B
:102F200003D00D48C35C8B4203D10C4B4FF40051CE
:102F30001960136801221A6010BD00BF2C8DFF1F9D
:102F40001F8000402A8DFF1F0C8DFF1F048DFF1F67
:102F5000088DFF1F298DFF1F0084FF1F04E200E082
:102F60002DE9F84F834B01221A60834B40F2133452
:102F70001C604FF451745C60804BC1F344341C708E
:102F8000C1F3471401F01F015C7099720021997020
:102F90000221D9745A7588221A74AC22DA70A022E0
:102FA000DA72427B1AB19A7842F080029A70744FBA
:102FB000DFF804B23B68DFF804A21A69C3F810B066
:102FC0001A683979C3F800A04026DA8BDE83DA8AE2
:102FD000DFF8EC816B48DE8201F11002002401254C
:102FE0004FF030091C755C759C711C765C769C7684
:102FF000DC761D715C711D725C729C72DC721C73DC
:103000005C739C73DC7383F8079048F822004A11C4
:10301000920002F1604202F5614201F01F0105FADF
:1030200001F111609A8B998B92B242F002029A835D
:103030009A8B998B544992B242F008029A833B7959
:1030400003F1804303F5043383221C702E201A7091
:10305000FDF700FD4D4B4E48C0221A704FF48043DF
:1030600003603B7903F1604303F564431E703B79D1
:1030700003F1604303F564431A78464B1A80464ACD
:1030800013681968C3F800B0AAF13F011F691961FC
:10309000D98BDE831C715C71DC711C735C739C7357
:1030A000DC731D755C751D725C729C72DC721C7623
:1030B0005C769C76DC76D98A83F80690DE82167977
:1030C000364F06F1100148F821707111890001F1A5
:1030D000604101F5614106F01F06B5400D60998B16
:1030E0009D8B89B241F002019983137903F18043EA
:1030F00003F5043305461C7036231446284A11781C
:10310000994233D0274901328A42F8D1227902F11B
:10311000804202F5043263F07F03DBB2137023793F
:10312000214903F1804303F5043300221A708222FF
:103130001A702D20FDF78EFC1C4BC0221A704FF424
:1031400000532B60237903F1604303F5644340226D
:103150001A702368164A03F1160111600122C3F8A0
:103160001620144B22791A70BDE8F88F0133402BDA
:10317000C4D1D4E7A806904240A0044000A0064075
:10318000148DFF1F312E0000212E00002EE400E0E0
:1031900004E100E0108DFF1F2C8DFF1FD92E0000D1
:1031A0000010024010100240BD2E00002DE400E08F
:1031B000088DFF1F1B80004007A006404084FF1FB2
:1031C0000082FF1F134A937801F0030003F0EC0321
:1031D0000343480748BF43F01003937001F00F0307
:1031E000042B0C4803D1837943F040038371537956
:1031F000084A03F0EF03C80648BF43F010035371B9
:103200009379890603F0EF0348BF43F010039371ED
:10321000704700BF00A00640134B1B68990710B50C
:1032200004461FD5114B1B689A071BD5104B1B6812
:103230005B0517D50F492D20FDF70CFC23682046B0
:103240005B6998471420FDF79BFC0B4A0B48002351
:1032500040F20311D37001604160D372084A1370C9
:10326000084A137010BD00BF408004403C800440F9
:10327000348004402521000000A0064040A0044006
:10328000348DFF1F128DFF1F38B50C460A4B1B787B
:1032900003F0FF0513B1FEF76FFAF7E720460121AF
:1032A000FDF710FC20462946FDF7ECFB034B53F8D5
:1032B0003420034B1A6038BD288DFF1FF43B0000FB
:1032C000248DFF1F08B5FEF757FA064B1A78064BF8
:1032D0001B789A42F7D1054B1B7813B1FEF74CFAD5
:1032E000F9E708BD128DFF1F348DFF1F288DFF1FCA
:1032F000064A074B1B781078DBB2C0B283422CBF62
:103300003F3000F1FF30C01A704700BF348DFF1FFF
:10331000128DFF1F2DE9F047DFF88480154698F8DD
:1033200000600F46FFF7E4FFF6B2A84238BF05463B
:10333000AC193F2CC246DFF86C800DD9C6F14009AC
:1033400039464A46403C08EB060000F0A5F84046E6
:1033500007EB0901224603E008EB060039462A463E
:1033600000F09AF8E4B20B4B8AF800401A786AB978
:1033700001221A7072B6084A13681279D88AA9B263
:10338000D982D88BD983054B1A7062B62846BDE81E
:10339000F08700BF288DFF1F148DFF1F1B8000408A
:1033A000128DFF1F4084FF1F07B502AB012243F8B7
:1033B000041D1946FFF7AEFF03B05DF804FBFFFFE5
:1033C000054B1878054B1B78C0B2DBB2984238BF6A
:1033D0004030C01A704700BF2A8DFF1F298DFF1F84
:1033E000084B1978084B1A78D2B2914207D00132B3
:1033F00002F03F020549885CD2B21A7070474FF064
:10340000FF3070472A8DFF1F298DFF1F0084FF1F8B
:10341000084B1A78084B1B78DBB29A4206D001336E
:1034200003F03F03054AD05CC0B270474FF0FF3055
:10343000704700BF2A8DFF1F298DFF1F0084FF1FCB
:10344000024B1A78024BD2B21A7070472A8DFF1FB6
:10345000298DFF1F70B50C4E0C4D0D4C30460021D0
:1034600000F0E8F930460B4E2246294600F050FAAB
:103470003046002100F0DEF9304629462246BDE8FC
:10348000704000F045BA00BF148DFF1FCD2E000024
:10349000E087FF1F2C8DFF1F072A2DE9F04302F163
:1034A000FF3200F1FF3501F1FF3424D8062A00F283
:1034B000BF81DFE802F01C1814100C0804000B7820
:1034C00003700C46054663786B70013401356378F0
:1034D0006B700134013563786B70013401356378AA
:1034E0006B700134013563786B700134013563789A
:1034F0006B70BDE8F08305F003038118032BC5EB67
:10350000010104F1010304D01C461B7805F8013FBA
:10351000F1E703F00303022B4FEA910CA5F1030539
:10352000A4F1030400F0AD80032B00F01181012B06
:1035300038D01CF0070F06D054F8043F45F8043F7C
:103540000CF1FF3CF5E74FEADC0C2A4623466646C1
:1035500016F1FF3612D35F6857609F689760DF6887
:10356000D7601F6917615F6957619F699761DF695C
:10357000D76153F8207F42F8207FE9E74FEA4C1CDF
:1035800001F0030165446444022905F1030304F1D9
:10359000030200F04781032940F03D812B1D221DCD
:1035A00021793EE124F0030425F0030554F8046F6B
:1035B0001CF0070F09D0330A54F8046F43EA06637E
:1035C00045F8043F0CF1FF3CF2E74FEADC0C2B46D8
:1035D0002246674617F1FF3739D3D2F804804FEA05
:1035E000086949EA16265E6096684FEA066949EA64
:1035F0001828C3F80880D2F80C804FEA086949EA15
:103600001626DE6016694FEA066949EA1828C3F8EB
:103610001080D2F814804FEA086949EA16265E61E4
:1036200096694FEA066949EA1828C3F81880D2F863
:103630001C804FEA086949EA1626DE6152F8206FBD
:103640004FEA066949EA182843F8208FC2E74FEA93
:103650004C1C01F0030165440229644405F1030395
:1036600009D0032903D0012940F0E28007E0627805
:103670002A712B1D013462785A700134013362784B
:10368000D5E024F0030425F0030554F8046F1CF082
:10369000070F09D0330C54F8046F43EA064345F88A
:1036A000043F0CF1FF3CF2E74FEADC0C2A462346CC
:1036B000674617F1FF3739D3D3F804804FEA08493A
:1036C00049EA164656609E684FEA064949EA184894
:1036D000C2F80880D3F80C804FEA084949EA164638
:1036E000D6601E694FEA064949EA1848C2F81080B8
:1036F000D3F814804FEA084949EA164656619E6994
:103700004FEA064949EA1848C2F81880D3F81C80E5
:103710004FEA084949EA1646D66153F8206F4FEA46
:10372000064949EA184842F8208FC2E74FEA4C1C84
:1037300001F0030165446444022905F1030304F127
:1037400001026FD0032966D12B1DA21CA17868E06D
:1037500024F0030425F0030554F8046F1CF0070F50
:1037600009D0330E54F8046F43EA062345F8043FAA
:103770000CF1FF3CF2E74FEADC0C2A462346674691
:1037800017F1FF3739D3D3F804804FEA082949EA03
:10379000166656609E684FEA062949EA1868C2F81C
:1037A0000880D3F80C804FEA082949EA1666D660EB
:1037B0001E694FEA062949EA1868C2F81080D3F852
:1037C00014804FEA082949EA166656619E694FEA55
:1037D000062949EA1868C2F81880D3F81C804FEA15
:1037E000082949EA1666D66153F8206F4FEA062980
:1037F00049EA186842F8208FC2E74FEA4C1C01F0F2
:10380000030165446444022905F1030304F1020243
:1038100008D0032902D001290AD107E0E1782B1D45
:10382000E21C2971517859700132013352785A7073
:10383000BDE8F08330B572B6254C09B9026812B9FB
:10384000218800230FE003790F2BF9D82188194133
:10385000C907F5D503F1007303F59063B2EB431F7D
:10386000EED162B630BD41FA03F212F0010227D167
:1038700001259D402943218062B6164CD9B20171C1
:10388000256845F00205256054F8045C03F10073D7
:1038900045F0020544F8045C03F590630E4C5B01AF
:1038A00082252560A176A1772176E17703601A60F1
:1038B0005A609A60DA601A615A619A61DA6130BDC1
:1038C0000133102BCFD162B600220260037130BDEC
:1038D000368DFF1F408004400080004003790F2B8D
:1038E00010D8094A137072B6084B0279012101FA07
:1038F00002F2198821EA02021A8062B610230371CB
:1039000000230360704700BF1A800040368DFF1F00
:1039100003460846194600F001B8FFFF70B5064C93
:1039200006460D4613462CB131462A460220AFF317
:10393000008070BD204670BD0000000070B50E4BC9
:103940000E4DED1AAD1000241E46AC4204D056F8C0
:10395000242090470134F8E700F0D6FA084D094BCF
:10396000ED1AAD1000241E46AC4204D056F82420B7
:1039700090470134F8E770BD143F0000143F000089
:10398000303F0000143F0000024B0146186800F071
:103990004FB800BFF488FF1F024B0146186800F0C3
:1039A00003B800BFF488FF1F30B500293CD051F8A0
:1039B000042C0B1F1D49002AB8BF9B180A680C462F
:1039C00012B95A600B6030BD93420DD21968581875
:1039D000904203D15A581144426819605A602360DA
:1039E00030BD994203D80A4651680029F9D11468BC
:1039F00015199D420AD11B682344D01888421360D0
:103A000012D10868034413604B680CE002D90C2300
:103A1000036030BD18681C188C4203D10C684968DB
:103A2000204418605960536030BD00BF3C8DFF1FBB
:103A300070B5CD1C25F0030508350C2D38BF0C25BD
:103A4000002D06463FDB8D423DD3214B1C681846B6
:103A50002146A1B10B685B1B0ED40B2B03D90B6065
:103A6000CC18CD501FE08C4202D1626802601AE08F
:103A70004B6863600C4616E00C464968E9E7154C54
:103A800023681BB9304600F027F8206029463046ED
:103A900000F022F8431C014615D0C41C24F0030496
:103AA00084420AD1256004F10B00231D20F0070099
:103AB000C31A0BD05A42E25070BD3046611A00F072
:103AC0000BF80130EED10C233360002070BD00BF35
:103AD0003C8DFF1F388DFF1F38B5064C002305466F
:103AE00008462360FCF76EFF431C02D1236803B134
:103AF0002B6038BD548DFF1F034613F8012B002A9D
:103B0000FBD1181A013870470000000000000000C7
:103B1000150500001F050000FD040000050500005C
:103B20000105000009050000BD040000E1040000DB
:103B3000F5040000F90400000D0500001105000067
:103B4000830400008F0400009B040000A704000011
:103B5000B3040000230500004C65742773206861DE
:103B600076652061206C6F6F6B2061742076693AF6
:103B700020000974686520656C656D656E74206150
:103B80007420696E64657820002069733A200053C0
:103B9000656E74206F66662061727261792077614C
:103BA000733A00726F6C6C696E6720617272617932
:103BB00000494E2053594E43005765697264206294
:103BC000756666657273697A652C207365747469AD
:103BD0006E672073796E6320746F2066616C736505
:103BE0000042554646455254524947474552000DFA
:103BF0000AFFFFFF4008FE4340A004404408FE4384
:103C000044A004400018FE4300C004403000FE43BE
:103C1000309004403400FE43349004401C18FE43AE
:103C20001CC004401018FE4310C004400818FE4396
:103C300008C004400C18FE430CC004400C10FE43A6
:103C40000CB004401010FE4310B004401810FE43A6
:103C500018B004401C10FE431CB004401410FE4376
:103C600014B004400418FE4304C004400010FE4396
:103C700000B004400008FE4300A004400408FE43D6
:103C800004A004400C08FE430CA004400808FE43B6
:103C900008A004401418FE4314C004401818FE4342
:103CA00018C004400410FE4304B004400810FE4352
:103CB00008B004401400FE43149004404C08FE4336
:103CC0004CA004400420FE4304D004402410FE43D2
:103CD00024B004402010FE4320B004402810FE43CE
:103CE00028B004402C10FE432CB004400020FE43BA
:103CF00000D004404808FE4348A004401000FE43A2
:103D000010900440FFFFFFFF0000000000000000D3
:103D100071140000771400005D14000061140000AD
:103D200065140000691400006D140000000000001C
:103D300000000000000000006D1800008518000061
:103D4000551800005D1800005918000061180000A7
:103D5000E9170000FD1700001D18000021180000E1
:103D6000271800002D180000351800004518000025
:103D70006518000069180000B9170000C517000099
:103D8000D1170000DD170000951800007918000019
:103D900000000000000000008119000099190000D7
:103DA00069190000711900006D19000075190000F3
:103DB000FD1800001119000031190000351900002C
:103DC0003B19000041190000491900005919000071
:103DD000791900007D190000CD180000D9180000E5
:103DE000E5180000F1180000A91900008D19000065
:103DF0000000000000000000951A0000AD1A00004D
:103E00007D1A0000851A0000811A0000891A00003E
:103E1000111A0000251A0000451A0000491A000076
:103E20004F1A0000551A00005D1A00006D1A0000BC
:103E30008D1A0000911A0000E1190000ED19000030
:103E4000F9190000051A0000BD1A0000A11A0000AF
:103E50000015191500010000F687FF1F1200000071
:103E6000000200002088FF1F430000000003000044
:103E70007A88FF1F00000000010309040888FF1F63
:103E800000000000020309046488FF1F0000000016
:103E9000030309047E88FF1F0000000000000000EB
:103EA0000000000000000000000000000000000012
:103EB0000000000000000000000000000000000002
:103EC00000000000000000000000000000000000F2
:103ED00000000000000000000000000000000000E2
:103EE00000000000000000000000000000000000D2
:103EF00000000000000000000000000000000000C2
:103F00000000000000000000F8B500BFF8BC08BCCD
:103F10009E467047350400003508000081140000FB
:103F2000B1180000C5190000D91A0000553400006E
:103F30000000000004000100588DFF1FFFFFFFFF7D
:103F40000A0401090A081201010102000040C0161A
:103F50008304000201020301180354006500650098
:103F60006E00730079006400750069006E006F00D8
:103F700009024300020100C03209040000010202EC
:103F8000010005240010010524010101042402069A
:103F90000524060001070582031000400904010002
:103FA000020A000000070503024000000705840222
:103FB000400000001603550053004200200053004B
:103FC00065007200690061006C00040309040C03C1
:103FD00000000000000000000000000000000000E1
:103FE0000000000000000000A83E0000C83E0000E5
:103FF000E83E00000000000000000000000000009B
:1040000000000000B73B00000000000000000000BE
:1040100000000000000000000000000000000000A0
:104020000000000000000000000000000000000090
:104030000000000000000000000000000000000080
:08404000000000009488FF1F3E
:00000001FF
