:1000000000800020BD010000891700005517000086
:100010005517000055170000551700005517000030
:1000200055170000551700005517000089170000EC
:1000300089170000551700008917000045170000B8
:100040008917000089170000891700008917000030
:100050008917000089170000891700008917000020
:100060008917000089170000891700008917000010
:100070008917000089170000891700008917000000
:1000800089170000891700008917000089170000F0
:1000900089170000891700008917000089170000E0
:1000A00089170000891700008917000089170000D0
:1000B00089170000891700008917000089170000C0
:1000C00089170000891700008917000089170000B0
:1000D00089170000891700008917000089170000A0
:1000E0008917000089170000891700008917000090
:1000F00089170000092F000089170000C53500008E
:1001000089170000C53A0000891700008917000010
:10011000891700008917000089170000891700005F
:10012000891700008917000089170000891700004F
:10013000891700008917000089170000891700003F
:10014000891700008917000089170000891700002F
:10015000E1140000F9140000111500002915000039
:1001600089170000C51B00008917000089170000CF
:1001700089170000891700008917000089170000FF
:1001800089170000891700008917000089170000EF
:1001900089170000891700008917000089170000DF
:1001A00089170000891700008917000089170000CF
:1001B000891700008917000089170000564B4CF280
:1001C000205210B51A804DF628121A8000BF00BFC9
:1001D00001F0DEFA514B4FF010621A60504A9A60FB
:1001E000504ADA60A3F53043203B1A6812F480725B
:1001F00004D14D490A604FF4A8521A604B4B1A784B
:10020000110703D51A7842F008021A70484B2A22C7
:100210001A700023474A48499818884204D247492F
:10022000595899500433F5E7454A464B9A424FF0E6
:10023000000302D242F8043BF7E74349434A5958C6
:1002400099500433B3F5DE7FF7D1414B802103F899
:10025000011B40498B42F9D13F4B1A603F4B8A2228
:100260001A70A3F5805324225A70A0221A709A792A
:100270009207FCD59A79D406FCD4394B9A7902F0CE
:100280000C02082AF9D105221A7143225A719A796F
:100290009006FCD5324B9A795106FBD5314A4FF086
:1002A000817111600521516020221A702C4B9B79BD
:1002B00003F00C030C2BF9D12B4B2C4A1A602C4B5E
:1002C0002C4A1A6000225A60072243F8042C2A4A5A
:1002D000C3F80C2D62B601F05BFB134B1B68DA0709
:1002E00005D5264801F0B0FA254B264A1A60264B60
:1002F0001B785B0609D5224C224A2368934204D11D
:100300001E4801F0A1FA0023236005F06FF801F008
:1003100045FA01F00FFAFEE70E2005403080044058
:10032000823F04000100002B14D0034002D007409C
:1003300000E007406089FF1F808AFF1F305B0000DC
:10034000808AFF1FFC93FF1F000000000082FF1F38
:1003500000E400E05FE400E008ED00E0005006404B
:10036000004006404480044004800440C010050062
:1003700014E000E03F190100000020206F1926580A
:100380001CE00340A5C3945A00F00740FFFFFFFFA5
:10039000FFFFFFFFFFFFFFFFFFFFFFFFFFFFFFFF6D
:1003A000FFFFFFFFFFFFFFFFFFFFFFFFFFFFFFFF5D
:1003B000FFFFFFFFFFFFFFFFFFFFFFFFFFFFFFFF4D
:1003C000FFFFFFFFFFFFFFFFFFFFFFFFFFFFFFFF3D
:1003D000FFFFFFFFFFFFFFFFFFFFFFFFFFFFFFFF2D
:1003E000FFFFFFFFFFFFFFFFFFFFFFFFFFFFFFFF1D
:1003F000FFFFFFFFFFFFFFFFFFFFFFFFFFFFFFFF0D
:10040000FFFFFFFFFFFFFFFFFFFFFFFFDEF9FFFF23
:1004100010B5054C237833B9044B13B10448AFF33E
:1004200000800123237010BD808AFF1F00000000A0
:10043000305B000008B5064B1BB106480649AFF318
:1004400000800648036813B1054B03B1984708BD07
:1004500000000000305B0000848AFF1F808AFF1FBD
:100460000000000070B5044608460D4601F0C0F9D2
:1004700000230646A2686068934203DAC25CF25425
:100480000133F7E708B101F0B7F96660E56070BDC8
:1004900083709DF80030C3709DF8043001700371C3
:1004A000704730B50023C1B00C468B6000220DF8B8
:1004B00003200133FF2BF9D18DF800308DF8013086
:1004C00003788DF8023004238DF8033083788DF89B
:1004D0000430C3788DF8053003798DF80630022397
:1004E0001DF8031001330A44072BD2B2F8D1D243CE
:1004F0008DF807200025E26812B92046042106E0A5
:10050000A368934205D15900994202DD2046FFF7C6
:10051000A9FFA36862681DF80510D154A3680135CE
:100520000133082DA360E6D141B030BD704708B556
:100530000368C9B21B68984708BD08B50368C9B20B
:100540001B68984708BD08B50368C9B21B6898477F
:1005500008BD08B50368C9B21B68984708BD0020EC
:100560007047704708B50368C9B21B68984708BD53
:1005700008B50368C9B21B68984708BD08B5036889
:10058000C9B21B68984708BD08B50368C9B21B68A3
:10059000984708BD00207047704708B50368C9B286
:1005A0001B68984708BD08B50368C9B21B6898471F
:1005B00008BD08B50368C9B21B68984708BD08B5EF
:1005C0000368C9B21B68984708BD00207047704790
:1005D0007047FFFF38B50C461146054603F0E4FCB2
:1005E000044901EB54012846B1FBF4F1BDE8384061
:1005F00003F0A8BB00449508034B03EB5103B3FB86
:10060000F1F103F09FBB00BF0044950803F0F6BC76
:1006100003F02CBD03F0C6BD03F0ECBD03F0D2BD6A
:1006200003F042BD03F0FEBD03F054BD08B503F076
:10063000ADFD012008BD03F05FBD38B50546084695
:100640000C4604F0B1FF214602462846BDE838407A
:1006500003F052BD38B50C461146054603F0DAFFEB
:10066000044901EB54012846B1FBF4F1BDE83840E0
:1006700003F09EBE00449508034B03EB5103B3FB0C
:10068000F1F103F095BE00BF0044950803F0ECBF04
:1006900004F022B804F0BAB804F0E0B804F0C6B828
:1006A00004F038B804F0F2B804F04AB808B504F021
:1006B000A1F8012008BD04F055B838B50546084634
:1006C0000C4604F071FF214602462846BDE838403A
:1006D00004F048B838B50C461146054604F0CCFA8B
:1006E000044901EB54012846B1FBF4F1BDE8384060
:1006F00004F092B900449508034B03EB5103B3FB9C
:10070000F1F104F089B900BF00A24A0404F0DEBA96
:1007100004F014BB04F0ACBB04F0D2BB04F0B8BBD3
:1007200004F02ABB04F0E4BB04F03CBB08B504F0C1
:1007300093FB012008BD04F047BB38B505460846C9
:100740000C4604F031FF214602462846BDE83840F9
:1007500004F03ABB10B5044600F09AFF204610BDE5
:100760000A4B0B4901221A7009780A4BFF225A736F
:1007700029B11B7B03F1604303F564431A700548FC
:10078000054941F61F4200F06DBF00BF9D8AFF1F63
:100790005A90FF1F288FFF1FA50F000010B50446B9
:1007A000406804F051FE002363602360238163816D
:1007B000A381E381204610BD08B50D20012101F081
:1007C00073F801210D2001F04FF8FA2001F0CAF86A
:1007D0000D20002101F048F8FA2001F0C3F8F0E7FD
:1007E0000A4B0B4901221A7009780A4BFF225A73EF
:1007F00029B11B7B03F1604303F564431A7005487C
:10080000054941F61F4200F02DBF00BF9C8AFF1F23
:100810005A90FF1FA08DFF1F450F000038B50446FA
:1008200008460D4604F0C0FE236802465B68204679
:100830002946984738BD38B50446FFF7EFFF05460F
:10084000204600F02FFF284438BD38B50446FFF796
:10085000E5FF0546204600F025FF284438BD38B5A1
:100860000A220023044600F02DFF0546204600F032
:1008700019FF284438BDFFFF2DE9F0414E484F498C
:10088000FFF7D9FF4E4B1A781F46002A00F09280DE
:100890004C4C4D4D23889BB2032B85BF4B4BDB78D3
:1008A000042304332B804A4803F07CFCB0B1228837
:1008B0002B88444E92B29BB29A420FD24448B6F86B
:1008C000008003F07FFC1FFA88F8404BC0B203F8A9
:1008D0000800338801339BB23380E4E723889BB25E
:1008E000042B48D9394E374BF2781B8803329BB220
:1008F0009A4240DA37493048FFF790FFB1782E48E6
:10090000FFF7ADFF2C483449FFF795FF0025F3783A
:100910002E4F0333AB4205DB795D2748FFF79FFF7E
:100920000135F4E72D4B2E4800221A7000F0B0FE7E
:100930002C4B1B7803F0FF052BB1BB782A4ADBB2A6
:100940000121D15410E0294B1B786BB11A4828497A
:10095000FFF771FF23889BB29D4205DA715D16484F
:10096000FFF77DFF0135F5E7224B04221A600023D3
:100970002380BDE8F08123889BB2032B03D9134B5E
:10098000DB7804332B802A88238892B29BB2D21A58
:10099000184B1A601A681968002901DD642A09DDFC
:1009A000002215493A7015482280012208601A6019
:1009B000BDE8F081BDE8F0815491FF1FA85600000A
:1009C0006A89FF1F5090FF1F6489FF1FA18AFF1FC4
:1009D000E88EFF1FE6560000005700009C8AFF1FAC
:1009E000A08DFF1F5290FF1F3E8FFF1F9F8AFF1F8A
:1009F000C35600003093FF1F4893FF1F110D0000E6
:100A00002DE9F0414E484F49FFF715FF4E4B1A783C
:100A10001F46002A00F092804C4C4D4D23889BB21B
:100A2000032B85BF4B4BDB78042304332B804A48D0
:100A300003F0ECFEB0B122882B88444E92B29BB2F8
:100A40009A420FD24448B6F8008003F0EFFE1FFA36
:100A500088F8404BC0B203F80800338801339BB2DA
:100A60003380E4E723889BB2042B48D9394E374BB7
:100A7000F2781B8803329BB29A4240DA37493048F9
:100A8000FFF7CCFEB1782E48FFF7E9FE2C48344939
:100A9000FFF7D1FE0025F3782E4F0333AB4205DB81
:100AA000795D2748FFF7DBFE0135F4E72D4B2E4833
:100AB00000221A7000F0ECFD2C4B1B7803F0FF05B0
:100AC0002BB1BB782A4ADBB20221D15410E0294B6A
:100AD0001B786BB11A482849FFF7ADFE23889BB2FB
:100AE0009D4205DA715D1648FFF7B9FE0135F5E75D
:100AF000224B04221A6000232380BDE8F081238862
:100B00009BB2032B03D9134BDB7804332B802A8849
:100B1000238892B29BB2D21A184B1A601A681968CD
:100B2000002901DD642A09DD002215493A701548C3
:100B30002280012208601A60BDE8F081BDE8F081E2
:100B40005491FF1F0B5700006B89FF1F3E90FF1F42
:100B50006689FF1FA08BFF1FF88EFF1FE65600005F
:100B6000005700009D8AFF1F288FFF1F5290FF1F14
:100B70003E8FFF1F9F8AFF1FC35600006493FF1F15
:100B80009093FF1FCD0D00002DE9F0414E484F49D5
:100B9000FFF751FE4E4B1A781F46002A00F0928054
:100BA0004C4C4D4D23889BB2032B85BF4B4BDB78C0
:100BB000042304332B804A4804F05AF9B0B1228848
:100BC0002B88444E92B29BB29A420FD24448B6F858
:100BD000008004F05DF91FFA88F8404BC0B203F8BA
:100BE0000800338801339BB23380E4E723889BB24B
:100BF000042B48D9394E374BF2781B8803329BB20D
:100C00009A4240DA37493048FFF708FEB1782E485B
:100C1000FFF725FE2C483449FFF70DFE0025F37839
:100C20002E4F0333AB4205DB795D2748FFF717FEF4
:100C30000135F4E72D4B2E4800221A7000F028FDF4
:100C40002C4B1B7803F0FF052BB1BB782A4ADBB293
:100C50000321D15410E0294B1B786BB11A48284965
:100C6000FFF7E9FD23889BB29D4205DA715D1648C6
:100C7000FFF7F5FD0135F5E7224B04221A6000234A
:100C80002380BDE8F08123889BB2032B03D9134B4B
:100C9000DB7804332B802A88238892B29BB2D21A45
:100CA000184B1A601A681968002901DD642A09DDE9
:100CB000002215493A7015482280012208601A6006
:100CC000BDE8F081BDE8F0815491FF1F2657000078
:100CD0006C89FF1F5490FF1F6889FF1F9F8CFF1FA7
:100CE000088FFF1FE6560000005700009E8AFF1F76
:100CF000D48EFF1F5290FF1F3E8FFF1F9F8AFF1F42
:100D0000C3560000C093FF1FA493FF1F890E00006D
:100D100038B5254803F046FA002844D0234C224831
:100D2000258803F04FFAADB2214BC0B25855228846
:100D3000013292B22280228892B2032A25461C46B2
:100D400031D91A78FF2A0DD15A78FF2A0AD1194AC7
:100D500001211170DA78184B04321A60174B184AC7
:100D60001A6038BD17491848FFF765FD63781648C3
:100D7000DBB22370A378DBB26370E378DBB2A370DD
:100D80002178FFF76CFD61780F48FFF768FDA178C7
:100D90000D48FFF764FDE1780B48FFF760FD2B88F5
:100DA000013B9BB22B8038BDE88EFF1F5090FF1F88
:100DB000A18AFF1F6A89FF1F3093FF1F4893FF1FFF
:100DC00079080000415700005491FF1F38B52548AD
:100DD00003F01CFD002844D0234C2248258803F052
:100DE00025FDADB2214BC0B258552288013292B2D6
:100DF0002280228892B2032A25461C4631D91A78CD
:100E0000FF2A0DD15A78FF2A0AD1194A01211170FF
:100E1000DA78184B04321A60174B184A1A6038BD3A
:100E200017491848FFF707FD63781648DBB22370AF
:100E3000A378DBB26370E378DBB2A3702178FFF7AD
:100E40000EFD61780F48FFF70AFDA1780D48FFF706
:100E500006FDE1780B48FFF702FD2B88013B9BB2B2
:100E60002B8038BDF88EFF1F3E90FF1FA08BFF1F09
:100E70006B89FF1F6493FF1F9093FF1F010A0000FF
:100E8000415700005491FF1F38B5254803F0F0FF8B
:100E9000002844D0234C2248258803F0F9FFADB246
:100EA000214BC0B258552288013292B2228022884A
:100EB00092B2032A25461C4631D91A78FF2A0DD151
:100EC0005A78FF2A0AD1194A01211170DA78184B91
:100ED00004321A60174B184A1A6038BD174918486F
:100EE000FFF7A9FC63781648DBB22370A378DBB266
:100EF0006370E378DBB2A3702178FFF7B0FC617810
:100F00000F48FFF7ACFCA1780D48FFF7A8FCE1788B
:100F10000B48FFF7A4FC2B88013B9BB22B8038BD0C
:100F2000088FFF1F5490FF1F9F8CFF1F6C89FF1FAE
:100F3000C093FF1FA493FF1F010A00004157000048
:100F40005491FF1F38B51048104D114C00F0A0FB14
:100F5000104B1149114800221A70FFF75FFC6B68B3
:100F60000E489978FFF77BFC2378022B0BD8696831
:100F7000AA680B48FFF75FFB094803F095F8237850
:100F80000133DBB2237038BDA08DFF1F4090FF1FDF
:100F90003C8FFF1F9C8AFF1F4F5700005491FF1F7B
:100FA000E88EFF1F38B51148114D00F071FB114B51
:100FB0001149124800221A70FFF730FC6B680F4885
:100FC0009978FFF74CFC0E4C2378022B0CD86968FB
:100FD000AA680C48FFF76FFB0A4803F09BFB2378D5
:100FE0000133DBB22370EEE738BD00BF288FFF1F4F
:100FF0004090FF1F9D8AFF1F4F5700005491FF1F15
:101000003D8FFF1FF88EFF1F38B51F4B1F4A1A6018
:101010001F4B204A204D1A60204B01242846902166
:101020001C6002F08FFE284603F0FCF821460D20DC
:1010300000F03AFC1A4B1B4A1A601B4B1B4A1C4D12
:101040001A601C4B284690211C6003F0B1F9284619
:1010500003F01CFC184B194A1A60194B194A1A4D17
:101060001A601A4B284648211C6003F0D5FC28461C
:1010700003F03EFF164B02229C705A734FF4FA6045
:10108000BDE8384000F06EBC4C93FF1FE107000044
:101090004893FF1F79080000E88EFF1F3093FF1F61
:1010A0009493FF1F610700009093FF1F010A000047
:1010B000F88EFF1F6493FF1FA893FF1FCF0500004A
:1010C000A493FF1F890B0000088FFF1FC093FF1F11
:1010D0003E8FFF1F38B5002304460381438183817F
:1010E000C381036088000D4604F0A6F9606008B96A
:1010F000FFF762FB2581204638BD02894389934270
:1011000070B510D0C58946686C1CA4B2944208BF63
:10111000002203F10103C48146F8251008BFC281F3
:101120004381012070BD002070BDFFFF418910B5D3
:10113000034631B9006810B10949FFF786FBFFF794
:101140003BFB446880890139421C54F820005981D6
:10115000198992B291429A8104BF00229A8110BDEE
:101160005F57000038B50D4B1B78ABB90C4843896D
:1011700093B1FFF7DBFF0B4C21460546FFF791F9D2
:101180006168A2680848FFF756FA074802F08CFF2A
:10119000284600F02FFBE6E738BD00BF9C8AFF1F02
:1011A000B48DFF1F4090FF1FE88EFF1F38B50D4B19
:1011B0001B78ABB90C48438993B1FFF7B7FF0B4CD1
:1011C00021460546FFF76DF96168A2680848FFF7F8
:1011D00072FA074803F09EFA284600F00BFBE6E798
:1011E00038BD00BF9D8AFF1FC48EFF1F4090FF1FA8
:1011F000F88EFF1F2DE9F341534C0023237001F0BB
:10120000C1F8002800F09C8001F0BCF8002800F034
:1012100097804E484E494C4DFFF70DFB237833B96C
:1012200001F06EF84B4B18702B7801332B70277838
:10123000454D032F42D9474E3378FF2B3746E3D134
:101240007378FF2BE0D1F578F878C31C9D420BDC56
:1012500094F8008001F054F83E4B03F8080023781E
:10126000013323700135EFE7217801399942CBD161
:1012700002230022851CAB4204DCFD5C2A44D2B26E
:101280000133F7E7D243735C324DD2B29342BBD104
:10129000052000F0ABFA6F79A978EA782B790097EE
:1012A000AF7901970646FFF7F3F8AB782A4AD15C8D
:1012B000012920D129490978E9B92BE0A4D001F00E
:1012C0001FF8244EF0552F7833780137FFB2FF2BEB
:1012D0002F7099D17378FF2B96D101F011F8F0554A
:1012E0002F780137FFB22F7001F00AF82B78F055F4
:1012F00001332B7088E7D15C022912D11749097894
:1013000079B931461648FFF7F8FEFFF74FFF002383
:10131000237079E731461348FFF7EFFEFFF722FF0E
:10132000F5E7D15C032903D10C4909780029EED0F7
:10133000D35C002BEBD10C490448FFF77CFAE6E7BD
:1013400002B0BDE8F08100BFA08AFF1F5491FF1FCB
:10135000B8570000C48DFF1F3E8FFF1F5290FF1F24
:10136000C48EFF1FB48DFF1FD0570000FFF742BF90
:10137000F8B53B4B3B4A1A6000244FF47A713A4A65
:101380001C7199601C735C734FF0FF331360374A14
:1013900037481360374A02603748384D0260384A90
:1013A000384810601471916014735473364A37488A
:1013B0001360374A374E1360374A0260374802607D
:1013C000374A384891603849116014711473547366
:1013D000364A04701360364A1360364A364B13603F
:1013E000364A8027136031462A46477303F0E8FFE8
:1013F000334831462A460470477303F0E1FF314811
:101400004773314F04702A46314603F0D9FF2F4EFF
:1014100038463221FFF75EFE38462D4F2A463146C8
:1014200003F0CEFF38463221FFF754FE3846294FED
:101430002A46314603F0C4FF38463221FFF74AFE00
:1014400031462A46384603F0BBFF2348234944600F
:101450008460C4602A46BDE8F84003F0B1BF00BF15
:10146000E88EFF1FC05500003893FF1F3093FF1F09
:101470004C93FF1F2D0500004893FF1F6089FF1F3D
:10148000F88EFF1F105600007493FF1F9493FF1FE8
:101490006493FF1F55070000630500009093FF1F32
:1014A000088FFF1FA08DFF1F60560000AC93FF1F29
:1014B000C093FF1FA893FF1F99050000A493FF1F6F
:1014C000288FFF1FD48EFF1FB48DFF1F9D070000C4
:1014D000C48EFF1F188FFF1F4090FF1FD105000013
:1014E00008B5034B01221A60024B1B68984708BDE0
:1014F0000C7103405C90FF1F08B5034B01221A607A
:10150000024B5B68984708BD1C7103405C90FF1F4D
:1015100008B5034B01221A60024B9B68984708BD2F
:101520002C7103405C90FF1F08B5034B01221A6029
:10153000024BDB68984708BD3C7103405C90FF1F7D
:10154000054B1A6842F400021A60044B00221A602C
:10155000034B01221A7070473C8004400070034026
:101560005A90FF1F064B01221A6003F588333C3363
:101570001A6822F400021A60024B00221A707047A7
:10158000007003405A90FF1FF0B54578134C144F7C
:101590002B011A194260134A9E188660066947F8A3
:1015A000256000259D501951032199504378427BB5
:1015B0004433DBB2037303F1604303F56443012159
:1015C0001A70027B53119B0003F1604303F56143E2
:1015D00002F01F0201FA02F21A60F0BD007103402E
:1015E0005C90FF1F08710340F8B50C4B1B78064652
:1015F0000F460BB9FFF7A4FF0024094D625DE3B26B
:101600003AB9304673703946FFF7BEFF01202855BE
:10161000F8BD0134042CF0D10020F8BD5A90FF1F12
:101620005690FF1F8268002310B51360027B0121D2
:10163000541102F01F0201FA02F2084941F8242075
:10164000074A41785354D15C31B90133042BFAD1A4
:10165000BDE81040FFF786BF10BD00BF80E100E08D
:101660005690FF1F037870B504460D4616461BB111
:10167000FFF7D8FF00232370256120463146FFF78E
:10168000B3FF10B10123237000E02070207870BDFB
:10169000037810B504460BB1FFF7C4FF0023237095
:1016A00010BDFFFF07B5064B1B88ADF8043003687B
:1016B00001A95B680222984703B05DF804FB00BFF4
:1016C000EB57000070B505468AB022B90368C9B26D
:1016D0001B6898472CE0012A08BF0A2221B9302252
:1016E0008DF82520212413E02124B1FBF2F002FB28
:1016F0001011C9B209290AAE94BF303137312644DE
:10170000C9B206F8241C014610B1013CE4B2ECE772
:1017100033B1013CE4B20AAB23442D2203F8242C5C
:101720002B6801A95B6828462144C4F1220298472E
:101730000AB070BD08B5FFF767FCFFF717FE00F0B1
:101740000DFFFAE7024B1A6801321A60704700BFBA
:101750006C90FF1F08B50B4C2368580301D500F0AF
:1017600031FA2368590501D501F0CEFB23681A052B
:1017700001D501F027FF2368DB04ECD502F0A2F9C4
:10178000E9E700BF3480044008B5FFF7E3FFFFFF3F
:10179000014B10221A807047002005407047FFFF60
:1017A000024A136818441060184670477089FF1F7A
:1017B000EFF313839BB9EFF3108098B9EFF3058330
:1017C00023B10F2B04D9084A985C01E04FF48070D4
:1017D000EFF311833BB1834238BF184670474FF097
:1017E000FF30704718467047F0E300E003F024BE76
:1017F00003F022BE03F028BE03F026BE10B500237E
:10180000B0FBF2F402FB1400092894BF30303730EB
:10181000C0B2C85420460CB10133F1E7CA18547065
:1018200022469A4206DA885CCC5C8C54C854013259
:10183000013BF6E7084610BD1030024B43F820107C
:10184000704700BF0082FF1F044B054900221A6049
:101850000A60044A106010221A60704714D00340D6
:1018600004D0034000D00340212810B518D80D4AF9
:1018700052F8303093F880423CB1012211B183F824
:10188000802010BD83F8002110BD02EBC00043682A
:101890001A6811B142F0030201E022F002021A605C
:1018A00010BD00BFF0570000212810B537D81C4AE2
:1018B00002EBC00301295B68144601D004290FD153
:1018C00054F83020012082F880024FF4A2721A608E
:1018D0001A6804290CBF42F0200222F020021DE009
:1018E00052F83020002082F8800211B18A1E012AAD
:1018F00012D84FF4807202291A6003D11A6842F09C
:1019000003020BE003290AD11A6842F002021A60AE
:101910001A6822F0010201E040F203121A6010BDC1
:10192000F057000072B60C4B0C491A680C4B1B6840
:10193000096862B6490102D5322A88BF0133C2F56F
:101940008C32482102F23F12B2FBF1F24FF47A706E
:1019500000FB0320704700BF18E000E004ED00E04A
:101960006C90FF1F38B50446FFF7DCFF054624B92D
:1019700038BD013C0AD005F57A75FFF7D3FF401B4F
:10198000B0F57A7FF5D200F0E9FDF6E738BDFFFF4C
:10199000204B4FF4000210B51A604FF080721A60AD
:1019A0004FF000721A604FF080621A604FF00062D0
:1019B0001A60194B194A1A4C002048F6FF7118603A
:1019C00059602823136093601361936113629362DB
:1019D000136393630922226004F580540434206069
:1019E0006160A360236144F8042C04F5FE242060A8
:1019F0000C4801600C490B608B600C4B1A6000F0C6
:101A00006BFF4FF4C870FFF7ADFFBDE8104000F06A
:101A1000D7BB00BF08E100E0048003400C80034016
:101A20000080034008800B400C800B4000800B407E
:101A3000F0B50C4B0C4C1A7842F0020504EBC506CD
:101A400082F00102706009481A700678002E0CBFFF
:101A50008827C82786F0010647EA0141067044F846
:101A60003510F0BDD890FF1F0080FF1F5091FF1F61
:101A7000431E032B10B510D872B6094A52F8230042
:101A800048B1416842F82310064A018832F81340F1
:101A9000611A22F8131062B610BD002010BD00BFFD
:101AA000C890FF1FE493FF1F013803280AD872B6BD
:101AB000054B53F82030002013B101305B68FBE781
:101AC00062B67047002070471C91FF1F10B572B6B8
:101AD0000123174A1A4412F8012C12071CD5990049
:101AE000144A52F831402CB902EB431308305860C5
:101AF000114B09E041F0010152F8314064B902EBA9
:101B0000C103083058600D4B42F831300C4B1A7845
:101B1000013A1A7062B610BD0133052BD9D162B6F5
:101B2000074B00221A70BDE8104000F0C7BB00BF91
:101B3000485A00000080FF1F88004000C800400095
:101B40004691FF1F431E032B30B532D8194A40017E
:101B500040F01000104472B6174CE25C032A09D81A
:101B6000DFE802F0160218050830022213E0083000
:101B7000042210E01148124A50F8234014B940F8EA
:101B8000231002E052F82300416042F823100FE0D6
:101B9000032200E00522E25410F0080F01F10803CF
:101BA0000A8843600CBF8823C82343EA02430360CA
:101BB00062B630BD0080FF1F8490FF1F1C91FF1F85
:101BC0002C91FF1F2DE9F84FAB4F3C78E4B214F095
:101BD000040F3D4619D0A94B1B78A3B1A84A117830
:101BE00001F0FF0321B1013BDBB2137003B900BE6A
:101BF000A44A117801F0FF0329B1013BDBB2137055
:101C00000BB900F087FC04233B7004F0080303F0D9
:101C1000FF02002B00F067829B4B9C4C1A78D2B2DB
:101C200015094FEA920840F0E48104EBC8035968B3
:101C300054F83830C3F38303013B0C2B00F2D681F8
:101C4000DFE813F095019501D401D401D401D4014A
:101C5000D401D401B001D401D401D4010D008C4DC4
:101C60000A684B688B486B6001218B4B44F8383015
:101C70002A60DFF85082017092B240F28160002346
:101C80008242C8F800302361A36117D8B2F5D06F43
:101C900080F01E81B2F5817F00F0CF8006D8802AC7
:101CA00000F0BA80822A00F0BB8031E140F20233BA
:101CB0009A4200F0D180B2F5A06F1CE042F2210000
:101CC000824200F051810ED8B2F5086F00F09E807C
:101CD000B2F5106F40F01C81684B6C4EAA781A70F8
:101CE00006F180090AE042F221218A4200F00881CF
:101CF00042F221339A4200F00F8109E1336A1B0658
:101D000003D5706A083800F0D9FA08364E45F5D187
:101D10000026B146DFF8B0A156F80A0028B1D0F885
:101D200004B000F0CBFA5846F8E74AF806005B4BDF
:101D3000DFF898A1F05056F80A0028B1D0F804B0A6
:101D400000F0BCFA5846F8E7554B4AF80600F05048
:101D5000544B23F81900544B19F80320023A032A74
:101D600008D8DFE802F002040204002200E00122A9
:101D700003F8092009F10109B9F1040F06F104067D
:101D8000C8D14A4B00221A7001269A46484A494B4C
:101D90003244334412F8012C9B0012F0080F1A70E1
:101DA0004FEA860925D000F06BFA38B104EB4613F0
:101DB00008305860404B44F8393006E09AF800305B
:101DC00044F8390001338AF8003000F059FA49F03C
:101DD000010338B104EBC302083050602E4A44F8C6
:101DE000332006E044F833009AF8003001338AF8D3
:101DF000003049F00202013649F003090023052EA4
:101E000044F8323044F83930C0D186E01B4B2B4CBB
:101E10001B7823700B4683E0284C237063707EE0B0
:101E2000AA88042A74D8254C920023706370244B2E
:101E30009B5C9E0773D5217071E0AA8802F07F0237
:101E4000042A65DC6B88002B62D191001C4A0A448D
:101E5000117821F0020159E0AA8802F07F02042AD9
:101E600056DC6B88002B53D19100154A0A44117837
:101E700041F002014AE000BF802007404F91FF1F60
:101E8000D990FF1F6491FF1F902007400080FF1F23
:101E90003C91FF1F5091FF1FC80040007490FF1F2E
:101EA0002C91FF1FE493FF1F8490FF1F4691FF1F9B
:101EB000485A000030C80110880040004791FF1FB9
:101EC000C02007407090FF1FC890FF1F1C91FF1F8C
:101ED0006A88A9889F4B53F8084CA3F10C00BCB149
:101EE00033F80C6C964209D133F80A6C8E4205D156
:101EF000120A032A0CBF2378038911E00C33EAE7A6
:101F0000954A1168954A1160A978954A117004E0C4
:101F1000944B0F221A7027E000231C4600E0022396
:101F2000EE88B34238BF1E46402E34BF35464025AA
:101F300020462946FFF77CFD761B2C4403D1402D1B
:101F400012D1354603E0402E34BF354640252046A9
:101F50002946FFF76DFD761B2C4401D1402D03D19E
:101F6000814AC8F8004016800122804B3DE0804B3A
:101F70001A8842F221039A4210D100237D4AC85C9C
:101F800098540133072BF9D11368862B02D17A4B71
:101F90000F221A7000200146FFF74AFD774B44F8E4
:101FA000383023E0764E3568B5B1DFF8BC81B8F83B
:101FB0000090B9F1400F34BF4C46402428462146DA
:101FC000FFF736FDC4EB09039BB2A8F800300BB94C
:101FD000402C00D12B193360654B1A88B2F5A06FE5
:101FE00004D100225A709A78664B1A7001225F4B16
:101FF0006CE004EBC806013D736802F00802A3F12F
:102000000800EDB202F0FF01002A36D000F056F9C8
:102010005D485E4B50F82520EAB1516840F8251024
:1020200002F108017160595D03290BD8DFE801F066
:1020300002040608032104E0022102E0052100E079
:102040000421595516F0080F12880CBF8823C823A5
:1020500043EA024342E05A5D032A07D8DFE802F070
:1020600040400204002206E0012204E016F0080FBE
:102070000CBF022203225A5532E054F83820120CC9
:1020800023F8082C22B3DFF834E123F8061C43F8C8
:10209000041C5EF825303E4913B94EF8250002E0D5
:1020A00051F8253058603B4B41F8250033F81510A6
:1020B0000A4423F8152000F0E3F810B108307060EE
:1020C00006E0354B44F838001A7801321A7007E000
:1020D0002A4B324A16F0080F08BF134644F838302E
:1020E00008233B7070E5E0071FD520492B482C4C96
:1020F00002230B702B4B1A702B4B186098602B48E7
:10210000D8601A619A615C60164B0D2018702848DF
:10211000FF2303702B700274264A1370264B9F22F4
:102120001A7001230B70BDE8F88F210604D50D4B02
:102130000D221A7080232B70A20705D51C4B1A782C
:10214000D2B21A7002232B70E30644BF10232B7007
:10215000BDE8F88F585A00006C90FF1FF493FF1FE2
:102160007491FF1FC02007404491FF1F9420074037
:102170003C91FF1FEC93FF1FD990FF1FC800400048
:102180007090FF1F982007401C91FF1F8490FF1F35
:102190007490FF1FE493FF1F4691FF1F88004000CB
:1021A0008890FF1FD890FF1F0080FF1FDC90FF1F4B
:1021B000882007408C20074084200740C890FF1FDC
:1021C00008B501F0E7FC00221A4B0021D150981805
:1021D0000832882A4160F7D1174A106840F48020FD
:1021E000106002F528326832C3F307201070C3F381
:1021F00007401B0E10751376FF2302F81C3C02F8F3
:10220000143C02F88C3C012302F8083C82F864106C
:1022100002F8183C094B70226FF450711A700B448D
:102220004FF400721A6003F1C04303F5C823102273
:102230001A7008BD0080FF1F3480044049E400E0AC
:1022400000F0A0B800F05CB800F080B800F034B93D
:1022500000F0A6B8084600F023B90846114600F081
:10226000B7B87047044B00221A714FF47A711A7391
:10227000024A99601A6070475491FF1F0859000084
:1022800072B60C4A1168B1FA81F30B2B02D962B60F
:10229000002070474FF00040D84021EA0001116053
:1022A00062B6054948225343C8180022CA5042600A
:1022B000704700BF7489FF1F0086FF1F0C4B482228
:1022C000C31AB3FBF2F30B2B11D80A4A127822B1CE
:1022D000094A12780AB1FFF7F9BB72B6074A4FF004
:1022E000004121FA03F311681943116062B6704787
:1022F0000086FF1F4691FF1F4F91FF1F7489FF1F2C
:1023000010B5104C23686BB120684288531C0244FE
:10231000147A0288934212D3FFF7D0FF094B0022B0
:102320001A600DE0084B1B7813B94FF0FF3010BD59
:102330000320FFF79DFB20600028E5D1F5E74380EF
:10234000204610BD7091FF1F4F91FF1F10B50B4C21
:10235000236813B123686BB902E0094B1B7813B9EA
:102360004FF0FF3010BD0320FFF782FB20600028F4
:10237000F0D1F5E75A881344187A10BD7091FF1F09
:102380004F91FF1F044B9888044B1B681BB11A88A0
:102390005B88D31A18447047E493FF1F7091FF1FA6
:1023A00010B5094B1B786BB1084C206818B1FFF7CA
:1023B00085FF002323600320FFF75AFB10B1FFF7CE
:1023C0007DFFF8E710BD00BF4F91FF1F7091FF1F09
:1023D0002DE9F8432D4E012307460C463370002C9F
:1023E0004FD02B4D2B68A9462BBB48F60148294BF3
:1023F0001B7803F0FF020BB9327015E00420FFF7E1
:1024000053FB072808D801233370FFF739FFC9F8B9
:10241000000080B91D4B1870B8F101081E4B01D0A7
:102420001A782AB101221A704FF0FF30BDE8F88304
:1024300000F094F8DBE72968174A488800231370F6
:10244000C0F14002944238BF224600F1080C10440B
:102450008C444880A41A934204D0F85C0CF8030022
:102460000133F8E71F444B883F2B06D940230B80EC
:102470000420FFF767FB00232B60084B05221A702E
:10248000ADE734702046BDE8F88300BF6591FF1FBB
:102490006891FF1F4F91FF1F6C91FF1F6491FF1FF9
:1024A00007B502AB012103F8010D1846FFF790FFB5
:1024B00003B05DF804FBFFFF2DE9F041114B1B78E1
:1024C000F3B1114E114B3468114D01271F7098461E
:1024D0004CB1002763882F70042023802146FFF72A
:1024E00031FB376009E0FFF7CBFE014620B1042045
:1024F0002C70FFF727FB00E02F70002388F80030D6
:10250000BDE8F0814F91FF1F6891FF1F6591FF1F8C
:102510006491FF1F38B50E4B1B7803F0FF05ABB974
:102520000C4C216831B14B880B800420FFF70AFB6B
:10253000256038BDFFF7A4FE014620B10420BDE8A8
:102540003840FFF7FFBA044B01221A7038BD00BFB4
:102550006591FF1F6891FF1F6491FF1F10B50E4C1E
:102560002378BBB901232370FFF70CFF08B1FFF7F5
:1025700078FE00F053FC08B100F08AF800F0ACFFE0
:1025800008B100F00FF901F039FA08B100F094F940
:102590000023237010BD00BF7591FF1F08B50368AD
:1025A000C9B21B68984708BD08B50368C9B21B6863
:1025B000984708BD08B50368C9B21B68984708BDAD
:1025C00008B50368C9B21B68984708BD034800EB0B
:1025D0005100B0FBF1F000F0DBB900BF00449508FA
:1025E00010B5064800EB51001446B0FBF1F000F0C6
:1025F000CFF92046BDE8104000F02EBA00449508FF
:1026000000F054BA084600F085BA084600F0D4BA83
:102610000846114600F09ABA08B5084600F0F2FAEA
:10262000003018BF012008BD08B5084600F00CFBBB
:10263000003018BF012008BD00F0F0BB00F028BC3E
:1026400000F0FCBB00F0CEBB00F03ABC00F0D4BB05
:1026500008B5084600F01EFB012008BD08B5084675
:1026600000F018FB012008BD10B5084614461146BD
:1026700000F05AFB204610BD38B508460D4602F062
:1026800093FF04462146284600F04EFB204638BD05
:102690007047FFFF044B00221A714FF47A711A73CE
:1026A000024A99601A6070477891FF1F3059000004
:1026B00008B50368C9B21B68984708BD08B5036828
:1026C000C9B21B68984708BD08B50368C9B21B6842
:1026D000984708BD08B50368C9B21B68984708BD8C
:1026E000034800EB5100B0FBF1F000F091BC00BFDB
:1026F0000044950810B5064800EB51001446B0FBA5
:10270000F1F000F085FC2046BDE8104000F0E4BC8C
:102710000044950800F00ABD084600F05FBD084679
:1027200000F0AEBD0846114600F074BD08B508467D
:1027300000F0CEFD003018BF012008BD08B50846E6
:1027400000F0E8FD003018BF012008BD00F0C4BE55
:1027500000F0FCBE00F0D0BE00F0A2BE00F00EBF44
:1027600000F0A8BE08B5084600F0F2FD012008BD43
:1027700008B5084600F0ECFD012008BD10B508467C
:102780001446114600F02EFE204610BD38B508460E
:102790000D4602F009FF04462146284600F022FEBD
:1027A000204638BD7047FFFF044B00221A714FF4DA
:1027B0007A711A73024A99601A6070478891FF1FF4
:1027C0009059000008B50368C9B21B68984708BD56
:1027D00008B50368C9B21B68984708BD08B5036807
:1027E000C9B21B68984708BD08B50368C9B21B6821
:1027F000984708BD034800EB5100B0FBF1F000F032
:1028000065BF00BF00A24A0410B5064800EB5100A6
:102810001446B0FBF1F000F059FF2046BDE810402F
:1028200000F096BF00A24A0400F0BCBF084600F0CA
:10283000EDBF084601F02EB80846114601F002B877
:1028400008B5084601F028F8003018BF012008BD7F
:1028500008B5084601F042F8003018BF012008BD55
:1028600001F0CCB801F004B901F0D8B801F0AAB871
:1028700001F016B901F0B0B808B5084601F04CF8FF
:10288000012008BD08B5084601F046F8012008BD42
:1028900010B508461446114601F088F8204610BDD0
:1028A00038B508460D4602F07FFE0446214628460C
:1028B00001F07CF8204638BD7047FFFF044B002232
:1028C0001A714FF47A711A73024A99601A6070474C
:1028D0009891FF1FF059000010B5204B2048214966
:1028E00060221A70E1225A701F4B204A1C78204B3C
:1028F000082C01D1012402E00A2C03D11924046020
:10290000132005E00C2C0CBF15243D24046012207C
:10291000086014601860174B17491B78174A03B1F9
:1029200001230B601360164B164A1978164B0129C8
:1029300001D880210BE0042901D8842107E008296F
:1029400001D8852103E0102994BF862187211160D9
:1029500019600E4B01221A7010BD00BF00400740E5
:1029600008B003400CB003407889FF1F08B00B404B
:102970000CB00B40A991FF1F20B0034020B00B40CA
:102980007989FF1F24B0034024B00B40A891FF1F9A
:10299000234B1A6842F480621A60224A00231370A3
:1029A000214A1370214A1370214A1370214A13706F
:1029B000214B1B782BB1152B07D140F213321F4B43
:1029C00002E01F4B40F213321A601E4B1B78012BA2
:1029D00005D0052B07D14FF451721B4B02E01B4B66
:1029E0004FF451721A601A4BC0F344321A70C0F39C
:1029F00047125A700221042200F01F0098729A7048
:102A0000D9745A7588221A743C22DA70114B40220C
:102A10006FF44A711A700B444FF400521A607047F9
:102A2000348004403392FF1FB191FF1F3C92FF1F7F
:102A30003492FF1FB091FF1FF291FF1F18C0044096
:102A400040A004407A89FF1F1CC0044044A00440F9
:102A500000A006402DE400E0134A937800F0030143
:102A600003F0EC030B43410748BF43F0100393709E
:102A700000F00F03042B0C4903D18B7943F0400382
:102A80008B715379C20603F0EF03074A48BF43F046
:102A9000100353719379810603F0EF0348BF43F0AD
:102AA00010039371704700BF00A0064008B5114B9A
:102AB0001B685B0500D408BD0F4B1A7802F0FF03BA
:102AC00012B1FFF74BFDF7E70C4A4FF400511160CC
:102AD0000B4A0C49D37040F203120A604A600A4A5A
:102AE00013700A4A13700A4B1B680BB101221A704B
:102AF00008BD00BF34800440B091FF1F84E100E0B6
:102B000000A0064040A004403392FF1FB191FF1F78
:102B1000AC91FF1F38B50446094B1B7803F0FF0545
:102B2000002BF9D120460121FEF7BEFE20462946A2
:102B3000FEF79AFE034B53F83420034B1A6038BD5E
:102B4000B091FF1FF05700003892FF1F10B509B178
:102B500040F08000144A13789842144622D0134A59
:102B6000126852051DD503F07F03012B04D0052BFD
:102B700005D100220E4B01E00E4B00221A60002905
:102B800000F07F020CBF44236023012A05D0052AF0
:102B900007D143F44073064A02E0064A43F4407307
:102BA0001360207010BD00BF7A89FF1F348004407D
:102BB0001CC0044044A004400E4A1378984218D028
:102BC0000D490968490513D52BB1152B05D10B4BC0
:102BD0000021196001E00A490B6028B1152807D1CE
:102BE00040F21331054B02E0054B40F213311960FE
:102BF00010707047F291FF1F3480044018C00440E9
:102C000040A004400D4A38B5146814F480624FF0B7
:102C1000000410D021280A4D0AD80A4A012152F88E
:102C200030302B60FEF740FE2B681C70012038BD51
:102C30002C60204638BD104638BD00BF34800440AB
:102C4000AC91FF1FF05700000E4B1B6813F480631C
:102C500016D012280C4B03D140F202310B4A04E08B
:102C6000142809D10A4A40F2023111605A7B42F01D
:102C700001025A73012070475A7B02F0FE025A7318
:102C8000002070473480044000A006400CA004409F
:102C900014C00440F8B51D4B1B685A05064633D5D1
:102CA0001B4B1B680BB101221A701A4B1C780134A4
:102CB000402C1F4628BF0024174D2B78A34218D163
:102CC000FEF776FD40280FDC144A13791B06F3D576
:102CD0002B7813490133402B28BF0023C95CDBB29A
:102CE000C9B2D1712B70E7E7FF28E5DDFFF736FCAD
:102CF000E2E70B4BF6B21E550A4B01221A70074B46
:102D0000E4B2BC223C70DA70F8BD00BF34800440ED
:102D10003892FF1F3C92FF1F3492FF1F00A0064015
:102D2000B291FF1FB091FF1F274B1B685A052DE979
:102D3000F04707468A4644D5244B1B680BB1012255
:102D40001A703D4607EB0A039D4237D2DFF89080A8
:102D50001F4E98F8004096F800900134402C28BF90
:102D600000245FFA89F9A1451DD11A4BBC22DA7003
:102D7000FEF71EFD40280FDC164A13791B060FD5FF
:102D8000337815490133402B28BF0023C95CDBB2DF
:102D9000C9B2D171337003E0FF2801DDFFF7DEFB1C
:102DA00033784B45E4D00C4B15F8012B1A550B4BDF
:102DB0000122E4B21A7088F80040C3E7054BBC2238
:102DC000DA70BDE8F08700BF348004403892FF1FFE
:102DD0003492FF1F00A00640B291FF1FB091FF1F69
:102DE0003C92FF1F08B5034B1B7813B1FFF7B6FBEE
:102DF000F9E708BDB091FF1F064A074B1B78107812
:102E0000DBB2C0B283422CBF3F3000F1FF30C01AAA
:102E1000704700BF3492FF1F3C92FF1F054B18788C
:102E2000054B1B78C0B2DBB2984238BF4030C01AA5
:102E3000704700BF3392FF1FB191FF1F10B5104BB9
:102E400010491A780B78D2B2DBB29A4214D001330F
:102E5000402B28BF00230C48DCB2C05C0C700B492F
:102E60000968C0B251B19A4238BF4032D31A1A2B06
:102E700004DC00230B7010BD4FF0FF3010BD00BF0D
:102E80003392FF1FB191FF1FF391FF1FAC91FF1F02
:102E9000084B1A78084B1B78DBB29A4207D00133F3
:102EA000402B28BF0023054AD05CC0B270474FF0CA
:102EB000FF3070473392FF1FB191FF1FF391FF1F47
:102EC0000C4B1B685B0514D50B4BDA7802F0CB0278
:102ED000DA7040225A74DA7842F03402DA70074B22
:102EE0001A78074BD2B21A70064B1B680BB100223E
:102EF0001A7070473480044000A00640B191FF1F53
:102F00003392FF1FAC91FF1F30B5374B1A7912F087
:102F1000300F31D072B69A7D02F0FF0022B9DA7913
:102F200040225A7462B627E062B6304A30491378BC
:102F30000978DBB2C9B214462B4AD5795A1C402A0B
:102F400028BF00228A42EDB202D02A4B9D5413467C
:102F5000421E12F0FF00EFD1DAB22270264A126848
:102F600052B18B4236BFC1F14001C1EB03035B1884
:102F7000272BC4BF012313701B4BD978C9B20C0691
:102F800020D51B7918061DD51C4B1D4A1D781378BA
:102F9000EDB2DBB21046AB420CD0134A0133402BEA
:102FA0001479184C28BF0023E45CE4B2D471127D7C
:102FB000072AF0D9DBB203700B4B1A79120644BF13
:102FC0007C22DA704B060ED5074B1A7912F0400FAF
:102FD000194608D00C4B00221A700C4B1B6803B129
:102FE0001A703C23CB7030BD00A006403392FF1F07
:102FF000B191FF1FF391FF1FAC91FF1F3C92FF1F88
:103000003492FF1FB291FF1FB091FF1F3892FF1F34
:10301000234B1A6842F400621A60224A002313709C
:10302000214A1370214A1370214A1370214A1370E8
:10303000214B1B78092B05D01A2B07D140F21332F4
:103040001E4B02E01E4B40F213321A601D4B1B78E0
:103050000A2B05D01F2B07D14FF451721A4B02E0F7
:103060001A4B4FF451721A60194BC0F344321A7064
:10307000C0F347125A7000F01F0004220221987218
:103080009A70D9745A7588221A743C22DA70114BDE
:1030900040221A70A3F22B334FF400421A6070479B
:1030A00034800440AE92FF1F4592FF1FB492FF1F71
:1030B000AF92FF1F4492FF1F7B89FF1F04D0044083
:1030C0000CB004407C89FF1F00D0044010B00440C5
:1030D00000B006402FE400E0134A937800F00301AB
:1030E00003F0EC030B43410748BF43F01003937018
:1030F00000F00F03042B0C4903D18B7943F04003FC
:103100008B715379C20603F0EF03074A48BF43F0BF
:10311000100353719379810603F0EF0348BF43F026
:1031200010039371704700BF00B0064008B51E4BF6
:103130001B681B0500D408BD1C4B1B7803F0FF0265
:1031400013B1FFF70BFAF7E7194B4FF40041196081
:10315000184BDA70184B1B78092B05D01A2B07D1A6
:1031600040F20312154B02E0154B40F203121A60B5
:10317000144B1B7803F07F030A2B05D01F2B07D1BC
:1031800040F20312104B02E0104B40F203121A609F
:103190000F4A002313700F4A13700F4B1B680BB1BB
:1031A00001221A7008BD00BF348004404492FF1F02
:1031B00084E100E000B006407B89FF1F04D004409A
:1031C0000CB004407C89FF1F00D0044010B00440C4
:1031D000AE92FF1F4592FF1F4092FF1F38B5044675
:1031E000094B1B7803F0FF05002BF9D12046012184
:1031F000FEF75AFB20462946FEF736FB034B53F8F1
:103200003420034B1A6038BD4492FF1FF057000072
:10321000B092FF1F10B509B140F08000144A137836
:103220009842144622D0134A126812051DD503F0A5
:103230007F030A2B04D01F2B05D100220E4B01E087
:103240000E4B00221A60002900F07F020CBF4423BD
:1032500060230A2A05D01F2A07D143F44073064A87
:1032600002E0064A43F440731360207010BD00BFB3
:103270007C89FF1F3480044000D0044010B004401B
:103280000F4A137898421AD00E490968090515D5D6
:10329000092B04D01A2B05D100210B4B01E00B4B5D
:1032A00000211960092805D01A2807D140F21331EE
:1032B000054B02E0054B40F2133119601070704766
:1032C0007B89FF1F3480044004D004400CB00440CC
:1032D0000D4A38B5146814F400624FF0000410D0A1
:1032E00021280A4D0AD80A4A012152F830302B60B1
:1032F000FEF7DAFA2B681C70012038BD2C602046DE
:1033000038BD104638BD00BF348004404092FF1FD6
:10331000F05700000B4B1B6813F4006310D0172804
:10332000094B09D1094A40F2023111605A7B42F03F
:1033300001025A73012070475A7B02F0FE025A7351
:10334000002070473480044000B0064008B00440BC
:10335000F8B51D4B1B681A05064633D51B4B1B6879
:103360000BB101221A701A4B1C780134282C1F460D
:1033700028BF0024174D2B78A34218D1FEF718FA66
:1033800040280FDC144A13791B06F3D52B78134918
:103390000133282B28BF0023C95CDBB2C9B2D1712D
:1033A0002B70E7E7FF28E5DDFFF7D8F8E2E70B4BE6
:1033B000F6B21E550A4B01221A70074BE4B2BC222A
:1033C0003C70DA70F8BD00BF34800440B092FF1F3B
:1033D000B492FF1FAF92FF1F00B006404692FF1F3E
:1033E0004492FF1F274B1B681A052DE9F04707463B
:1033F0008A4644D5244B1B680BB101221A703D4606
:1034000007EB0A039D4237D2DFF890801F4E98F8F1
:10341000004096F800900134282C28BF00245FFA61
:1034200089F9A1451DD11A4BBC22DA70FEF7C0F90B
:1034300040280FDC164A13791B060FD5337815493F
:103440000133282B28BF0023C95CDBB2C9B2D1717C
:10345000337003E0FF2801DDFFF780F833784B4538
:10346000E4D00C4B15F8012B1A550B4B0122E4B29A
:103470001A7088F80040C3E7054BBC22DA70BDE83B
:10348000F08700BF34800440B092FF1FAF92FF1F4F
:1034900000B006404692FF1F4492FF1FB492FF1FE8
:1034A00008B5034B1B7813B1FFF758F8F9E708BDCF
:1034B0004492FF1F064A074B1B781078DBB2C0B25C
:1034C00083422CBF273000F1FF30C01A704700BF85
:1034D000AF92FF1FB492FF1F054B1878054B1B7866
:1034E000C0B2DBB2984238BF4030C01A704700BF4C
:1034F000AE92FF1F4592FF1F10B5104B10491A786E
:103500000B78D2B2DBB29A4214D00133402B28BFE1
:1035100000230C48DCB2C05C0C700B490968C0B2D7
:1035200051B19A4238BF4032D31A1A2B04DC00231F
:103530000B7010BD4FF0FF3010BD00BFAE92FF1FEB
:103540004592FF1F6E92FF1F4092FF1F084B1A7893
:10355000084B1B78DBB29A4207D00133402B28BFBF
:103560000023054AD05CC0B270474FF0FF3070476F
:10357000AE92FF1F4592FF1F6E92FF1F0C4B1B6800
:103580001B0514D50B4BDA7802F0CB02DA7040221F
:103590005A74DA7842F03402DA70074B1A78074B23
:1035A000D2B21A70064B1B680BB100221A7070471A
:1035B0003480044000B006404592FF1FAE92FF1FCA
:1035C0004092FF1F30B5374B1A7912F0300F31D0CF
:1035D00072B69A7D02F0FF0022B9DA7940225A745D
:1035E00062B627E062B6304A304913780978DBB218
:1035F000C9B214462B4AD5795A1C402A28BF00224A
:103600008A42EDB202D02A4B9D541346421E12F05C
:10361000FF00EFD1DAB22270264A126852B18B4213
:1036200036BFC1F14001C1EB03035B18272BC4BFB8
:10363000012313701B4BD978C9B20C0620D51B7916
:1036400018061DD51C4B1D4A1D781378EDB2DBB250
:103650001046AB420CD0134A0133282B1479184C76
:1036600028BF0023E45CE4B2D471127D072AF0D9AC
:10367000DBB203700B4B1A79120644BF7C22DA705E
:103680004B060ED5074B1A7912F0400F194608D099
:103690000C4B00221A700C4B1B6803B11A703C23B0
:1036A000CB7030BD00B00640AE92FF1F4592FF1FA9
:1036B0006E92FF1F4092FF1FB492FF1FAF92FF1F39
:1036C0004692FF1F4492FF1FB092FF1F174B1A68CC
:1036D00042F480521A60164A00231370154A137080
:1036E000154A1370154A1370154A1370154A40F2A3
:1036F000133111604FF451715160134AC0F34431DA
:103700001170C0F3471100F01F0051709072937058
:1037100013742C23D3700D4B40226FF44B711A702D
:103720000B444FF400321A60704700BF34800440ED
:103730002693FF1FBD92FF1F2C93FF1F2793FF1F90
:10374000BC92FF1F08C0044000C0064031E400E006
:10375000134A937800F0030103F0EC030B43410795
:1037600048BF43F01003937000F00F03042B0C4983
:1037700003D18B7943F040038B715379C20603F078
:10378000EF03074A48BF43F0100353719379810652
:1037900003F0EF0348BF43F010039371704700BF7D
:1037A00000C0064008B5114B1B68DB0400D408BDFF
:1037B0000F4B1A7802F0FF0312B1FEF7CFFEF7E7C6
:1037C0000C4A4FF4003111600B4A0C49D37040F29F
:1037D00003120A604A600A4A13700A4A13700A4BBD
:1037E0001B680BB101221A7008BD00BF3480044071
:1037F000BC92FF1F84E100E000C0064008C0044006
:103800002693FF1FBD92FF1FB892FF1F38B50446D5
:10381000094B1B7803F0FF05002BF9D1204601214D
:10382000FEF742F820462946FEF71EF8034B53F8F0
:103830003420034B1A6038BDBC92FF1FF0570000C4
:103840002893FF1F10B509B140F080000E4A13788D
:10385000984217D00D4C2468E40412D503F07F037E
:10386000082B02D10A4B00241C60002900F07F03C2
:103870000CBF44216021082B03D1054B41F440715A
:103880001960107010BD00BF7D89FF1F3480044097
:103890000CC004407047FFFF0D4A38B5146814F49B
:1038A00080524FF0000410D021280A4D0AD80A4A4D
:1038B000012152F830302B60FDF7F6FF2B681C70A9
:1038C000012038BD2C60204638BD104638BD00BFF1
:1038D00034800440B892FF1FF05700000B4B1B6868
:1038E00013F4805310D00E28094B09D1094A40F235
:1038F000023111605A7B42F001025A730120704775
:103900005A7B02F0FE025A73002070473480044054
:1039100000C0064004C00440F8B51D4B1B68DA0423
:10392000064633D51B4B1B680BB101221A701A4B8C
:103930001C780134282C1F4628BF0024174D2B78F3
:10394000A34218D1FDF734FF40280FDC144A137945
:103950001B06F3D52B7813490133282B28BF0023EE
:10396000C95CDBB2C9B2D1712B70E7E7FF28E5DD96
:10397000FEF7F4FDE2E70B4BF6B21E550A4B0122AF
:103980001A70074BE4B2AC223C70DA70F8BD00BF8D
:10399000348004402893FF1F2C93FF1F2793FF1FA1
:1039A00000C00640BE92FF1FBC92FF1F38B5044600
:1039B0004518AC4204D014F8010BFFF7ADFFF8E74F
:1039C00038BDFFFF08B5034B1B7813B1FEF7C6FDEA
:1039D000F9E708BDBC92FF1F064A074B1B78107819
:1039E000DBB2C0B283422CBF273000F1FF30C01AD7
:1039F000704700BF2793FF1F2C93FF1F054B1878BC
:103A0000054B1B78C0B2DBB2984238BF4030C01AB9
:103A1000704700BF2693FF1FBD92FF1F10B5104BCC
:103A200010491A780B78D2B2DBB29A4214D0013323
:103A3000402B28BF00230C48DCB2C05C0C700B4943
:103A40000968C0B251B19A4238BF4032D31A1A2B1A
:103A500004DC00230B7010BD4FF0FF3010BD00BF21
:103A60002693FF1FBD92FF1FE692FF1FB892FF1F14
:103A7000084B1A78084B1B78DBB29A4207D0013307
:103A8000402B28BF0023054AD05CC0B270474FF0DE
:103A9000FF3070472693FF1FBD92FF1FE692FF1F66
:103AA000054B1A78054BD2B21A70054B1B680BB147
:103AB00000221A70704700BFBD92FF1F2693FF1FA0
:103AC000B892FF1F10B5294B1A79920620D5284AC3
:103AD000D879137827490133402B097828BF002370
:103AE0008B42C0B203D02449C854D9B21170234AC2
:103AF000116869B1224A1278D2B2934236BFC2F13C
:103B00004002C2EB03039B18272BC4BF01230B7099
:103B1000164AD178C9B20C0616D51379180613D5F2
:103B2000184B17481C780378DBB29C4202D16C23F7
:103B3000D37009E00133282B28BF0023124CE45C2A
:103B4000DBB2E4B2D47103704B060ED5074B1A7981
:103B500012F0400F194608D00C4B00221A700C4B83
:103B60001B6803B11A702C23CB7010BD00C0064037
:103B70002693FF1FBD92FF1FE692FF1FB892FF1F03
:103B80002793FF1F2C93FF1FBE92FF1FBC92FF1FA6
:103B90002893FF1F1FB572B6154B70221A70154A75
:103BA000412111700F2102F8011C80221A701A782D
:103BB0001206FCD5104B186862B6104B984298BF9D
:103BC0000A2301AC98BF584321460A22FDF716FE8E
:103BD0000023E15C0A4A29B102EB430001330A2BBE
:103BE0004180F6D101335B00137004B010BD00BFFB
:103BF0000000024007000240080002407F96980043
:103C0000068AFF1F08B5024B1B68984708BD00BF16
:103C10004C93FF1F30B51A491A4B0A791A701A488B
:103C20001A4B0C681A780378E48A13FA84F33F2B52
:103C3000D2B288BF403B9A420446154812D0934204
:103C40004FF0010588BF40320570D01A72B60A687D
:103C50000979D58A80B2D082D58BD0830D4A117074
:103C600062B605E0002202700B4A4FF480411160F9
:103C70000A4A12680AB100211170DBB2237030BD0C
:103C80004093FF1F1F8000406093FF1F3E93FF1F64
:103C90005493FF1F1B80004004E200E05093FF1F7D
:103CA00008B5024B1B68984708BD00BF4893FF1F2B
:103CB00010B5044601F06AFB204610BD10B5184B44
:103CC0001A79184B1A70184A1378013303F03F031E
:103CD000D9B21170154A1168154A1468621C154A48
:103CE0000FD015480078C0B2834236BFC0F1400003
:103CF000C0EB0300C01880B2A04208DA4C1C02D10D
:103D000009E0481C03D00D48C35C8B4203D10C4B27
:103D10004FF400511960136801221A6010BD00BFF2
:103D20005893FF1F1F8000405693FF1F3893FF1FBB
:103D30003093FF1F3493FF1F5593FF1F0084FF1F15
:103D400004E200E02DE9F84F834B01221A60834B17
:103D500040F213341C604FF451745C60804BC1F32B
:103D600044341C70C1F3471401F01F015C70997258
:103D7000002199700221D9745A7588221A74AC22D4
:103D8000DA70A022DA72427B1AB19A7842F080028D
:103D90009A70744FDFF804B23B68DFF804A21A6926
:103DA000C3F810B01A683979C3F800A04026DA8B3E
:103DB000DE83DA8ADFF8EC816B48DE8201F11002E3
:103DC000002401254FF030091C755C759C711C7630
:103DD0005C769C76DC761D715C711D725C729C72E7
:103DE000DC721C735C739C73DC7383F8079048F877
:103DF00022004A11920002F1604202F5614201F094
:103E00001F0105FA01F111609A8B998B92B242F071
:103E100002029A839A8B998B544992B242F008021B
:103E20009A833B7903F1804303F5043383221C70AA
:103E30002E201A70FDF700FD4D4B4E48C0221A701F
:103E40004FF4804303603B7903F1604303F564431F
:103E50001E703B7903F1604303F564431A78464BC7
:103E60001A80464A13681968C3F800B0AAF13F01E6
:103E70001F691961D98BDE831C715C71DC711C7345
:103E80005C739C73DC731D755C751D725C729C7237
:103E9000DC721C765C769C76DC76D98A83F8069098
:103EA000DE821679364F06F1100148F82170711143
:103EB000890001F1604101F5614106F01F06B5403E
:103EC0000D60998B9D8B89B241F002019983137922
:103ED00003F1804303F5043305461C703623144672
:103EE000284A1178994233D0274901328A42F8D1C1
:103EF000227902F1804202F5043263F07F03DBB2E3
:103F000013702379214903F1804303F50433002220
:103F10001A7082221A702D20FDF78EFC1C4BC022D5
:103F20001A704FF400532B60237903F1604303F5BB
:103F3000644340221A702368164A03F11601116087
:103F40000122C3F81620144B22791A70BDE8F88FAD
:103F50000133402BC4D1D4E7A806904240A00440CE
:103F600000A006404093FF1F153C0000053C0000E8
:103F70002EE400E004E100E03C93FF1F5893FF1F94
:103F8000BD3C00000010024010100240A13C0000A7
:103F90002DE400E03493FF1F1B80004007A0064083
:103FA0004084FF1F0082FF1F134A937801F0030033
:103FB00003F0EC030343480748BF43F0100393703A
:103FC00001F00F03042B0C4803D1837943F0400325
:103FD00083715379084A03F0EF03C80648BF43F0E2
:103FE000100353719379890603F0EF0348BF43F040
:103FF00010039371704700BF00A00640134B1B686D
:10400000990710B504461FD5114B1B689A071BD59D
:10401000104B1B685B0517D50F492D20FDF70CFCD5
:10402000236820465B6998471420FDF79BFC0B4AE8
:104030000B48002340F20311D37001604160D3723A
:10404000084A1370084A137010BD00BF4080044036
:104050003C80044034800440092F000000A006404A
:1040600040A004406093FF1F3E93FF1F38B50C46ED
:104070000A4B1B7803F0FF0513B1FEF76FFAF7E761
:1040800020460121FDF710FC20462946FDF7ECFBF8
:10409000034B53F83420034B1A6038BD5493FF1F71
:1040A000F05700005093FF1F08B5FEF757FA064B74
:1040B0001A78064B1B789A42F7D1054B1B7813B13F
:1040C000FEF74CFAF9E708BD3E93FF1F6093FF1F10
:1040D0005493FF1F064A074B1B781078DBB2C0B21F
:1040E00083422CBF3F3000F1FF30C01A704700BF41
:1040F0006093FF1F3E93FF1F2DE9F047DFF8848098
:10410000154698F800600F46FFF7E4FFF6B2A842A4
:1041100038BF0546AC193F2CC246DFF86C800DD97C
:10412000C6F1400939464A46403C08EB060000F01B
:104130000BFF404607EB0901224603E008EB0600AF
:1041400039462A4600F000FFE4B20B4B8AF80040E3
:104150001A786AB901221A7072B6084A136812797D
:10416000D88AA9B2D982D88BD983054B1A7062B686
:104170002846BDE8F08700BF5493FF1F4093FF1F00
:104180001B8000403E93FF1F4084FF1F07B502AB1A
:10419000012243F8041D1946FFF7AEFF03B05DF896
:1041A00004FBFFFF054B1878054B1B78C0B2DBB250
:1041B000984238BF4030C01A704700BF5693FF1F67
:1041C0005593FF1F084B1978084B1A78D2B29142C9
:1041D00007D0013202F03F020549885CD2B21A7062
:1041E00070474FF0FF3070475693FF1F5593FF1FE6
:1041F0000084FF1F084B1A78084B1B78DBB29A42E9
:1042000006D0013303F03F03054AD05CC0B27047CB
:104210004FF0FF30704700BF5693FF1F5593FF1FAD
:104220000084FF1F024B1A78024BD2B21A707047FB
:104230005693FF1F5593FF1F70B50C4E0C4D0D4C40
:104240003046002101F04EF830460B4E22462946FA
:1042500001F0B6F83046002101F044F83046294616
:104260002246BDE8704001F0ABB800BF4093FF1F8D
:10427000B13C00006089FF1F5893FF1F08B5024B37
:104280001B68984708BD00BF9493FF1F30B51A49BB
:104290001A4B0A791A701A481A4B0C681A78037864
:1042A000E48A13FA84F33F2BD2B288BF403B9A4290
:1042B0000446154812D093424FF0010588BF4032A2
:1042C0000570D01A72B60A680979D58A80B2D08290
:1042D000D58BD0830D4A117062B605E000220270C2
:1042E0000B4A4FF4803111600A4A12680AB100216A
:1042F0001170DBB2237030BD8493FF1F1F8000401C
:104300009C93FF1F7293FF1F8093FF1F1B80004031
:1043100004E200E07C93FF1F08B5024B1B6898473E
:1043200008BD00BF9093FF1F10B5184B1A79184BAA
:104330001A70184A1378013303F03F03D9B2117091
:10434000154A1168154A1468621C154A0FD01548A1
:104350000078C0B2834236BFC0F14000C0EB03001A
:10436000C01880B2A04208DA4C1C02D109E0481CF7
:1043700003D00D48C35C8B4203D10C4B4FF400417A
:104380001960136801221A6010BD00BF6893FF1FF7
:104390001F8000408C93FF1F7493FF1F6493FF1FC7
:1043A0009893FF1F7893FF1F8084FF1F04E200E0B3
:1043B0002DE9F84F834B01221A60834B40F21334EE
:1043C0001C604FF451745C60804BC1F344341C702A
:1043D000C1F3471401F01F015C70997200219970BC
:1043E0000221D9745A7588221A74AC22DA70A0227C
:1043F000DA72427B1AB19A7842F080029A70744F56
:10440000DFF804B23B68DFF804A21A69C3F810B001
:104410001A683979C3F800A04026DA8BDE83DA8A7D
:10442000DFF8EC916B48DE8201F1100200240125D7
:104430004FF030081C755C759C711C765C769C7620
:10444000DC761D715C711D725C729C72DC721C7377
:104450005C739C73DC7383F8078049F822004A116F
:10446000920002F1604202F5614201F01F0105FA7B
:1044700001F111609A8B998B92B242F002029A83F9
:104480009A8B998B544992B242F008029A833B79F5
:1044900003F1804303F5043385221C7040461A70F3
:1044A000FDF7CAF94D4B4E48C0221A704FF48033C5
:1044B00003603B7903F1604303F564431E703B796D
:1044C00003F1604303F564431A78464B1A80464A69
:1044D00013681968C3F800B0AAF13F011F69196198
:1044E000D98BDE831C715C71DC711C735C739C73F3
:1044F000DC731D755C751D725C729C72DC721C76BF
:104500005C769C76DC76D98A83F80680DE82167922
:10451000364F06F1100149F821707111890001F13F
:10452000604101F5614106F01F06B5400D60998BB1
:104530009D8B89B241F002019983137903F1804385
:1045400003F5043305461C7036231446284A1178B7
:10455000994233D0274901328A42F8D1227902F1B7
:10456000804202F5043263F07F03DBB213702379DB
:10457000214903F1804303F5043300221A70842299
:104580001A702F20FDF758F91C4BC0221A704FF4F7
:1045900000432B60237903F1604303F56443402219
:1045A0001A702368164A03F1160111600122C3F83C
:1045B0001620144B22791A70BDE8F88F0133402B76
:1045C000C4D1D4E7AC0690420CB0044000B0064021
:1045D0008493FF1F8D4200007D42000030E400E024
:1045E00004E100E07093FF1F6893FF1F2943000060
:1045F0000010024010100240194300002FE400E0B8
:104600009893FF1F1B80004007B00640C084FF1F27
:104610000082FF1F134A937801F0030003F0EC03BC
:104620000343480748BF43F01003937001F00F03A2
:10463000042B0C4803D1837943F0400383715379F1
:10464000084A03F0EF03C80648BF43F01003537154
:104650009379890603F0EF0348BF43F01003937189
:10466000704700BF00B00640134B1B68990710B598
:1046700004461FD5114B1B689A071BD5104B1B68AE
:104680001B0517D50F492F20FDF7D6F823682046C4
:104690005B6998471420FDF765F90B4A0B48002326
:1046A00040F20311D37001604160D372084A137065
:1046B000084A137010BD00BF408004403C80044095
:1046C00034800440C535000000B006400CB0044002
:1046D0009C93FF1F7293FF1F38B50C460A4B1B7843
:1046E00003F0FF0513B1FDF739FFF7E7204601217D
:1046F000FDF7DAF820462946FDF7B6F8034B53F8E4
:104700003420034B1A6038BD8093FF1FF057000020
:104710007C93FF1F08B5FDF721FF064B1A78064B67
:104720001B789A42F7D1054B1B7813B1FDF716FFA2
:10473000F9E708BD7293FF1F9C93FF1F8093FF1F33
:10474000064A074B1B781078DBB2C0B283422CBFFD
:104750003F3000F1FF30C01A704700BF9C93FF1F2D
:104760007293FF1F2DE9F0471D4F91463D780E468D
:10477000FFF7E6FFEDB2484534BF8046C84608EB78
:1047800005043F2CBA46174F0CD9C5F140093146F4
:104790004A46403C781900F0D7FB384606EB090141
:1047A000224602E0781931464A4600F0CDFBE4B2D9
:1047B0000D4B8AF800401A7882B901221A7072B63D
:1047C0000A4A13681279D98A1FFA88F8A3F8168062
:1047D000D98BA3F81E80064B1A7062B6BDE8F0872D
:1047E0007293FF1FC084FF1F8093FF1F8493FF1FDE
:1047F0001B80004007B502AB012243F8041D194697
:10480000FFF7B0FF03B05DF804FBFFFF054B18781E
:10481000054B1B78C0B2DBB2984238BF4030C01A9B
:10482000704700BF8C93FF1F7893FF1F084B1978C8
:10483000084B1A78D2B2914207D0013202F03F02FF
:104840000549885CD2B21A7070474FF0FF3070474C
:104850008C93FF1F7893FF1F8084FF1F084B1A78EB
:10486000084B1B78DBB29A4206D0013303F03F03BA
:10487000054AD05CC0B270474FF0FF30704700BFB0
:104880008C93FF1F7893FF1F8084FF1F024B1A78C1
:10489000024BD2B21A7070478C93FF1F7893FF1FA0
:1048A00070B50C4E0C4D0D4C3046002100F01AFD39
:1048B00030460B4E2246294600F082FD304600214C
:1048C00000F010FD304629462246BDE8704000F059
:1048D00077BD00BF8493FF1FB13C00006089FF1FBC
:1048E0006893FF1F08B5024B1B68984708BD00BFBF
:1048F000A893FF1F30B51A491A4B0A791A701A4843
:104900001A4B0C681A780378E48A13FA84F37F2B25
:10491000D2B288BF803B9A420446154812D09342D7
:104920004FF0010588BF80320570D01A72B60A6850
:104930000979D58A80B2D082D58BD0830D4A117087
:1049400062B605E0002202700B4A4FF4802111602C
:104950000A4A12680AB100211170DBB2237030BD1F
:10496000D093FF1F1F800040BC93FF1FC493FF1F05
:10497000C593FF1F1B80004004E200E0C893FF1FA7
:1049800008B5024B1B68984708BD00BFA493FF1FE2
:1049900010B5184B1A79184B1A70184A137801334E
:1049A00003F07F03D9B21170154A1168154A1468D3
:1049B000621C154A0FD015480078C0B2834236BF3A
:1049C000C0F18000C0EB0300C01880B2A04208DA3A
:1049D0004C1C02D109E0481C03D00D48C35C8B423B
:1049E00003D10C4B4FF400311960136801221A6097
:1049F00010BD00BFB093FF1F1F800040CC93FF1F6E
:104A0000AC93FF1FC093FF1FA093FF1FB893FF1F1E
:104A10000085FF1F04E200E02DE9F84F824B0122E0
:104A20001A60824B40F213321A604FF451725A608E
:104A30007F4BC1F344321A70C1F347125A7001F030
:104A40001F01002299729A701A74AC22DA70A022A7
:104A5000DA72427B1AB19A7842F080029A70754EEF
:104A6000DFF808B23368DFF808A21A69C3F810B09B
:104A70001A683179C3F800A08027DA8BDF83DA8ADD
:104A8000DFF8F0816C48DF8201F11002002401257B
:104A90004FF038091C755C759C711C765C769C76B1
:104AA000DC761D715C711D725C729C72DC721C7311
:104AB0005C739C73DC7383F8079048F822004A11FA
:104AC000920002F1604202F5614201F01F0105FA15
:104AD00001F111609A8B998B92B242F002029A8393
:104AE0009A8B998B554992B242F008029A83337996
:104AF00003F1804303F5043387221C7032201A70BF
:104B0000FCF79AFE4E4B4F48C0221A704FF4802398
:104B10000360337903F1604303F5644340221A7064
:104B2000337903F1604303F564431A78464B1A80E6
:104B3000464A13681968C3F800B0AAF17F011E69DC
:104B40001961D98BDF831C715C71DC711C735C7320
:104B50009C73DC731D755C751D725C729C72DC72DB
:104B60001C765C769C76DC76D98A83F80690DF82A8
:104B70001679374F06F1100148F82170711189003C
:104B800001F1604101F5614106F01F06B5400D607D
:104B9000998B9D8B89B241F002019983137903F1BE
:104BA000804303F5043305461C7036231446294A16
:104BB0001178994233D0284901328A42F8D12279BA
:104BC00002F1804202F5043263F07F03DBB213701E
:104BD0002379224903F1804303F5043300221A703C
:104BE00086221A703120FCF727FE1D4BC0221A7056
:104BF0004FF400332B60237903F1604303F56443E2
:104C000040221A702368174A03F11601116001222D
:104C1000C3F81620144B22791A70BDE8F88F0133BF
:104C2000402BC4D1D4E700BFB006904208C0044076
:104C300000C00640D093FF1FF5480000E548000083
:104C400032E400E004E100E0BA93FF1FB093FF1FDD
:104C500091490000001002401010024081490000FC
:104C600031E400E0A093FF1F1B80004007C0064016
:104C70008085FF1F0082FF1F134A937801F0030015
:104C800003F0EC030343480748BF43F0100393705D
:104C900001F00F03042B0C4803D1837943F0400348
:104CA00083715379084A03F0EF03C80648BF43F005
:104CB000100353719379890603F0EF0348BF43F063
:104CC00010039371704700BF00C00640134B1B6870
:104CD000990710B504461FD5114B1B689A071BD5C1
:104CE000104B1B68DB0417D50F493120FCF7A4FDDE
:104CF000236820465B6998471420FCF733FE0B4A73
:104D00000B48002340F20311D37001604160D3725D
:104D1000084A1370084A137010BD00BF4080044059
:104D20003C80044034800440C53A000000C0064086
:104D300008C00440BC93FF1FC493FF1F38B50C4646
:104D40000A4B1B7803F0FF0513B1FDF707FCF7E7EB
:104D500020460121FCF7A8FD20462946FCF784FDEA
:104D6000034B53F83420034B1A6038BDC593FF1F23
:104D7000F0570000C893FF1F08B5FDF7EFFB064B87
:104D80001A78064B1B789A42F7D1054B1B7813B162
:104D9000FDF7E4FBF9E708BDC493FF1FBC93FF1FB9
:104DA000C593FF1F064A074B1B781078DBB2C0B2D1
:104DB00083422CBF7F3000F1FF30C01A704700BF24
:104DC000BC93FF1FC493FF1F2DE9F0471D4F914671
:104DD0003D780E46FFF7E6FFEDB2484534BF80460A
:104DE000C84608EB05047F2CBA46174F0CD9C5F10D
:104DF000800931464A46803C781900F0A5F83846CB
:104E000006EB0901224602E0781931464A4600F0D5
:104E10009BF8E4B20D4B8AF800401A7882B901225F
:104E20001A7072B60A4A13681279D98A1FFA88F87A
:104E3000A3F81680D98BA3F81E80064B1A7062B6B1
:104E4000BDE8F087C493FF1F8085FF1FC593FF1F38
:104E5000D093FF1F1B80004007B502AB012243F82F
:104E6000041D1946FFF7B0FF03B05DF804FBFFFF18
:104E7000054B1878054B1B78C0B2DBB2984238BF9F
:104E80008030C01A704700BFCC93FF1FB893FF1F3C
:104E9000084B1978084B1A78D2B2914207D00132E8
:104EA00002F07F020549885CD2B21A7070474FF059
:104EB000FF307047CC93FF1FB893FF1F0085FF1F83
:104EC000084B1A78084B1B78DBB29A4206D00133A4
:104ED00003F07F03054AD05CC0B270474FF0FF304B
:104EE000704700BFCC93FF1FB893FF1F0085FF1FC3
:104EF000024B1A78024BD2B21A707047CC93FF1F44
:104F0000B893FF1F70B50C4E0C4D0D4C3046002170
:104F100000F0E8F930460B4E2246294600F050FAE0
:104F20003046002100F0DEF9304629462246BDE831
:104F3000704000F045BA00BFD093FF1FB13C0000A5
:104F40006089FF1FB093FF1F072A2DE9F04302F18C
:104F5000FF3200F1FF3501F1FF3424D8062A00F2B8
:104F6000BF81DFE802F01C1814100C0804000B7855
:104F700003700C46054663786B7001340135637825
:104F80006B700134013563786B70013401356378DF
:104F90006B700134013563786B70013401356378CF
:104FA0006B70BDE8F08305F003038118032BC5EB9C
:104FB000010104F1010304D01C461B7805F8013FF0
:104FC000F1E703F00303022B4FEA910CA5F103056F
:104FD000A4F1030400F0AD80032B00F01181012B3C
:104FE00038D01CF0070F06D054F8043F45F8043FB2
:104FF0000CF1FF3CF5E74FEADC0C2A4623466646F7
:1050000016F1FF3612D35F6857609F689760DF68BC
:10501000D7601F6917615F6957619F699761DF6991
:10502000D76153F8207F42F8207FE9E74FEA4C1C14
:1050300001F0030165446444022905F1030304F10E
:10504000030200F04781032940F03D812B1D221D02
:1050500021793EE124F0030425F0030554F8046FA0
:105060001CF0070F09D0330A54F8046F43EA0663B3
:1050700045F8043F0CF1FF3CF2E74FEADC0C2B460D
:105080002246674617F1FF3739D3D2F804804FEA3A
:10509000086949EA16265E6096684FEA066949EA99
:1050A0001828C3F80880D2F80C804FEA086949EA4A
:1050B0001626DE6016694FEA066949EA1828C3F821
:1050C0001080D2F814804FEA086949EA16265E611A
:1050D00096694FEA066949EA1828C3F81880D2F899
:1050E0001C804FEA086949EA1626DE6152F8206FF3
:1050F0004FEA066949EA182843F8208FC2E74FEAC9
:105100004C1C01F0030165440229644405F10303CA
:1051100009D0032903D0012940F0E28007E062783A
:105120002A712B1D013462785A7001340133627880
:10513000D5E024F0030425F0030554F8046F1CF0B7
:10514000070F09D0330C54F8046F43EA064345F8BF
:10515000043F0CF1FF3CF2E74FEADC0C2A46234601
:10516000674617F1FF3739D3D3F804804FEA08496F
:1051700049EA164656609E684FEA064949EA1848C9
:10518000C2F80880D3F80C804FEA084949EA16466D
:10519000D6601E694FEA064949EA1848C2F81080ED
:1051A000D3F814804FEA084949EA164656619E69C9
:1051B0004FEA064949EA1848C2F81880D3F81C801B
:1051C0004FEA084949EA1646D66153F8206F4FEA7C
:1051D000064949EA184842F8208FC2E74FEA4C1CBA
:1051E00001F0030165446444022905F1030304F15D
:1051F00001026FD0032966D12B1DA21CA17868E0A3
:1052000024F0030425F0030554F8046F1CF0070F85
:1052100009D0330E54F8046F43EA062345F8043FDF
:105220000CF1FF3CF2E74FEADC0C2A4623466746C6
:1052300017F1FF3739D3D3F804804FEA082949EA38
:10524000166656609E684FEA062949EA1868C2F851
:105250000880D3F80C804FEA082949EA1666D66020
:105260001E694FEA062949EA1868C2F81080D3F887
:1052700014804FEA082949EA166656619E694FEA8A
:10528000062949EA1868C2F81880D3F81C804FEA4A
:10529000082949EA1666D66153F8206F4FEA0629B5
:1052A00049EA186842F8208FC2E74FEA4C1C01F027
:1052B000030165446444022905F1030304F1020279
:1052C00008D0032902D001290AD107E0E1782B1D7B
:1052D000E21C2971517859700132013352785A70A9
:1052E000BDE8F08330B572B6254C09B9026812B931
:1052F000218800230FE003790F2BF9D82188194169
:10530000C907F5D503F1007303F59063B2EB431FB2
:10531000EED162B630BD41FA03F212F0010227D19C
:1053200001259D402943218062B6164CD9B20171F6
:10533000256845F00205256054F8045C03F100730C
:1053400045F0020544F8045C03F590630E4C5B01E4
:1053500082252560A176A1772176E17703601A6026
:105360005A609A60DA601A615A619A61DA6130BDF6
:105370000133102BCFD162B600220260037130BD21
:10538000D893FF1F408004400080004003790F2B1A
:1053900010D8094A137072B6084B0279012101FA3C
:1053A00002F2198821EA02021A8062B61023037100
:1053B00000230360704700BF1A800040D893FF1F8E
:1053C00003460846194600F001B8FFFF70B5064CC9
:1053D00006460D4613462CB131462A460220AFF34D
:1053E000008070BD204670BD0000000070B50E4BFF
:1053F0000E4DED1AAD1000241E46AC4204D056F8F6
:10540000242090470134F8E700F07AFB084D094B5F
:10541000ED1AAD1000241E46AC4204D056F82420EC
:1054200090470134F8E770BD0C5B00000C5B000096
:10543000305B00000C5B0000024B0146186800F076
:105440004FB800BF7C8AFF1F024B0146186800F06E
:1054500003B800BF7C8AFF1F30B500293CD051F84B
:10546000042C0B1F1D49002AB8BF9B180A680C4664
:1054700012B95A600B6030BD93420DD219685818AA
:10548000904203D15A581144426819605A6023600F
:1054900030BD994203D80A4651680029F9D11468F1
:1054A00015199D420AD11B682344D0188842136005
:1054B00012D10868034413604B680CE002D90C2336
:1054C000036030BD18681C188C4203D10C68496811
:1054D000204418605960536030BD00BFE093FF1F47
:1054E00070B5CD1C25F0030508350C2D38BF0C25F3
:1054F000002D06463FDB8D423DD3214B1C681846EC
:105500002146A1B10B685B1B0ED40B2B03D90B609A
:10551000CC18CD501FE08C4202D1626802601AE0C4
:105520004B6863600C4616E00C464968E9E7154C89
:1055300023681BB9304600F027F820602946304622
:1055400000F022F8431C014615D0C41C24F00304CB
:1055500084420AD1256004F10B00231D20F00700CE
:10556000C31A0BD05A42E25070BD3046611A00F0A7
:105570000BF80130EED10C233360002070BD00BF6A
:10558000E093FF1FDC93FF1F38B5064C0023054650
:1055900008462360FCF704F9431C02D1236803B1D9
:1055A0002B6038BDF893FF1F034613F8012B002A28
:1055B000FBD1181A013870470000000000000000FD
:1055C0002D06000037060000150600001D0600002D
:1055D0001906000021060000D5050000F9050000AD
:1055E0000D06000011060000250600002906000037
:1055F0002F0500003B050000470500005305000093
:105600005F0500003B0600000000000000000000F5
:10561000AD060000B7060000950600009D060000DC
:1056200099060000A106000055060000790600005A
:105630008D06000091060000A5060000A9060000E6
:1056400065050000710500007D050000890500006A
:1056500095050000BB0600000000000000000000EF
:105660002D07000037070000150700001D07000088
:105670001907000021070000D5060000F906000008
:105680000D07000011070000250700002907000092
:105690009B050000A7050000B3050000BF05000042
:1056A000CB0500003B070000496E636F6D696E67B4
:1056B0002042797465732066726F6D20506F72742A
:1056C00020410053656E64696E67206261636B20E0
:1056D00074686973204D65737361676520746F200A
:1056E000555342203A0052656365697665642061CE
:1056F000204D6573736167652066726F6D203A0097
:105700005061636B65742069733A00496E636F6D15
:10571000696E672042797465732066726F6D2050E0
:105720006F7274204200496E636F6D696E6720422C
:10573000797465732066726F6D20506F72742043A8
:1057400000726F6C6C696E67206172726179004ED5
:105750006F205265706C792066726F6D203A00512F
:10576000554555453A2063616E277420706F70204F
:105770006974656D2066726F6D2071756575653A27
:1057800020717565756520697320656D7074792E5B
:1057900000506F727473207363616E6E65642C20A9
:1057A00049644D6170206C6F6F6B73206C696B6521
:1057B00020746869733A2000496E636F6D696E6783
:1057C0002042797465732066726F6D2055534200D4
:1057D000436F756C64206E6F742066696E6420740C
:1057E00068697320536572766F21000D0AFFFFFF11
:1057F0004008FE4340A004404408FE4344A0044047
:105800000018FE4300C004403000FE4330900440C6
:105810003400FE43349004401C18FE431CC0044076
:105820001018FE4310C004400818FE4308C004408E
:105830000C18FE430CC004400C10FE430CB0044096
:105840001010FE4310B004401810FE4318B004407E
:105850001C10FE431CB004401410FE4314B004405E
:105860000418FE4304C004400010FE4300B004408E
:105870000008FE4300A004400408FE4304A00440C6
:105880000C08FE430CA004400808FE4308A0044096
:105890001418FE4314C004401818FE4318C00440F6
:1058A0000410FE4304B004400810FE4308B0044056
:1058B0001400FE43149004404C08FE434CA00440E6
:1058C0000420FE4304D004402410FE4324B00440CE
:1058D0002010FE4320B004402810FE4328B00440AE
:1058E0002C10FE432CB004400020FE4300D00440A6
:1058F0004808FE4348A004401000FE4310900440B6
:105900000000000000000000552200005B220000A3
:105910004122000045220000492200004D220000E3
:105920005122000000000000000000000000000004
:10593000512600006926000039260000412600009B
:105940003D26000045260000CD250000E125000091
:1059500001260000052600000B260000112600008D
:105960001926000029260000492600004D260000C7
:105970009D250000A9250000B5250000C1250000D7
:10598000792600005D2600000000000000000000F5
:10599000652700007D2700004D27000055270000E7
:1059A0005127000059270000E1260000F5260000DD
:1059B00015270000192700001F27000025270000D9
:1059C0002D2700003D2700005D2700006127000013
:1059D000B1260000BD260000C9260000D526000023
:1059E0008D2700007127000000000000000000006B
:1059F0007928000091280000612800006928000033
:105A0000652800006D280000F52700000928000027
:105A1000292800002D280000332800003928000024
:105A2000412800005128000071280000752800005E
:105A3000C5270000D1270000DD270000E92700006E
:105A4000A12800008528000000151915000100009C
:105A50007E89FF1F1200000000020000A889FF1FBE
:105A60004300000000030000028AFF1F0000000046
:105A7000010309049089FF1F0000000002030904CC
:105A8000EC89FF1F0000000003030904068AFF1FC2
:105A90000000000000000000000000000000000006
:105AA00000000000000000000000000000000000F6
:105AB00000000000000000000000000000000000E6
:105AC00000000000000000000000000000000000D6
:105AD00000000000000000000000000000000000C6
