:1000000000800020BD01000045170000111700000E
:100010001117000011170000111700001117000040
:1000200011170000111700001117000045170000FC
:1000300045170000111700004517000001170000C8
:100040004517000045170000451700004517000040
:100050004517000045170000451700004517000030
:100060004517000045170000451700004517000020
:100070004517000045170000451700004517000010
:100080004517000045170000451700004517000000
:1000900045170000451700004517000045170000F0
:1000A00045170000451700004517000045170000E0
:1000B00045170000451700004517000045170000D0
:1000C00045170000451700004517000045170000C0
:1000D00045170000451700004517000045170000B0
:1000E00045170000451700004517000045170000A0
:1000F00045170000C52E000045170000813500009F
:1001000045170000813A0000451700004517000020
:10011000451700004517000045170000451700006F
:10012000451700004517000045170000451700005F
:10013000451700004517000045170000451700004F
:10014000451700004517000045170000451700003F
:100150009D140000B5140000CD140000E51400004B
:1001600045170000811B00004517000045170000DF
:10017000451700004517000045170000451700000F
:1001800045170000451700004517000045170000FF
:1001900045170000451700004517000045170000EF
:1001A00045170000451700004517000045170000DF
:1001B000451700004517000045170000564B4CF24C
:1001C000205210B51A804DF628121A8000BF00BFC9
:1001D00001F0BCFA514B4FF010621A60504A9A601D
:1001E000504ADA60A3F53043203B1A6812F480725B
:1001F00004D14D490A604FF4A8521A604B4B1A784B
:10020000110703D51A7842F008021A70484B2A22C7
:100210001A700023474A48499818884204D247492F
:10022000595899500433F5E7454A464B9A424FF0E6
:10023000000302D242F8043BF7E74349434A5958C6
:1002400099500433B3F5DE7FF7D1414B802103F899
:10025000011B40498B42F9D13F4B1A603F4B8A2228
:100260001A70A3F5805324225A70A0221A709A792A
:100270009207FCD59A79D406FCD4394B9A7902F0CE
:100280000C02082AF9D105221A7143225A719A796F
:100290009006FCD5324B9A795106FBD5314A4FF086
:1002A000817111600521516020221A702C4B9B79BD
:1002B00003F00C030C2BF9D12B4B2C4A1A602C4B5E
:1002C0002C4A1A6000225A60072243F8042C2A4A5A
:1002D000C3F80C2D62B601F039FB134B1B68DA072B
:1002E00005D5264801F08EFA254B264A1A60264B82
:1002F0001B785B0609D5224C224A2368934204D11D
:100300001E4801F07FFA0023236005F04DF801F04C
:1003100023FA01F0EDF9FEE70E200540308004409D
:10032000823F04000100002B14D0034002D007409C
:1003300000E007406089FF1F848AFF1FEC5A00001D
:10034000848AFF1F4C94FF1F000000000082FF1FE3
:1003500000E400E05FE400E008ED00E0005006404B
:10036000004006404480044004800440C010050062
:1003700014E000E03F19010000002020B2EA2958F3
:100380001CE00340A5C3945A00F00740FFFFFFFFA5
:10039000FFFFFFFFFFFFFFFFFFFFFFFFFFFFFFFF6D
:1003A000FFFFFFFFFFFFFFFFFFFFFFFFFFFFFFFF5D
:1003B000FFFFFFFFFFFFFFFFFFFFFFFFFFFFFFFF4D
:1003C000FFFFFFFFFFFFFFFFFFFFFFFFFFFFFFFF3D
:1003D000FFFFFFFFFFFFFFFFFFFFFFFFFFFFFFFF2D
:1003E000FFFFFFFFFFFFFFFFFFFFFFFFFFFFFFFF1D
:1003F000FFFFFFFFFFFFFFFFFFFFFFFFFFFFFFFF0D
:10040000FFFFFFFFFFFFFFFFFFFFFFFFDEF9FFFF23
:1004100010B5054C237833B9044B13B10448AFF33E
:1004200000800123237010BD848AFF1F000000009C
:10043000EC5A000008B5064B1BB106480649AFF35D
:1004400000800648036813B1054B03B1984708BD07
:1004500000000000EC5A0000888AFF1F848AFF1FFA
:100460000000000070B5044608460D4601F09EF9F4
:1004700000230646A2686068934203DAC25CF25425
:100480000133F7E708B101F095F96660E56070BDEA
:1004900083709DF80030C3709DF8043001700371C3
:1004A000704730B50023C1B00C468B6000220DF8B8
:1004B00003200133FF2BF9D18DF800308DF8013086
:1004C00003788DF8023004238DF8033083788DF89B
:1004D0000430C3788DF8053003798DF80630022397
:1004E0001DF8031001330A44072BD2B2F8D1D243CE
:1004F0008DF807200025E26812B92046042106E0A5
:10050000A368934205D15900994202DD2046FFF7C6
:10051000A9FFA36862681DF80510D154A3680135CE
:100520000133082DA360E6D141B030BD704708B556
:100530000368C9B21B68984708BD08B50368C9B20B
:100540001B68984708BD08B50368C9B21B6898477F
:1005500008BD08B50368C9B21B68984708BD0020EC
:100560007047FFFF014B1960704700BF8893FF1F62
:10057000014B1960704700BF8093FF1F014B186843
:10058000704700BF8893FF1F014B1868704700BF7A
:100590008093FF1F014B1960704700BF9C93FF1FA2
:1005A000014B1960704700BF9893FF1F704708B553
:1005B0000368C9B21B68984708BD08B50368C9B28B
:1005C0001B68984708BD08B50368C9B21B689847FF
:1005D00008BD08B50368C9B21B68984708BD00206C
:1005E0007047FFFF014B1960704700BFC493FF1FA6
:1005F000014B1960704700BFB493FF1F014B18688F
:10060000704700BFC493FF1F014B1868704700BFBD
:10061000B493FF1F014B1960704700BFE493FF1FA5
:10062000014B1960704700BFE093FF1F704708B58A
:100630000368C9B21B68984708BD08B50368C9B20A
:100640001B68984708BD08B50368C9B21B6898477E
:1006500008BD08B50368C9B21B68984708BD0020EB
:100660007047FFFF014B1960704700BFFC93FF1FED
:10067000014B1960704700BF1094FF1F014B1868B1
:10068000704700BFFC93FF1F014B1868704700BF05
:100690001094FF1F014B1960704700BFF893FF1FB4
:1006A000014B1960704700BFF493FF1F7047FFFFB5
:1006B00038B50C461146054603F054FC044901EBDD
:1006C00054012846B1FBF4F1BDE8384003F018BBF3
:1006D00000449508034B03EB5103B3FBF1F103F026
:1006E0000FBB00BF0044950803F066BC03F09CBC40
:1006F00003F036BD03F05CBD03F042BD03F0B2BCB5
:1007000003F06EBD03F0C4BC08B503F01DFD01206D
:1007100008BD03F0CFBC38B5054608460C4604F0CA
:1007200021FF214602462846BDE8384003F0C2BCFE
:1007300038B50C461146054603F04AFF044901EB63
:1007400054012846B1FBF4F1BDE8384003F00EBE79
:1007500000449508034B03EB5103B3FBF1F103F0A5
:1007600005BE00BF0044950803F05CBF03F092BFD4
:1007700004F02AB804F050B804F036B803F0A8BF6B
:1007800004F062B803F0BABF08B504F011F8012014
:1007900008BD03F0C5BF38B5054608460C4604F051
:1007A000E1FE214602462846BDE8384003F0B8BFC6
:1007B00038B50C461146054604F03CFA044901EBF5
:1007C00054012846B1FBF4F1BDE8384004F002B909
:1007D00000449508034B03EB5103B3FBF1F104F024
:1007E000F9B800BF00A24A0404F04EBA04F084BA7B
:1007F00004F01CBB04F042BB04F028BB04F09ABA1E
:1008000004F054BB04F0ACBA08B504F003FB0120BB
:1008100008BD04F0B7BA38B5054608460C4604F0E2
:10082000A1FE214602462846BDE8384004F0AABA97
:1008300010B5044600F00AFF204610BD10B504466E
:10084000406804F0DFFD002363602360238163813F
:10085000A381E381204610BD08B50D20012101F0E0
:1008600001F801210D2000F0DDFFFA2001F058F819
:100870000D20002100F0D6FFFA2001F051F8F0E73A
:1008800038B5044608460D4604F06CFE236802465F
:100890005B6820462946984738BD38B50446FFF7BF
:1008A000EFFF0546204600F0DBFE284438BD38B592
:1008B0000446FFF7E5FF0546204600F0D1FE284438
:1008C00038BD38B50A220023044600F0D9FE05469B
:1008D000204600F0C5FE284438BDFFFFF8B5174696
:1008E000044608461E46079D00F0B0FE00233B70FC
:1008F0000F491048FFF7C4FF6B680E489978FFF75F
:10090000E0FF3378022B01D83B7813B1069B984760
:10091000F8BD236869685B68AA6820469847236821
:1009200020465B69984733780133DBB23370F8BDFA
:10093000B0560000A491FF1F07B5064B0093064B6D
:10094000019306480649074A074BFFF7C7FF03B064
:100950005DF804FB650E00007C8FFF1FB48DFF1F48
:10096000688FFF1F8D8FFF1F248FFF1F07B5064B5A
:100970000093064B019306480649074A074BFFF7C9
:10098000ADFF03B05DF804FB990E0000F08EFF1F71
:10099000108FFF1F9090FF1F8E8FFF1F258FFF1F4F
:1009A00007B5064B0093064B019306480649074AD4
:1009B000074BFFF793FF03B05DF804FBCD0E00007B
:1009C000008FFF1FC48EFF1FD88EFF1F8F8FFF1F4A
:1009D000EC8EFF1F10B501240C701470084A1278B9
:1009E000FF2444732AB1027B02F1604202F56442A3
:1009F0001470194642F62F22BDE8104000F010BED8
:100A0000A890FF1F02480349034A044BFFF7E2BFC7
:100A1000688FFF1F8D8FFF1FA28AFF1F39090000FB
:100A200002480349034A044BFFF7D4BF9090FF1FCD
:100A30008E8FFF1FA38AFF1F6D0900000248034924
:100A4000034A044BFFF7C6BFD88EFF1F8F8FFF1FCF
:100A5000A48AFF1FA10900002DE9F84F98461B78D2
:100A60000A9D0B9F0C9E044689469246002B00F07F
:100A70009A802B889BB2032B8ABFF378042304331C
:100A80003B80236820469B689847A8B12A883B880A
:100A900092B29BB29A420FD22368B5F800B0DB68DD
:100AA000204698471FFA8BFBC0B206F80B002B8834
:100AB00001339BB22B80E4E72B889BB2042B48D9EF
:100AC000F2782B8803329BB29A4242DA374938488F
:100AD000FFF7D6FEB1783648FFF7F3FE34483549C4
:100AE000FFF7DBFE0027F3780333BB4205DBF15D44
:100AF0002F48FFF7E6FE0137F5E700238AF80030BC
:100B0000484600F0A3FD2C4B1B7803F0FF0733B1E0
:100B1000B2780D9BD2B21978284B995410E0284B2B
:100B20001B786BB122482749FFF7B7FE2B889BB291
:100B30009F4205DAF15D1E48FFF7C3FE0137F5E776
:100B400023682046DB690421984700232B80BDE8F9
:100B5000F88F2B889BB2032B02D9F37804333B80A8
:100B600039882A88236892B289B2DB692046891ABB
:100B70009847236820465B6A9847134B64281B6894
:100B800001DC002B0FDC23680F99DB6A002620466E
:100B900088F80060984723682E80DB692046012191
:100BA0009847BDE8F88FBDE8F88F00BFE356000016
:100BB000A491FF1FFD560000A58AFF1F908FFF1F05
:100BC000D48EFF1FC05600008093FF1F7FB50A4BD5
:100BD00000930A4B01930A4B02930A4B03930A4B6F
:100BE00004930A4B05930A480A490B4A0B4BFFF73B
:100BF00033FF07B05DF804FBA08AFF1F6889FF1F61
:100C0000A68AFF1F6489FF1F248FFF1F7D0D000030
:100C1000B48DFF1F688FFF1F8D8FFF1F6E89FF1F11
:100C20007FB50A4B00930A4B01930A4B02930A4B80
:100C300003930A4B04930A4B05930A480A490B4A4B
:100C40000B4BFFF709FF07B05DF804FB208FFF1F78
:100C50006A89FF1FA58BFF1F6589FF1FEC8EFF1F91
:100C6000A90D0000108FFF1F9090FF1F8E8FFF1F98
:100C70006F89FF1F7FB50A4B00930A4B01930A4B04
:100C800002930A4B03930A4B04930A4B05930A48B9
:100C90000A490B4A0B4BFFF7DFFE07B05DF804FB78
:100CA000228FFF1F6C89FF1FA48CFF1F6689FF1F07
:100CB000EC8EFF1FD50D0000C48EFF1FD88EFF1FC6
:100CC0008F8FFF1F7089FF1F2DE9F0411C460368BD
:100CD0009B6805460F4616469847002848D02B6863
:100CE000B6F80080DB68284698471FFA88F8C0B23B
:100CF00004F80800338801339BB2338033889BB2F9
:100D0000032B35D92378FF2B11D16378FF2B0ED11C
:100D100001233B70E1782B682846DB690431984752
:100D20002B680699DB6A28469847BDE8F08111498F
:100D30001148FFF7B2FD63780F48DBB22370A37848
:100D4000DBB26370E378DBB2A3702178FFF7B9FD03
:100D500061780948FFF7B5FDA1780748FFF7B1FDB5
:100D6000E1780548FFF7ADFD3388013B9BB2338046
:100D7000BDE8F08108570000A491FF1F07B5054B9F
:100D8000009305480549064A064BFFF79DFF03B04F
:100D90005DF804FBCD0B0000B48DFF1F6E89FF1FB3
:100DA000A08AFF1FA68AFF1F07B5054B00930548C1
:100DB0000549064A064BFFF787FF03B05DF804FBC1
:100DC000210C0000108FFF1F6F89FF1F208FFF1F56
:100DD000A58BFF1F07B5054B009305480549064A3B
:100DE000064BFFF771FF03B05DF804FB750C0000C4
:100DF000C48EFF1F7089FF1F228FFF1FA48CFF1F4F
:100E000070B5049B059D01221A704A89044632B9C7
:100E1000086810B11249FFF74AFDFFF71DFD8889E8
:100E20004E68013A56F820604A81431C0A899BB2F9
:100E30009A428B8104BF00238B8130462946FFF7FD
:100E400030FB23686968AA685B6820469847236876
:100E500020465B6998473046BDE8704000F0A8BC6A
:100E60001657000007B5064B0093064B0193064842
:100E70000649074A074BFFF7C3FF03B05DF804FBC1
:100E8000A28AFF1F7C8FFF1FB48DFF1F288FFF1FBB
:100E90008D8FFF1F248FFF1F07B5064B0093064B56
:100EA000019306480649074A074BFFF7A9FF03B01D
:100EB0005DF804FBA38AFF1FF08EFF1F108FFF1F3A
:100EC000388FFF1F8E8FFF1F258FFF1F07B5064B23
:100ED0000093064B019306480649074A074BFFF764
:100EE0008FFF03B05DF804FBA48AFF1F008FFF1F74
:100EF000C48EFF1F488FFF1F8F8FFF1FEC8EFF1FB9
:100F000038B500230446038143818381C381036094
:100F100088000D4604F06EFA606008B9FFF79CFC8B
:100F20002581204638BD02894389934270B510D08F
:100F3000C58946686C1CA4B2944208BF002203F124
:100F40000103C48146F8251008BFC28143810120F6
:100F500070BD002070BD38B514461D46FFF7E3FF95
:100F6000237803B9A84738BD0146024A0248034B1B
:100F7000FFF7F1BFA28AFF1F288FFF1F650E000039
:100F80000146024A0248034BFFF7E5BFA38AFF1F51
:100F9000388FFF1F990E00000146024A0248034B9A
:100FA000FFF7D9BFA48AFF1F488FFF1FCD0E000097
:100FB0002DE9F341514C0023237001F0C1F90028C1
:100FC00000F0998001F0BCF9002800F094804C48B2
:100FD0004C494A4DFFF761FC237833B901F06EF9B3
:100FE000494B18702B7801332B702778434D032F12
:100FF00042D9454E3378FF2B3746E3D17378FF2B28
:10100000E0D1F578F878C31C9D420BDC94F80080A1
:1010100001F054F93C4B03F80800237801332370A6
:101020000135EFE7217801399942CBD10223002223
:10103000851CAB4204DCFD5C2A44D2B20133F7E7E5
:10104000D243735C304DD2B29342BBD1052000F045
:10105000ABFB6F79A978EA782B790097AF79019784
:101060000646FFF715FAAB78284AD15C012920D152
:1010700027490978E9B928E0A4D001F01FF9224EE8
:10108000F0552F7833780137FFB2FF2B2F7099D1AD
:101090007378FF2B96D101F011F9F0552F780137B5
:1010A000FFB22F7001F00AF92B78F05501332B7045
:1010B00088E7D15C02290CD11549097849B9304635
:1010C000FFF75EFF002323707CE73046FFF74CFFFD
:1010D000F8E7D15C032906D10D49097819B93046E2
:1010E000FFF75AFFEEE7D35C002BEBD10949044828
:1010F000FFF7D3FBE6E702B0BDE8F0818C8FFF1F5E
:10110000A491FF1F48570000C48DFF1F908FFF1F41
:10111000A58AFF1F60570000FFF74ABF2DE9F74F70
:10112000314A012313700023304A0024D454013380
:10113000FE2B9146F8D1052000F036FBE7B20125E1
:101140000326394604220223009601958046FFF7C4
:101150009FF9052000F028FB39460422022300965F
:1011600001958346FFF794F9052000F01DFB04224A
:1011700002233946009601958246FFF789F94146D8
:101180001B48FFF7D0FE59461A48FFF7CCFE2C4407
:1011900019485146FFF7C7FE142CCCD1FFF762FE69
:1011A000FFF77AFEFFF792FE144B1B782BB1144B1E
:1011B0001B7813B1134B1B7893B913481349FFF7EE
:1011C0006CFB002419F804100F480134FFF779FB79
:1011D000FE2CF7D1044A0023137003B0BDE8F08F52
:1011E0000A2000F09DFBDFE7A58AFF1F908FFF1FFD
:1011F000288FFF1F388FFF1F488FFF1FA28AFF1FF6
:10120000A38AFF1FA48AFF1FA491FF1F7B57000022
:1012100038B5204B204A1A60204B214A214D1A60D4
:10122000214B0124284690211C6002F069FD2846CC
:1012300002F0D6FF21460D2000F014FB1B4B1C4A88
:101240001A601C4B1C4A1D4D1A601D4B28469021EC
:101250001C6003F08BF8284603F0F6FA194B1A4A83
:101260001A601A4B1A4A1A601A4B1C601A4C482111
:10127000204603F0AFFB204603F018FE4FF4FA605F
:1012800000F04EFBFFF74AFF4FF4FA60BDE838402C
:1012900000F046BB9C93FF1F050A00009893FF1FB8
:1012A000CD0B0000B48DFF1F8093FF1FE493FF1F41
:1012B000210A0000E093FF1F210C0000108FFF1F88
:1012C000B493FF1FF893FF1F3D0A0000F493FF1F24
:1012D000750C00001094FF1FC48EFF1FF8B54B4B18
:1012E0004B4A1A6000244FF47A714A4A1C71996083
:1012F0001C735C734FF0FF331360474A4748136019
:10130000474A02604748484D0260484A48481060D2
:101310001471916014735473464A47481360474AE6
:10132000474E1360474A026047480260474A4848B0
:10133000916048491160147114735473464A0470E3
:101340001360464A1360464A464B1360464A80275C
:10135000136031462A46477304F010F8434831467B
:101360002A460470477304F009F841484773414F17
:1013700004702A46314604F001F83F4E38463221C7
:10138000FFF7BEFD38463D4F2A46314603F0F6FFD3
:1013900038463221FFF7B4FD3846394F2A463146E8
:1013A00003F0ECFF38463221FFF7AAFD31462A460A
:1013B000344E384603F0E2FF334831462A46446053
:1013C0008460C46003F0DAFF304831462A46446046
:1013D0008460C46003F0D2FF2D4831462A46446041
:1013E0008460C46003F0CAFF2A4831462A4644603C
:1013F0008460C46003F0C2FF2748314644608460C3
:10140000C4602A46BDE8F84003F0B8BFB48DFF1FA2
:10141000805500008893FF1F8093FF1F9C93FF1F40
:101420002D0500009893FF1F6089FF1F108FFF1F7D
:10143000E8550000C493FF1FE493FF1FB493FF1F00
:1014400031080000AD050000E093FF1FC48EFF1FB0
:10145000688FFF1F50560000FC93FF1F1094FF1F62
:10146000F893FF1F2D060000F493FF1F9090FF1FBD
:10147000D88EFF1F288FFF1F3D080000388FFF1FE9
:10148000488FFF1FAD060000A48DFF1F7C8FFF1F3C
:10149000F08EFF1F008FFF1F588FFF1F08B5034BF3
:1014A00001221A60024B1B68984708BD0C7103406B
:1014B000AC90FF1F08B5034B01221A60024B5B681A
:1014C000984708BD1C710340AC90FF1F08B5034B43
:1014D00001221A60024B9B68984708BD2C7103409B
:1014E000AC90FF1F08B5034B01221A60024BDB686A
:1014F000984708BD3C710340AC90FF1F054B1A682C
:1015000042F400021A60044B00221A60034B0122CD
:101510001A7070473C80044000700340A890FF1F81
:10152000064B01221A6003F588333C331A6822F413
:1015300000021A60024B00221A70704700700340CC
:10154000A890FF1FF0B54578134C144F2B011A19C2
:101550004260134A9E188660066947F82560002598
:101560009D501951032199504378427B4433DBB29B
:10157000037303F1604303F5644301211A70027B96
:1015800053119B0003F1604303F5614302F01F0216
:1015900001FA02F21A60F0BD00710340AC90FF1F27
:1015A00008710340F8B50C4B1B7806460F460BB983
:1015B000FFF7A4FF0024094D625DE3B23AB930465B
:1015C00073703946FFF7BEFF01202855F8BD01347E
:1015D000042CF0D10020F8BDA890FF1FA490FF1F9D
:1015E0008268002310B51360027B0121541102F0C0
:1015F0001F0201FA02F2084941F82420074A417803
:101600005354D15C31B90133042BFAD1BDE81040F9
:10161000FFF786BF10BD00BF80E100E0A490FF1F70
:10162000037870B504460D4616461BB1FFF7D8FF88
:1016300000232370256120463146FFF7B3FF10B128
:101640000123237000E02070207870BD037810B56E
:1016500004460BB1FFF7C4FF0023237010BDFFFF4A
:1016600007B5064B1B88ADF80430036801A95B6819
:101670000222984703B05DF804FB00BFA2570000A8
:1016800070B505468AB022B90368C9B21B6898478D
:101690002CE0012A08BF0A2221B930228DF825202A
:1016A000212413E02124B1FBF2F002FB1011C9B296
:1016B00009290AAE94BF303137312644C9B206F841
:1016C000241C014610B1013CE4B2ECE733B1013C0B
:1016D000E4B20AAB23442D2203F8242C2B6801A981
:1016E0005B6828462144C4F1220298470AB070BDC5
:1016F00008B5FFF78DFDFFF70FFD00F00DFFFAE7CE
:10170000024B1A6801321A60704700BFBC90FF1F7D
:1017100008B50B4C2368580301D500F031FA236853
:10172000590501D501F0CEFB23681A0501D501F05A
:1017300027FF2368DB04ECD502F0A2F9E9E700BF3C
:101740003480044008B5FFF7E3FFFFFF014B102290
:101750001A807047002005407047FFFF024A136857
:1017600018441060184670477489FF1FEFF3138305
:101770009BB9EFF3108098B9EFF3058323B10F2BDA
:1017800004D9084A985C01E04FF48070EFF31183AC
:101790003BB1834238BF184670474FF0FF30704767
:1017A00018467047F0E300E003F024BE03F022BEC9
:1017B00003F028BE03F026BE10B50023B0FBF2F400
:1017C00002FB1400092894BF30303730C0B2C8542F
:1017D00020460CB10133F1E7CA18547022469A42F0
:1017E00006DA885CCC5C8C54C8540132013BF6E7C5
:1017F000084610BD1030024B43F82010704700BF60
:101800000082FF1F044B054900221A600A60044A47
:10181000106010221A60704714D0034004D00340B7
:1018200000D00340212810B518D80D4A52F83030A6
:1018300093F880423CB1012211B183F8802010BDA1
:1018400083F8002110BD02EBC00043681A6811B193
:1018500042F0030201E022F002021A6010BD00BF54
:10186000A4570000212810B537D81C4A02EBC0034A
:1018700001295B68144601D004290FD154F83020A7
:10188000012082F880024FF4A2721A601A680429BB
:101890000CBF42F0200222F020021DE052F830205E
:1018A000002082F8800211B18A1E012A12D84FF45A
:1018B000807202291A6003D11A6842F003020BE019
:1018C00003290AD11A6842F002021A601A6822F04B
:1018D000010201E040F203121A6010BDA45700009B
:1018E00072B60C4B0C491A680C4B1B68096862B63F
:1018F000490102D5322A88BF0133C2F58C32482112
:1019000002F23F12B2FBF1F24FF47A7000FB0320B7
:10191000704700BF18E000E004ED00E0BC90FF1F3E
:1019200038B50446FFF7DCFF054624B938BD013C55
:101930000AD005F57A75FFF7D3FF401BB0F57A7F23
:10194000F5D200F0E9FDF6E738BDFFFF204B4FF47C
:10195000000210B51A604FF080721A604FF00072EA
:101960001A604FF080621A604FF000621A60194BE3
:10197000194A1A4C002048F6FF7118605960282354
:1019800013609360136193611362936213639363B3
:101990000922226004F58054043420606160A36051
:1019A000236144F8042C04F5FE2420600C480160F7
:1019B0000C490B608B600C4B1A6000F06BFF4FF40E
:1019C000C870FFF7ADFFBDE8104000F0D7BB00BF07
:1019D00008E100E0048003400C80034000800340E5
:1019E00008800B400C800B4000800B40F0B50C4B86
:1019F0000C4C1A7842F0020504EBC50682F0010295
:101A0000706009481A700678002E0CBF8827C82716
:101A100086F0010647EA0141067044F83510F0BD32
:101A20002891FF1F0080FF1FA091FF1F431E032B63
:101A300010B510D872B6094A52F8230048B141686F
:101A400042F82310064A018832F81340611A22F83E
:101A5000131062B610BD002010BD00BF1891FF1F0B
:101A60003494FF1F013803280AD872B6054B53F887
:101A70002030002013B101305B68FBE762B670478D
:101A8000002070476C91FF1F10B572B60123174AF2
:101A90001A4412F8012C12071CD59900144A52F866
:101AA00031402CB902EB431308305860114B09E068
:101AB00041F0010152F8314064B902EBC103083032
:101AC00058600D4B42F831300C4B1A78013A1A70BD
:101AD00062B610BD0133052BD9D162B6074B002287
:101AE0001A70BDE8104000F0C7BB00BF005A0000EC
:101AF0000080FF1F88004000C80040009691FF1F33
:101B0000431E032B30B532D8194A400140F0100073
:101B1000104472B6174CE25C032A09D8DFE802F0E1
:101B2000160218050830022213E00830042210E0E3
:101B30001148124A50F8234014B940F8231002E02B
:101B400052F82300416042F823100FE0032200E026
:101B50000522E25410F0080F01F108030A884360DF
:101B60000CBF8823C82343EA0243036062B630BD3A
:101B70000080FF1FD490FF1F6C91FF1F7C91FF1FFF
:101B80002DE9F84FAB4F3C78E4B214F0040F3D461A
:101B900019D0A94B1B78A3B1A84A117801F0FF0313
:101BA00021B1013BDBB2137003B900BEA44A117826
:101BB00001F0FF0329B1013BDBB213700BB900F058
:101BC00087FC04233B7004F0080303F0FF02002BA2
:101BD00000F067829B4B9C4C1A78D2B215094FEAF1
:101BE000920840F0E48104EBC803596854F8383097
:101BF000C3F38303013B0C2B00F2D681DFE813F023
:101C000095019501D401D401D401D401D401D401AA
:101C1000B001D401D401D4010D008C4D0A684B6889
:101C20008B486B6001218B4B44F838302A60DFF819
:101C30005082017092B240F2816000238242C8F863
:101C400000302361A36117D8B2F5D06F80F01E81F8
:101C5000B2F5817F00F0CF8006D8802A00F0BA80EC
:101C6000822A00F0BB8031E140F202339A4200F058
:101C7000D180B2F5A06F1CE042F22100824200F058
:101C800051810ED8B2F5086F00F09E80B2F5106F4A
:101C900040F01C81684B6C4EAA781A7006F18009DE
:101CA0000AE042F221218A4200F0088142F2213307
:101CB0009A4200F00F8109E1336A1B0603D5706A6E
:101CC000083800F0D9FA08364E45F5D10026B1465D
:101CD000DFF8B0A156F80A0028B1D0F804B000F03F
:101CE000CBFA5846F8E74AF806005B4BDFF898A1B4
:101CF000F05056F80A0028B1D0F804B000F0BCFA51
:101D00005846F8E7554B4AF80600F050544B23F874
:101D10001900544B19F80320023A032A08D8DFE8C7
:101D200002F002040204002200E0012203F809206C
:101D300009F10109B9F1040F06F10406C8D14A4BB3
:101D400000221A7001269A46484A494B32443344CD
:101D500012F8012C9B0012F0080F1A704FEA860946
:101D600025D000F06BFA38B104EB46130830586008
:101D7000404B44F8393006E09AF8003044F8390016
:101D800001338AF8003000F059FA49F0010338B104
:101D900004EBC302083050602E4A44F8332006E0BA
:101DA00044F833009AF8003001338AF8003049F0E3
:101DB0000202013649F003090023052E44F83230AF
:101DC00044F83930C0D186E01B4B2B4C1B78237074
:101DD0000B4683E0284C237063707EE0AA88042AB7
:101DE00074D8254C920023706370244B9B5C9E0733
:101DF00073D5217071E0AA8802F07F02042A65DCA5
:101E00006B88002B62D191001C4A0A44117821F0A2
:101E1000020159E0AA8802F07F02042A56DC6B888E
:101E2000002B53D19100154A0A44117841F0020168
:101E30004AE000BF802007409F91FF1F2991FF1FAC
:101E4000B491FF1F902007400080FF1F8C91FF1F5F
:101E5000A091FF1FC8004000C490FF1F7C91FF1F8E
:101E60003494FF1FD490FF1F9691FF1F005A00006B
:101E700030C80110880040009791FF1FC020074024
:101E8000C090FF1F1891FF1F6C91FF1F6A88A988DF
:101E90009F4B53F8084CA3F10C00BCB133F80C6C09
:101EA000964209D133F80A6C8E4205D1120A032AF0
:101EB0000CBF2378038911E00C33EAE7954A1168D7
:101EC000954A1160A978954A117004E0944B0F224D
:101ED0001A7027E000231C4600E00223EE88B3427C
:101EE00038BF1E46402E34BF354640252046294681
:101EF000FFF77CFD761B2C4403D1402D12D13546D3
:101F000003E0402E34BF3546402520462946FFF7E2
:101F10006DFD761B2C4401D1402D03D1814AC8F8B8
:101F2000004016800122804B3DE0804B1A8842F22F
:101F300021039A4210D100237D4AC85C9854013392
:101F4000072BF9D11368862B02D17A4B0F221A7016
:101F500000200146FFF74AFD774B44F8383023E074
:101F6000764E3568B5B1DFF8BC81B8F80090B9F1AC
:101F7000400F34BF4C46402428462146FFF736FD2B
:101F8000C4EB09039BB2A8F800300BB9402C00D178
:101F90002B193360654B1A88B2F5A06F04D100226B
:101FA0005A709A78664B1A7001225F4B6CE004EB12
:101FB000C806013D736802F00802A3F10800EDB203
:101FC00002F0FF01002A36D000F056F95D485E4B62
:101FD00050F82520EAB1516840F8251002F10801B7
:101FE0007160595D03290BD8DFE801F0020406088F
:101FF000032104E0022102E0052100E004215955FB
:1020000016F0080F12880CBF8823C82343EA024346
:1020100042E05A5D032A07D8DFE802F0404002049C
:10202000002206E0012204E016F0080F0CBF022295
:1020300003225A5532E054F83820120C23F8082CA9
:1020400022B3DFF834E123F8061C43F8041C5EF8E1
:1020500025303E4913B94EF8250002E051F82530ED
:1020600058603B4B41F8250033F815100A4423F81B
:10207000152000F0E3F810B10830706006E0354B31
:1020800044F838001A7801321A7007E02A4B324AB5
:1020900016F0080F08BF134644F8383008233B7089
:1020A00070E5E0071FD520492B482C4C02230B700C
:1020B0002B4B1A702B4B186098602B48D8601A6114
:1020C0009A615C60164B0D2018702848FF2303703E
:1020D0002B700274264A1370264B9F221A7001231C
:1020E0000B70BDE8F88F210604D50D4B0D221A7038
:1020F00080232B70A20705D51C4B1A78D2B21A7018
:1021000002232B70E30644BF10232B70BDE8F88F29
:10211000105A0000BC90FF1F4494FF1FC491FF1F82
:10212000C02007409491FF1F942007408C91FF1F0F
:102130003C94FF1F2991FF1FC8004000C090FF1F63
:10214000982007406C91FF1FD490FF1FC490FF1F81
:102150003494FF1F9691FF1F88004000D890FF1F06
:102160002891FF1F0080FF1F2C91FF1F8820074030
:102170008C200740842007401891FF1F08B501F00C
:10218000E7FC00221A4B0021D15098180832882A07
:102190004160F7D1174A106840F48020106002F5C2
:1021A00028326832C3F307201070C3F307401B0EB8
:1021B00010751376FF2302F81C3C02F8143C02F859
:1021C0008C3C012302F8083C82F8641002F8183CA9
:1021D000094B70226FF450711A700B444FF4007267
:1021E0001A6003F1C04303F5C82310221A7008BD1A
:1021F0000080FF1F3480044049E400E000F0A0B8F4
:1022000000F05CB800F080B800F034B900F0A6B877
:10221000084600F023B90846114600F0B7B87047E9
:10222000044B00221A714FF47A711A73024A9960B2
:102230001A607047A491FF1FC058000072B60C4A84
:102240001168B1FA81F30B2B02D962B600207047F6
:102250004FF00040D84021EA0001116062B6054904
:1022600048225343C8180022CA504260704700BF3A
:102270007889FF1F0086FF1F0C4B4822C31AB3FB4F
:10228000F2F30B2B11D80A4A127822B1094A1278BC
:102290000AB1FFF7F9BB72B6074A4FF0004121FAC5
:1022A00003F311681943116062B670470086FF1F7F
:1022B0009691FF1F9F91FF1F7889FF1F10B5104C4B
:1022C00023686BB120684288531C0244147A028848
:1022D000934212D3FFF7D0FF094B00221A600DE0A2
:1022E000084B1B7813B94FF0FF3010BD0320FFF7E8
:1022F0009DFB20600028E5D1F5E74380204610BD16
:10230000C091FF1F9F91FF1F10B50B4C236813B1A5
:1023100023686BB902E0094B1B7813B94FF0FF300B
:1023200010BD0320FFF782FB20600028F0D1F5E705
:102330005A881344187A10BDC091FF1F9F91FF1F48
:10234000044B9888044B1B681BB11A885B88D31A0E
:10235000184470473494FF1FC091FF1F10B5094BFC
:102360001B786BB1084C206818B1FFF785FF00237C
:1023700023600320FFF75AFB10B1FFF77DFFF8E75A
:1023800010BD00BF9F91FF1FC091FF1F2DE9F843B3
:102390002D4E012307460C463370002C4FD02B4D99
:1023A0002B68A9462BBB48F60148294B1B7803F044
:1023B000FF020BB9327015E00420FFF753FB07282A
:1023C00008D801233370FFF739FFC9F8000080B93E
:1023D0001D4B1870B8F101081E4B01D01A782AB1B4
:1023E00001221A704FF0FF30BDE8F88300F094F836
:1023F000DBE72968174A488800231370C0F14002C0
:10240000944238BF224600F1080C10448C444880A6
:10241000A41A934204D0F85C0CF803000133F8E7E7
:102420001F444B883F2B06D940230B800420FFF725
:1024300067FB00232B60084B05221A70ADE7347050
:102440002046BDE8F88300BFB591FF1FB891FF1F7C
:102450009F91FF1FBC91FF1FB491FF1F07B502ABF7
:10246000012103F8010D1846FFF790FF03B05DF856
:1024700004FBFFFF2DE9F041114B1B78F3B1114E26
:10248000114B3468114D01271F7098464CB100273D
:1024900063882F70042023802146FFF731FB3760CB
:1024A00009E0FFF7CBFE014620B104202C70FFF7B6
:1024B00027FB00E02F70002388F80030BDE8F08192
:1024C0009F91FF1FB891FF1FB591FF1FB491FF1F90
:1024D00038B50E4B1B7803F0FF05ABB90C4C2168E7
:1024E00031B14B880B800420FFF70AFB256038BD13
:1024F000FFF7A4FE014620B10420BDE83840FFF7F5
:10250000FFBA044B01221A7038BD00BFB591FF1FFE
:10251000B891FF1FB491FF1F10B50E4C2378BBB9C3
:1025200001232370FFF70CFF08B1FFF778FE00F0DE
:1025300053FC08B100F08AF800F0ACFF08B100F0DD
:102540000FF901F039FA08B100F094F90023237073
:1025500010BD00BFC591FF1F08B50368C9B21B6855
:10256000984708BD08B50368C9B21B68984708BDFD
:1025700008B50368C9B21B68984708BD08B5036869
:10258000C9B21B68984708BD034800EB5100B0FB77
:10259000F1F000F0DBB900BF0044950810B5064823
:1025A00000EB51001446B0FBF1F000F0CFF92046EB
:1025B000BDE8104000F02EBA0044950800F054BA6F
:1025C000084600F085BA084600F0D4BA084611461D
:1025D00000F09ABA08B5084600F0F2FA003018BFC9
:1025E000012008BD08B5084600F00CFB003018BFFC
:1025F000012008BD00F0F0BB00F028BC00F0FCBBDF
:1026000000F0CEBB00F03ABC00F0D4BB08B50846E1
:1026100000F01EFB012008BD08B5084600F018FBBD
:10262000012008BD10B508461446114600F05AFBBB
:10263000204610BD38B508460D4602F093FF04460B
:102640002146284600F04EFB204638BD7047FFFF6C
:10265000044B00221A714FF47A711A73024A99607E
:102660001A607047C891FF1FE858000008B503685A
:10267000C9B21B68984708BD08B50368C9B21B6892
:10268000984708BD08B50368C9B21B68984708BDDC
:1026900008B50368C9B21B68984708BD034800EB3A
:1026A0005100B0FBF1F000F091BC00BF0044950870
:1026B00010B5064800EB51001446B0FBF1F000F0F5
:1026C00085FC2046BDE8104000F0E4BC00449508BD
:1026D00000F00ABD084600F05FBD084600F0AEBD40
:1026E0000846114600F074BD08B5084600F0CEFD5E
:1026F000003018BF012008BD08B5084600F0E8FD0D
:10270000003018BF012008BD00F0C4BE00F0FCBEC0
:1027100000F0D0BE00F0A2BE00F00EBF00F0A8BED8
:1027200008B5084600F0F2FD012008BD08B50846CE
:1027300000F0ECFD012008BD10B508461446114616
:1027400000F02EFE204610BD38B508460D4602F0BA
:1027500009FF04462146284600F022FE204638BDE7
:102760007047FFFF044B00221A714FF47A711A73FD
:10277000024A99601A607047D891FF1F48590000BB
:1027800008B50368C9B21B68984708BD08B5036857
:10279000C9B21B68984708BD08B50368C9B21B6871
:1027A000984708BD08B50368C9B21B68984708BDBB
:1027B000034800EB5100B0FBF1F000F065BF00BF33
:1027C00000A24A0410B5064800EB51001446B0FBC5
:1027D000F1F000F059FF2046BDE8104000F096BF30
:1027E00000A24A0400F0BCBF084600F0EDBF084656
:1027F00001F02EB80846114601F002B808B50846A7
:1028000001F028F8003018BF012008BD08B50846BF
:1028100001F042F8003018BF012008BD01F0CCB82B
:1028200001F004B901F0D8B801F0AAB801F016B966
:1028300001F0B0B808B5084601F04CF8012008BD19
:1028400008B5084601F046F8012008BD10B5084655
:102850001446114601F088F8204610BD38B50846E8
:102860000D4602F07FFE04462146284601F07CF822
:10287000204638BD7047FFFF044B00221A714FF409
:102880007A711A73024A99601A607047E891FF1FC3
:10289000A859000010B5204B2048214960221A7029
:1028A000E1225A701F4B204A1C78204B082C01D182
:1028B000012402E00A2C03D119240460132005E04E
:1028C0000C2C0CBF15243D240460122008601460F9
:1028D0001860174B17491B78174A03B101230B6087
:1028E0001360164B164A1978164B012901D880211E
:1028F0000BE0042901D8842107E0082901D88521AB
:1029000003E0102994BF86218721116019600E4BC6
:1029100001221A7010BD00BF0040074008B00340FC
:102920000CB003407C89FF1F08B00B400CB00B407B
:10293000F991FF1F20B0034020B00B407D89FF1F9D
:1029400024B0034024B00B40F891FF1F234B1A68BA
:1029500042F480621A60224A00231370214A1370E5
:10296000214A1370214A1370214A1370214B1B789E
:102970002BB1152B07D140F213321F4B02E01F4B36
:1029800040F213321A601E4B1B78012B05D0052B29
:1029900007D14FF451721B4B02E01B4B4FF45172A5
:1029A0001A601A4BC0F344321A70C0F347125A70BF
:1029B0000221042200F01F0098729A70D9745A758F
:1029C00088221A743C22DA70114B40226FF44A714B
:1029D0001A700B444FF400521A6070473480044060
:1029E0008392FF1F0192FF1F8C92FF1F8492FF1F93
:1029F0000092FF1F4292FF1F18C0044040A00440F5
:102A00007E89FF1F1CC0044044A0044000A0064073
:102A10002DE400E0134A937800F0030103F0EC0387
:102A20000B43410748BF43F01003937000F00F03BE
:102A3000042B0C4903D18B7943F040038B715379FC
:102A4000C20603F0EF03074A48BF43F01003537177
:102A50009379810603F0EF0348BF43F010039371AD
:102A6000704700BF00A0064008B5114B1B685B050E
:102A700000D408BD0F4B1A7802F0FF0312B1FFF724
:102A80004BFDF7E70C4A4FF4005111600B4A0C491B
:102A9000D37040F203120A604A600A4A13700A4A6D
:102AA00013700A4B1B680BB101221A7008BD00BFDE
:102AB000348004400092FF1F84E100E000A0064043
:102AC00040A004408392FF1F0192FF1FFC91FF1F53
:102AD00038B50446094B1B7803F0FF05002BF9D1EC
:102AE00020460121FEF7BEFE20462946FEF79AFE4B
:102AF000034B53F83420034B1A6038BD0092FF1F7C
:102B0000A45700008892FF1F10B509B140F0800063
:102B1000144A13789842144622D0134A1268520578
:102B20001DD503F07F03012B04D0052B05D1002216
:102B30000E4B01E00E4B00221A60002900F07F02CC
:102B40000CBF44236023012A05D0052A07D143F492
:102B50004073064A02E0064A43F440731360207053
:102B600010BD00BF7E89FF1F348004401CC004409C
:102B700044A004400E4A1378984218D00D490968C1
:102B8000490513D52BB1152B05D10B4B002119602D
:102B900001E00A490B6028B1152807D140F2133132
:102BA000054B02E0054B40F213311960107070477D
:102BB0004292FF1F3480044018C0044040A00440EB
:102BC0000D4A38B5146814F480624FF0000410D038
:102BD00021280A4D0AD80A4A012152F830302B60C8
:102BE000FEF740FE2B681C70012038BD2C6020468B
:102BF00038BD104638BD00BF34800440FC91FF1F33
:102C0000A45700000E4B1B6813F4806316D01228E3
:102C10000C4B03D140F202310B4A04E0142809D1D5
:102C20000A4A40F2023111605A7B42F001025A73A3
:102C3000012070475A7B02F0FE025A730020704751
:102C40003480044000A006400CA0044014C004409E
:102C5000F8B51D4B1B685A05064633D51B4B1B6840
:102C60000BB101221A701A4B1C780134402C1F46FC
:102C700028BF0024174D2B78A34218D1FEF776FD0C
:102C800040280FDC144A13791B06F3D52B7813491F
:102C90000133402B28BF0023C95CDBB2C9B2D1711C
:102CA0002B70E7E7FF28E5DDFFF736FCE2E70B4B8B
:102CB000F6B21E550A4B01221A70074BE4B2BC2231
:102CC0003C70DA70F8BD00BF348004408892FF1F6A
:102CD0008C92FF1F8492FF1F00A006400292FF1FEC
:102CE0000092FF1F274B1B685A052DE9F047074646
:102CF0008A4644D5244B1B680BB101221A703D460D
:102D000007EB0A039D4237D2DFF890801F4E98F8F8
:102D1000004096F800900134402C28BF00245FFA50
:102D200089F9A1451DD11A4BBC22DA70FEF71EFDB0
:102D300040280FDC164A13791B060FD53378154946
:102D40000133402B28BF0023C95CDBB2C9B2D1716B
:102D5000337003E0FF2801DDFFF7DEFB33784B45DE
:102D6000E4D00C4B15F8012B1A550B4B0122E4B2A1
:102D70001A7088F80040C3E7054BBC22DA70BDE842
:102D8000F08700BF348004408892FF1F8492FF1FA9
:102D900000A006400292FF1F0092FF1F8C92FF1FAF
:102DA00008B5034B1B7813B1FFF7B6FBF9E708BD75
:102DB0000092FF1F064A074B1B781078DBB2C0B2A7
:102DC00083422CBF3F3000F1FF30C01A704700BF74
:102DD0008492FF1F8C92FF1F054B1878054B1B78C0
:102DE000C0B2DBB2984238BF4030C01A704700BF53
:102DF0008392FF1F0192FF1F10B5104B10491A78E4
:102E00000B78D2B2DBB29A4214D00133402B28BFE8
:102E100000230C48DCB2C05C0C700B490968C0B2DE
:102E200051B19A4238BF4032D31A1A2B04DC002326
:102E30000B7010BD4FF0FF3010BD00BF8392FF1F1D
:102E40000192FF1F4392FF1FFC91FF1F084B1A784E
:102E5000084B1B78DBB29A4207D00133402B28BFC6
:102E60000023054AD05CC0B270474FF0FF30704776
:102E70008392FF1F0192FF1F4392FF1F0C4B1B68A1
:102E80005B0514D50B4BDA7802F0CB02DA704022E6
:102E90005A74DA7842F03402DA70074B1A78074B2A
:102EA000D2B21A70064B1B680BB100221A70704721
:102EB0003480044000A006400192FF1F8392FF1F50
:102EC000FC91FF1F30B5374B1A7912F0300F31D01B
:102ED00072B69A7D02F0FF0022B9DA7940225A7464
:102EE00062B627E062B6304A304913780978DBB21F
:102EF000C9B214462B4AD5795A1C402A28BF002251
:102F00008A42EDB202D02A4B9D541346421E12F063
:102F1000FF00EFD1DAB22270264A126852B18B421A
:102F200036BFC1F14001C1EB03035B18272BC4BFBF
:102F3000012313701B4BD978C9B20C0620D51B791D
:102F400018061DD51C4B1D4A1D781378EDB2DBB257
:102F50001046AB420CD0134A0133402B1479184C65
:102F600028BF0023E45CE4B2D471127D072AF0D9B3
:102F7000DBB203700B4B1A79120644BF7C22DA7065
:102F80004B060ED5074B1A7912F0400F194608D0A0
:102F90000C4B00221A700C4B1B6803B11A703C23B7
:102FA000CB7030BD00A006408392FF1F0192FF1F2F
:102FB0004392FF1FFC91FF1F8C92FF1F8492FF1F03
:102FC0000292FF1F0092FF1F8892FF1F234B1A6877
:102FD00042F400621A60224A00231370214A1370DF
:102FE000214A1370214A1370214A1370214B1B7818
:102FF000092B05D01A2B07D140F213321E4B02E0E9
:103000001E4B40F213321A601D4B1B780A2B05D061
:103010001F2B07D14FF451721A4B02E01A4B4FF499
:1030200051721A60194BC0F344321A70C0F3471240
:103030005A7000F01F000422022198729A70D9740D
:103040005A7588221A743C22DA70114B40221A7089
:10305000A3F22B334FF400421A60704734800440CF
:10306000FE92FF1F9592FF1F0493FF1FFF92FF1F09
:103070009492FF1F7F89FF1F04D004400CB00440CE
:103080008089FF1F00D0044010B0044000B006400B
:103090002FE400E0134A937800F0030103F0EC03FF
:1030A0000B43410748BF43F01003937000F00F0338
:1030B000042B0C4903D18B7943F040038B71537976
:1030C000C20603F0EF03074A48BF43F010035371F1
:1030D0009379810603F0EF0348BF43F01003937127
:1030E000704700BF00B0064008B51E4B1B681B05AB
:1030F00000D408BD1C4B1B7803F0FF0213B1FFF78F
:103100000BFAF7E7194B4FF400411960184BDA70CE
:10311000184B1B78092B05D01A2B07D140F203124C
:10312000154B02E0154B40F203121A60144B1B784A
:1031300003F07F030A2B05D01F2B07D140F20312A7
:10314000104B02E0104B40F203121A600F4A0023AA
:1031500013700F4A13700F4B1B680BB101221A70CA
:1031600008BD00BF348004409492FF1F84E100E05A
:1031700000B006407F89FF1F04D004400CB004401B
:103180008089FF1F00D0044010B00440FE92FF1F52
:103190009592FF1F9092FF1F38B50446094B1B788C
:1031A00003F0FF05002BF9D120460121FEF75AFB61
:1031B00020462946FEF736FB034B53F83420034BD9
:1031C0001A6038BD9492FF1FA45700000093FF1FA0
:1031D00010B509B140F08000144A137898421446A3
:1031E00022D0134A126812051DD503F07F030A2B63
:1031F00004D01F2B05D100220E4B01E00E4B002204
:103200001A60002900F07F020CBF442360230A2AC1
:1032100005D01F2A07D143F44073064A02E0064A4C
:1032200043F440731360207010BD00BF8089FF1FFE
:103230003480044000D0044010B004400F4A13789A
:1032400098421AD00E490968090515D5092B04D0F2
:103250001A2B05D100210B4B01E00B4B002119600B
:10326000092805D01A2807D140F21331054B02E096
:10327000054B40F213311960107070477F89FF1FB2
:103280003480044004D004400CB004400D4A38B5EA
:10329000146814F400624FF0000410D021280A4D85
:1032A0000AD80A4A012152F830302B60FEF7DAFAC8
:1032B0002B681C70012038BD2C60204638BD10469C
:1032C00038BD00BF348004409092FF1FA457000017
:1032D0000B4B1B6813F4006310D01728094B09D15E
:1032E000094A40F2023111605A7B42F001025A73DE
:1032F000012070475A7B02F0FE025A73002070478B
:103300003480044000B0064008B00440F8B51D4BBE
:103310001B681A05064633D51B4B1B680BB10122EF
:103320001A701A4B1C780134282C1F4628BF002421
:10333000174D2B78A34218D1FEF718FA40280FDC5E
:10334000144A13791B06F3D52B7813490133282B24
:1033500028BF0023C95CDBB2C9B2D1712B70E7E78B
:10336000FF28E5DDFFF7D8F8E2E70B4BF6B21E5574
:103370000A4B01221A70074BE4B2BC223C70DA708F
:10338000F8BD00BF348004400093FF1F0493FF1F6B
:10339000FF92FF1F00B006409692FF1F9492FF1FFE
:1033A000274B1B681A052DE9F04707468A4644D586
:1033B000244B1B680BB101221A703D4607EB0A0330
:1033C0009D4237D2DFF890801F4E98F8004096F863
:1033D00000900134282C28BF00245FFA89F9A14508
:1033E0001DD11A4BBC22DA70FEF7C0F940280FDC61
:1033F000164A13791B060FD5337815490133282B4C
:1034000028BF0023C95CDBB2C9B2D171337003E0BD
:10341000FF2801DDFFF780F833784B45E4D00C4BF3
:1034200015F8012B1A550B4B0122E4B21A7088F8DB
:103430000040C3E7054BBC22DA70BDE8F08700BF4F
:10344000348004400093FF1FFF92FF1F00B006402E
:103450009692FF1F9492FF1F0493FF1F08B5034B22
:103460001B7813B1FFF758F8F9E708BD9492FF1FD6
:10347000064A074B1B781078DBB2C0B283422CBFE0
:10348000273000F1FF30C01A704700BFFF92FF1FC6
:103490000493FF1F054B1878054B1B78C0B2DBB2B5
:1034A000984238BF4030C01A704700BFFE92FF1FDD
:1034B0009592FF1F10B5104B10491A780B78D2B2B5
:1034C000DBB29A4214D00133402B28BF00230C48B2
:1034D000DCB2C05C0C700B490968C0B251B19A42B1
:1034E00038BF4032D31A1A2B04DC00230B7010BDF6
:1034F0004FF0FF3010BD00BFFE92FF1F9592FF1FDF
:10350000BE92FF1F9092FF1F084B1A78084B1B7842
:10351000DBB29A4207D00133402B28BF0023054A73
:10352000D05CC0B270474FF0FF307047FE92FF1F73
:103530009592FF1FBE92FF1F0C4B1B681B0514D5F5
:103540000B4BDA7802F0CB02DA7040225A74DA7848
:1035500042F03402DA70074B1A78074BD2B21A7075
:10356000064B1B680BB100221A7070473480044070
:1035700000B006409592FF1FFE92FF1F9092FF1F22
:1035800030B5374B1A7912F0300F31D072B69A7DC0
:1035900002F0FF0022B9DA7940225A7462B627E0BD
:1035A00062B6304A304913780978DBB2C9B21446A2
:1035B0002B4AD5795A1C402A28BF00228A42EDB2F4
:1035C00002D02A4B9D541346421E12F0FF00EFD149
:1035D000DAB22270264A126852B18B4236BFC1F16C
:1035E0004001C1EB03035B18272BC4BF01231370F9
:1035F0001B4BD978C9B20C0620D51B7918061DD5EE
:103600001C4B1D4A1D781378EDB2DBB21046AB425D
:103610000CD0134A0133282B1479184C28BF0023EF
:10362000E45CE4B2D471127D072AF0D9DBB20370F6
:103630000B4B1A79120644BF7C22DA704B060ED56A
:10364000074B1A7912F0400F194608D00C4B002294
:103650001A700C4B1B6803B11A703C23CB7030BD41
:1036600000B00640FE92FF1F9592FF1FBE92FF1F03
:103670009092FF1F0493FF1FFF92FF1F9692FF1F60
:103680009492FF1F0093FF1F174B1A6842F4805259
:103690001A60164A00231370154A1370154A1370E6
:1036A000154A1370154A1370154A40F21331116010
:1036B0004FF451715160134AC0F344311170C0F39B
:1036C000471100F01F0051709072937013742C23F7
:1036D000D3700D4B40226FF44B711A700B444FF4B2
:1036E00000321A60704700BF348004407693FF1F99
:1036F0000D93FF1F7C93FF1F7793FF1F0C93FF1FFA
:1037000008C0044000C0064031E400E0134A93784A
:1037100000F0030103F0EC030B43410748BF43F003
:103720001003937000F00F03042B0C4903D18B7925
:1037300043F040038B715379C20603F0EF03074A4D
:1037400048BF43F0100353719379810603F0EF03F0
:1037500048BF43F010039371704700BF00C006409C
:1037600008B5114B1B68DB0400D408BD0F4B1A7859
:1037700002F0FF0312B1FEF7CFFEF7E70C4A4FF459
:10378000003111600B4A0C49D37040F203120A60F9
:103790004A600A4A13700A4A13700A4B1B680BB13D
:1037A00001221A7008BD00BF348004400C93FF1F33
:1037B00084E100E000C0064008C004407693FF1F8B
:1037C0000D93FF1F0893FF1F38B50446094B1B7864
:1037D00003F0FF05002BF9D120460121FEF742F846
:1037E00020462946FEF71EF8034B53F83420034BBE
:1037F0001A6038BD0C93FF1FA45700007893FF1F79
:1038000010B509B140F080000E4A1378984217D0E5
:103810000D4C2468E40412D503F07F03082B02D179
:103820000A4B00241C60002900F07F030CBF4421D8
:103830006021082B03D1054B41F4407119601070D1
:1038400010BD00BF8189FF1F348004400CC00440BC
:103850007047FFFF0D4A38B5146814F480524FF0DA
:10386000000410D021280A4D0AD80A4A012152F832
:1038700030302B60FDF7F6FF2B681C70012038BD3F
:103880002C60204638BD104638BD00BF348004404F
:103890000893FF1FA45700000B4B1B6813F48053C1
:1038A00010D00E28094B09D1094A40F202311160AB
:1038B0005A7B42F001025A73012070475A7B02F092
:1038C000FE025A73002070473480044000C0064056
:1038D00004C00440F8B51D4B1B68DA04064633D516
:1038E0001B4B1B680BB101221A701A4B1C78013458
:1038F000282C1F4628BF0024174D2B78A34218D12F
:10390000FDF734FF40280FDC144A13791B06F3D56A
:103910002B7813490133282B28BF0023C95CDBB265
:10392000C9B2D1712B70E7E7FF28E5DDFEF7F4FDA2
:10393000E2E70B4BF6B21E550A4B01221A70074BF9
:10394000E4B2AC223C70DA70F8BD00BF34800440B1
:103950007893FF1F7C93FF1F7793FF1F00C00640E3
:103960000E93FF1F0C93FF1F38B504464518AC4259
:1039700004D014F8010BFFF7ADFFF8E738BDFFFFE7
:1039800008B5034B1B7813B1FEF7C6FDF9E708BD78
:103990000C93FF1F064A074B1B781078DBB2C0B2AE
:1039A00083422CBF273000F1FF30C01A704700BFA0
:1039B0007793FF1F7C93FF1F054B1878054B1B78EF
:1039C000C0B2DBB2984238BF4030C01A704700BF67
:1039D0007693FF1F0D93FF1F10B5104B10491A78F7
:1039E0000B78D2B2DBB29A4214D00133402B28BFFD
:1039F00000230C48DCB2C05C0C700B490968C0B2F3
:103A000051B19A4238BF4032D31A1A2B04DC00233A
:103A10000B7010BD4FF0FF3010BD00BF7693FF1F3D
:103A20000D93FF1F3693FF1F0893FF1F084B1A7853
:103A3000084B1B78DBB29A4207D00133402B28BFDA
:103A40000023054AD05CC0B270474FF0FF3070478A
:103A50007693FF1F0D93FF1F3693FF1F054B1A78B8
:103A6000054BD2B21A70054B1B680BB100221A70BD
:103A7000704700BF0D93FF1F7693FF1F0893FF1F32
:103A800010B5294B1A79920620D5284AD87913788F
:103A900027490133402B097828BF00238B42C0B24D
:103AA00003D02449C854D9B21170234A116869B1AE
:103AB000224A1278D2B2934236BFC2F14002C2EB20
:103AC00003039B18272BC4BF01230B70164AD17820
:103AD000C9B20C0616D51379180613D5184B17481A
:103AE0001C780378DBB29C4202D16C23D37009E0CE
:103AF0000133282B28BF0023124CE45CDBB2E4B274
:103B0000D47103704B060ED5074B1A7912F0400F93
:103B1000194608D00C4B00221A700C4B1B6803B1DD
:103B20001A702C23CB7010BD00C006407693FF1F87
:103B30000D93FF1F3693FF1F0893FF1F7793FF1FFF
:103B40007C93FF1F0E93FF1F0C93FF1F7893FF1FA3
:103B50001FB572B6154B70221A70154A41211170AB
:103B60000F2102F8011C80221A701A781206FCD567
:103B7000104B186862B6104B984298BF0A2301ACEC
:103B800098BF584321460A22FDF716FE0023E15C48
:103B90000A4A29B102EB430001330A2B4180F6D1D6
:103BA00001335B00137004B010BD00BF0000024081
:103BB00007000240080002407F9698000A8AFF1F13
:103BC00008B5024B1B68984708BD00BF9C93FF1FB8
:103BD00030B51A491A4B0A791A701A481A4B0C68F0
:103BE0001A780378E48A13FA84F33F2BD2B288BFA1
:103BF000403B9A420446154812D093424FF00105CB
:103C000088BF40320570D01A72B60A680979D58A21
:103C100080B2D082D58BD0830D4A117062B605E098
:103C2000002202700B4A4FF4804111600A4A126868
:103C30000AB100211170DBB2237030BD9093FF1FD9
:103C40001F800040B093FF1F8E93FF1FA493FF1FA0
:103C50001B80004004E200E0A093FF1F08B5024B68
:103C60001B68984708BD00BF9893FF1F10B5044616
:103C700001F06AFB204610BD10B5184B1A79184B9D
:103C80001A70184A1378013303F03F03D9B2117048
:103C9000154A1168154A1468621C154A0FD0154858
:103CA0000078C0B2834236BFC0F14000C0EB0300D1
:103CB000C01880B2A04208DA4C1C02D109E0481CAE
:103CC00003D00D48C35C8B4203D10C4B4FF4005121
:103CD0001960136801221A6010BD00BFA893FF1F6E
:103CE0001F800040A693FF1F8893FF1F8093FF1F34
:103CF0008493FF1FA593FF1F0084FF1F04E200E0D1
:103D00002DE9F84F834B01221A60834B40F21334A4
:103D10001C604FF451745C60804BC1F344341C70E0
:103D2000C1F3471401F01F015C7099720021997072
:103D30000221D9745A7588221A74AC22DA70A02232
:103D4000DA72427B1AB19A7842F080029A70744F0C
:103D5000DFF804B23B68DFF804A21A69C3F810B0B8
:103D60001A683979C3F800A04026DA8BDE83DA8A34
:103D7000DFF8EC816B48DE8201F11002002401259E
:103D80004FF030091C755C759C711C765C769C76D6
:103D9000DC761D715C711D725C729C72DC721C732E
:103DA0005C739C73DC7383F8079048F822004A1117
:103DB000920002F1604202F5614201F01F0105FA32
:103DC00001F111609A8B998B92B242F002029A83B0
:103DD0009A8B998B544992B242F008029A833B79AC
:103DE00003F1804303F5043383221C702E201A70E4
:103DF000FDF700FD4D4B4E48C0221A704FF4804332
:103E000003603B7903F1604303F564431E703B7923
:103E100003F1604303F564431A78464B1A80464A1F
:103E200013681968C3F800B0AAF13F011F6919614E
:103E3000D98BDE831C715C71DC711C735C739C73A9
:103E4000DC731D755C751D725C729C72DC721C7675
:103E50005C769C76DC76D98A83F80690DE821679C9
:103E6000364F06F1100148F821707111890001F1F7
:103E7000604101F5614106F01F06B5400D60998B68
:103E80009D8B89B241F002019983137903F180433C
:103E900003F5043305461C7036231446284A11786E
:103EA000994233D0274901328A42F8D1227902F16E
:103EB000804202F5043263F07F03DBB21370237992
:103EC000214903F1804303F5043300221A70822252
:103ED0001A702D20FDF78EFC1C4BC0221A704FF477
:103EE00000532B60237903F1604303F564434022C0
:103EF0001A702368164A03F1160111600122C3F8F3
:103F00001620144B22791A70BDE8F88F0133402B2C
:103F1000C4D1D4E7A806904240A0044000A00640C7
:103F20009093FF1FD13B0000C13B00002EE400E056
:103F300004E100E08C93FF1FA893FF1F793C000071
:103F400000100240101002405D3C00002DE400E033
:103F50008493FF1F1B80004007A006404084FF1F82
:103F60000082FF1F134A937801F0030003F0EC0373
:103F70000343480748BF43F01003937001F00F0359
:103F8000042B0C4803D1837943F0400383715379A8
:103F9000084A03F0EF03C80648BF43F0100353710B
:103FA0009379890603F0EF0348BF43F01003937140
:103FB000704700BF00A00640134B1B68990710B55F
:103FC00004461FD5114B1B689A071BD5104B1B6865
:103FD0005B0517D50F492D20FDF70CFC2368204603
:103FE0005B6998471420FDF79BFC0B4A0B480023A4
:103FF00040F20311D37001604160D372084A13701C
:10400000084A137010BD00BF408004403C8004404B
:1040100034800440C52E000000A0064040A00440AB
:10402000B093FF1F8E93FF1F38B50C460A4B1B78C9
:1040300003F0FF0513B1FEF76FFAF7E72046012101
:10404000FDF710FC20462946FDF7ECFB034B53F827
:104050003420034B1A6038BDA493FF1FA4570000FF
:10406000A093FF1F08B5FEF757FA064B1A78064BC8
:104070001B789A42F7D1054B1B7813B1FEF74CFA27
:10408000F9E708BD8E93FF1FB093FF1FA493FF1F96
:10409000064A074B1B781078DBB2C0B283422CBFB4
:1040A0003F3000F1FF30C01A704700BFB093FF1FD0
:1040B0008E93FF1F2DE9F047DFF88480154698F8AE
:1040C00000600F46FFF7E4FFF6B2A84238BF05468E
:1040D000AC193F2CC246DFF86C800DD9C6F14009FF
:1040E00039464A46403C08EB060000F00BFF4046CC
:1040F00007EB0901224603E008EB060039462A4691
:1041000000F000FFE4B20B4B8AF800401A786AB95D
:1041100001221A7072B6084A13681279D88AA9B2B5
:10412000D982D88BD983054B1A7062B62846BDE870
:10413000F08700BFA493FF1F9093FF1F1B800040D8
:104140008E93FF1F4084FF1F07B502AB012243F887
:10415000041D1946FFF7AEFF03B05DF804FBFFFF37
:10416000054B1878054B1B78C0B2DBB2984238BFBC
:104170004030C01A704700BFA693FF1FA593FF1FD2
:10418000084B1978084B1A78D2B2914207D0013205
:1041900002F03F020549885CD2B21A7070474FF0B6
:1041A000FF307047A693FF1FA593FF1F0084FF1FDA
:1041B000084B1A78084B1B78DBB29A4206D00133C1
:1041C00003F03F03054AD05CC0B270474FF0FF30A8
:1041D000704700BFA693FF1FA593FF1F0084FF1F1A
:1041E000024B1A78024BD2B21A707047A693FF1F87
:1041F000A593FF1F70B50C4E0C4D0D4C30460021A1
:1042000001F04EF830460B4E2246294601F0B6F832
:104210003046002101F044F8304629462246BDE8E8
:10422000704001F0ABB800BF9093FF1F6D3C0000E1
:104230006089FF1FA893FF1F08B5024B1B689847B2
:1042400008BD00BFE493FF1F30B51A491A4B0A7925
:104250001A701A481A4B0C681A780378E48A13FA11
:1042600084F33F2BD2B288BF403B9A4204461548A4
:1042700012D093424FF0010588BF40320570D01A2A
:1042800072B60A680979D58A80B2D082D58BD0837C
:104290000D4A117062B605E0002202700B4A4FF41D
:1042A000803111600A4A12680AB100211170DBB234
:1042B000237030BDD493FF1F1F800040EC93FF1F7D
:1042C000C293FF1FD093FF1F1B80004004E200E059
:1042D000CC93FF1F08B5024B1B68984708BD00BF71
:1042E000E093FF1F10B5184B1A79184B1A70184A33
:1042F0001378013303F03F03D9B21170154A1168E6
:10430000154A1468621C154A0FD015480078C0B2CF
:10431000834236BFC0F14000C0EB0300C01880B23A
:10432000A04208DA4C1C02D109E0481C03D00D4819
:10433000C35C8B4203D10C4B4FF4004119601368EE
:1043400001221A6010BD00BFB893FF1F1F800040FC
:10435000DC93FF1FC493FF1FB493FF1FE893FF1F5D
:10436000C893FF1F8084FF1F04E200E02DE9F84F8F
:10437000834B01221A60834B40F213341C604FF4CC
:1043800051745C60804BC1F344341C70C1F347141A
:1043900001F01F015C709972002199700221D9749B
:1043A0005A7588221A74AC22DA70A022DA72427B23
:1043B0001AB19A7842F080029A70744FDFF804B212
:1043C0003B68DFF804A21A69C3F810B01A6839799B
:1043D000C3F800A04026DA8BDE83DA8ADFF8EC919E
:1043E0006B48DE8201F11002002401254FF03008F5
:1043F0001C755C759C711C765C769C76DC761D71F8
:104400005C711D725C729C72DC721C735C739C73B9
:10441000DC7383F8078049F822004A11920002F108
:10442000604202F5614201F01F0105FA01F11160DD
:104430009A8B998B92B242F002029A839A8B998B53
:10444000544992B242F008029A833B7903F18043C7
:1044500003F5043385221C7040461A70FDF7CAF933
:104460004D4B4E48C0221A704FF4803303603B79A5
:1044700003F1604303F564431E703B7903F160432D
:1044800003F564431A78464B1A80464A1368196844
:10449000C3F800B0AAF13F011F691961D98BDE830F
:1044A0001C715C71DC711C735C739C73DC731D7517
:1044B0005C751D725C729C72DC721C765C769C76FC
:1044C000DC76D98A83F80680DE821679364F06F1CB
:1044D000100149F821707111890001F1604101F565
:1044E000614106F01F06B5400D60998B9D8B89B226
:1044F00041F002019983137903F1804303F50433FA
:1045000005461C7036231446284A1178994233D048
:10451000274901328A42F8D1227902F1804202F51C
:10452000043263F07F03DBB213702379214903F176
:10453000804303F5043300221A7084221A702F205E
:10454000FDF758F91C4BC0221A704FF400432B6042
:10455000237903F1604303F5644340221A70236812
:10456000164A03F1160111600122C3F81620144BFC
:1045700022791A70BDE8F88F0133402BC4D1D4E7FB
:10458000AC0690420CB0044000B00640D493FF1F2C
:10459000494200003942000030E400E004E100E05C
:1045A000C093FF1FB893FF1FE542000000100240B8
:1045B00010100240D54200002FE400E0E893FF1FF6
:1045C0001B80004007B00640C084FF1F0082FF1F11
:1045D000134A937801F0030003F0EC030343480708
:1045E00048BF43F01003937001F00F03042B0C48F5
:1045F00003D1837943F0400383715379084A03F070
:10460000EF03C80648BF43F010035371937989063E
:1046100003F0EF0348BF43F010039371704700BFEE
:1046200000B00640134B1B68990710B504461FD510
:10463000114B1B689A071BD5104B1B681B0517D520
:104640000F492F20FDF7D6F8236820465B6998476D
:104650001420FDF765F90B4A0B48002340F20311C3
:10466000D37001604160D372084A1370084A137016
:1046700010BD00BF408004403C80044034800440B2
:104680008135000000B006400CB00440EC93FF1FE1
:10469000C293FF1F38B50C460A4B1B7803F0FF0589
:1046A00013B1FDF739FFF7E720460121FDF7DAF8EE
:1046B00020462946FDF7B6F8034B53F83420034B48
:1046C0001A6038BDD093FF1FA4570000CC93FF1F82
:1046D00008B5FDF721FF064B1A78064B1B789A4266
:1046E000F7D1054B1B7813B1FDF716FFF9E708BDAD
:1046F000C293FF1FEC93FF1FD093FF1F064A074B87
:104700001B781078DBB2C0B283422CBF3F3000F17F
:10471000FF30C01A704700BFEC93FF1FC293FF1F0A
:104720002DE9F0471D4F91463D780E46FFF7E6FF15
:10473000EDB2484534BF8046C84608EB05043F2C1F
:10474000BA46174F0CD9C5F1400931464A46403C9C
:10475000781900F0D7FB384606EB0901224602E043
:10476000781931464A4600F0CDFBE4B20D4B8AF889
:1047700000401A7882B901221A7072B60A4A136888
:104780001279D98A1FFA88F8A3F81680D98BA3F872
:104790001E80064B1A7062B6BDE8F087C293FF1FF9
:1047A000C084FF1FD093FF1FD493FF1F1B800040C6
:1047B00007B502AB012243F8041D1946FFF7B0FF0D
:1047C00003B05DF804FBFFFF054B1878054B1B7821
:1047D000C0B2DBB2984238BF4030C01A704700BF49
:1047E000DC93FF1FC893FF1F084B1978084B1A78FA
:1047F000D2B2914207D0013202F03F020549885CF3
:10480000D2B21A7070474FF0FF307047DC93FF1F31
:10481000C893FF1F8084FF1F084B1A78084B1B7832
:10482000DBB29A4206D0013303F03F03054AD05C65
:10483000C0B270474FF0FF30704700BFDC93FF1FDE
:10484000C893FF1F8084FF1F024B1A78024BD2B21D
:104850001A707047DC93FF1FC893FF1F70B50C4E92
:104860000C4D0D4C3046002100F01AFD30460B4E29
:104870002246294600F082FD3046002100F010FD5E
:10488000304629462246BDE8704000F077BD00BFA3
:10489000D493FF1F6D3C00006089FF1FB893FF1F7A
:1048A00008B5024B1B68984708BD00BFF893FF1F6F
:1048B00030B51A491A4B0A791A701A481A4B0C6803
:1048C0001A780378E48A13FA84F37F2BD2B288BF74
:1048D000803B9A420446154812D093424FF001059E
:1048E00088BF80320570D01A72B60A680979D58AF5
:1048F00080B2D082D58BD0830D4A117062B605E0AC
:10490000002202700B4A4FF4802111600A4A12689B
:104910000AB100211170DBB2237030BD2094FF1F5B
:104920001F8000400C94FF1F1494FF1F1594FF1F5D
:104930001B80004004E200E01894FF1F08B5024B02
:104940001B68984708BD00BFF493FF1F10B5184BB4
:104950001A79184B1A70184A1378013303F07F0341
:10496000D9B21170154A1168154A1468621C154AAB
:104970000FD015480078C0B2834236BFC0F1800026
:10498000C0EB0300C01880B2A04208DA4C1C02D170
:1049900009E0481C03D00D48C35C8B4203D10C4B8B
:1049A0004FF400311960136801221A6010BD00BF76
:1049B0000094FF1F1F8000401C94FF1FFC93FF1FEB
:1049C0001094FF1FF093FF1F0894FF1F0085FF1F27
:1049D00004E200E02DE9F84F824B01221A60824B7D
:1049E00040F213321A604FF451725A607F4BC1F398
:1049F00044321A70C1F347125A7001F01F010022AD
:104A000099729A701A74AC22DA70A022DA72427B20
:104A10001AB19A7842F080029A70754EDFF808B2A7
:104A20003368DFF808A21A69C3F810B01A68317940
:104A3000C3F800A08027DA8BDF83DA8ADFF8F08101
:104A40006C48DF8201F11002002401254FF0380983
:104A50001C755C759C711C765C769C76DC761D7191
:104A60005C711D725C729C72DC721C735C739C7353
:104A7000DC7383F8079048F822004A11920002F193
:104A8000604202F5614201F01F0105FA01F1116077
:104A90009A8B998B92B242F002029A839A8B998BED
:104AA000554992B242F008029A83337903F1804368
:104AB00003F5043387221C7032201A70FCF79AFE2B
:104AC0004E4B4F48C0221A704FF480230360337955
:104AD00003F1604303F5644340221A70337903F114
:104AE000604303F564431A78464B1A80464A1368BC
:104AF0001968C3F800B0AAF17F011E691961D98B4A
:104B0000DF831C715C71DC711C735C739C73DC73E0
:104B10001D755C751D725C729C72DC721C765C7615
:104B20009C76DC76D98A83F80690DF821679374F37
:104B300006F1100148F821707111890001F16041FE
:104B400001F5614106F01F06B5400D60998B9D8B04
:104B500089B241F002019983137903F1804303F58F
:104B6000043305461C7036231446294A11789942AD
:104B700033D0284901328A42F8D1227902F18042A9
:104B800002F5043263F07F03DBB21370237922490C
:104B900003F1804303F5043300221A7086221A7051
:104BA0003120FCF727FE1D4BC0221A704FF4003352
:104BB0002B60237903F1604303F5644340221A70AC
:104BC0002368174A03F1160111600122C3F8162069
:104BD000144B22791A70BDE8F88F0133402BC4D1F1
:104BE000D4E700BFB006904208C0044000C00640B1
:104BF0002094FF1FB1480000A148000032E400E00B
:104C000004E100E00A94FF1F0094FF1F4D490000DB
:104C100000100240101002403D49000031E400E065
:104C2000F093FF1F1B80004007C006408085FF1FD8
:104C30000082FF1F134A937801F0030003F0EC0396
:104C40000343480748BF43F01003937001F00F037C
:104C5000042B0C4803D1837943F0400383715379CB
:104C6000084A03F0EF03C80648BF43F0100353712E
:104C70009379890603F0EF0348BF43F01003937163
:104C8000704700BF00C00640134B1B68990710B562
:104C900004461FD5114B1B689A071BD5104B1B6888
:104CA000DB0417D50F493120FCF7A4FD236820460B
:104CB0005B6998471420FCF733FE0B4A0B4800232E
:104CC00040F20311D37001604160D372084A13703F
:104CD000084A137010BD00BF408004403C8004406F
:104CE00034800440813A000000C0064008C00440FF
:104CF0000C94FF1F1494FF1F38B50C460A4B1B7809
:104D000003F0FF0513B1FDF707FCF7E7204601218B
:104D1000FCF7A8FD20462946FCF784FD034B53F819
:104D20003420034B1A6038BD1594FF1FA4570000B0
:104D30001894FF1F08B5FDF7EFFB064B1A78064BDA
:104D40001B789A42F7D1054B1B7813B1FDF7E4FBB2
:104D5000F9E708BD1494FF1F0C94FF1F1594FF1F63
:104D6000064A074B1B781078DBB2C0B283422CBFD7
:104D70007F3000F1FF30C01A704700BF0C94FF1F56
:104D80001494FF1F2DE9F0471D4F91463D780E46C4
:104D9000FFF7E6FFEDB2484534BF8046C84608EB52
:104DA00005047F2CBA46174F0CD9C5F1800931464E
:104DB0004A46803C781900F0A5F8384606EB090110
:104DC000224602E0781931464A4600F09BF8E4B2E8
:104DD0000D4B8AF800401A7882B901221A7072B617
:104DE0000A4A13681279D98A1FFA88F8A3F816803C
:104DF000D98BA3F81E80064B1A7062B6BDE8F08707
:104E00001494FF1F8085FF1F1594FF1F2094FF1F20
:104E10001B80004007B502AB012243F8041D194670
:104E2000FFF7B0FF03B05DF804FBFFFF054B1878F8
:104E3000054B1B78C0B2DBB2984238BF8030C01A35
:104E4000704700BF1C94FF1F0894FF1F084B197880
:104E5000084B1A78D2B2914207D0013202F07F0299
:104E60000549885CD2B21A7070474FF0FF30704726
:104E70001C94FF1F0894FF1F0085FF1F084B1A7822
:104E8000084B1B78DBB29A4206D0013303F07F0354
:104E9000054AD05CC0B270474FF0FF30704700BF8A
:104EA0001C94FF1F0894FF1F0085FF1F024B1A78F8
:104EB000024BD2B21A7070471C94FF1F0894FF1F58
:104EC00070B50C4E0C4D0D4C3046002100F0E8F949
:104ED00030460B4E2246294600F050FA304600215B
:104EE00000F0DEF9304629462246BDE8704000F069
:104EF00045BA00BF2094FF1F6D3C00006089FF1F72
:104F00000094FF1F072A2DE9F04302F1FF3200F160
:104F1000FF3501F1FF3424D8062A00F2BF81DFE813
:104F200002F01C1814100C0804000B7803700C46D7
:104F3000054663786B700134013563786B7001341A
:104F4000013563786B700134013563786B7001341F
:104F5000013563786B700134013563786B70BDE89F
:104F6000F08305F003038118032BC5EB010104F165
:104F7000010304D01C461B7805F8013FF1E703F05C
:104F80000303022B4FEA910CA5F10305A4F10304DE
:104F900000F0AD80032B00F01181012B38D01CF004
:104FA000070F06D054F8043F45F8043F0CF1FF3CCE
:104FB000F5E74FEADC0C2A462346664616F1FF3633
:104FC00012D35F6857609F689760DF68D7601F697A
:104FD00017615F6957619F699761DF69D76153F80E
:104FE000207F42F8207FE9E74FEA4C1C01F00301E3
:104FF00065446444022905F1030304F1030200F04F
:105000004781032940F03D812B1D221D21793EE17E
:1050100024F0030425F0030554F8046F1CF0070F77
:1050200009D0330A54F8046F43EA066345F8043F95
:105030000CF1FF3CF2E74FEADC0C2B4622466746B8
:1050400017F1FF3739D3D2F804804FEA086949EAEB
:1050500016265E6096684FEA066949EA1828C3F882
:105060000880D2F80C804FEA086949EA1626DE600B
:1050700016694FEA066949EA1828C3F81080D2F881
:1050800014804FEA086949EA16265E6196694FEA7C
:10509000066949EA1828C3F81880D2F81C804FEA3C
:1050A000086949EA1626DE6152F8206F4FEA066960
:1050B00049EA182843F8208FC2E74FEA4C1C01F058
:1050C000030165440229644405F1030309D003295F
:1050D00003D0012940F0E28007E062782A712B1D9D
:1050E000013462785A70013401336278D5E024F0DB
:1050F000030425F0030554F8046F1CF0070F09D0D2
:10510000330C54F8046F43EA064345F8043F0CF1AE
:10511000FF3CF2E74FEADC0C2A462346674617F1CC
:10512000FF3739D3D3F804804FEA084949EA1646D5
:1051300056609E684FEA064949EA1848C2F8088056
:10514000D3F80C804FEA084949EA1646D6601E6932
:105150004FEA064949EA1848C2F81080D3F814808B
:105160004FEA084949EA164656619E694FEA0649E0
:1051700049EA1848C2F81880D3F81C804FEA084959
:1051800049EA1646D66153F8206F4FEA064949EAC4
:10519000184842F8208FC2E74FEA4C1C01F0030187
:1051A00065446444022905F1030304F101026FD050
:1051B000032966D12B1DA21CA17868E024F003040A
:1051C00025F0030554F8046F1CF0070F09D0330EC7
:1051D00054F8046F43EA062345F8043F0CF1FF3C02
:1051E000F2E74FEADC0C2A462346674617F1FF3701
:1051F00039D3D3F804804FEA082949EA1666566085
:105200009E684FEA062949EA1868C2F80880D3F870
:105210000C804FEA082949EA1666D6601E694FEAF3
:10522000062949EA1868C2F81080D3F814804FEABA
:10523000082949EA166656619E694FEA062949EA35
:105240001868C2F81880D3F81C804FEA082949EA88
:105250001666D66153F8206F4FEA062949EA1868A6
:1052600042F8208FC2E74FEA4C1C01F0030165446D
:105270006444022905F1030304F1020208D0032962
:1052800002D001290AD107E0E1782B1DE21C297127
:10529000517859700132013352785A70BDE8F08369
:1052A00030B572B6254C09B9026812B921880023BD
:1052B0000FE003790F2BF9D821881941C907F5D5DB
:1052C00003F1007303F59063B2EB431FEED162B6B6
:1052D00030BD41FA03F212F0010227D101259D40B1
:1052E0002943218062B6164CD9B20171256845F078
:1052F0000205256054F8045C03F1007345F00205D3
:1053000044F8045C03F590630E4C5B018225256034
:10531000A176A1772176E17703601A605A609A60DE
:10532000DA601A615A619A61DA6130BD0133102B7B
:10533000CFD162B600220260037130BD2894FF1FF6
:10534000408004400080004003790F2B10D8094AA8
:10535000137072B6084B0279012101FA02F2198822
:1053600021EA02021A8062B610230371002303604F
:10537000704700BF1A8000402894FF1F034608466C
:10538000194600F001B8FFFF70B5064C06460D4601
:1053900013462CB131462A460220AFF3008070BD7F
:1053A000204670BD0000000070B50E4B0E4DED1A8A
:1053B000AD1000241E46AC4204D056F8242090477D
:1053C0000134F8E700F07AFB084D094BED1AAD10F7
:1053D00000241E46AC4204D056F8242090470134E5
:1053E000F8E770BDC85A0000C85A0000EC5A000027
:1053F000C85A0000024B0146186800F04FB800BFC1
:10540000808AFF1F024B0146186800F003B800BFF6
:10541000808AFF1F30B500293CD051F8042C0B1FA7
:105420001D49002AB8BF9B180A680C4612B95A6079
:105430000B6030BD93420DD219685818904203D1C9
:105440005A581144426819605A60236030BD99422D
:1054500003D80A4651680029F9D1146815199D42EC
:105460000AD11B682344D0188842136012D10868FF
:10547000034413604B680CE002D90C23036030BD79
:1054800018681C188C4203D10C68496820441860C5
:105490005960536030BD00BF3094FF1F70B5CD1C04
:1054A00025F0030508350C2D38BF0C25002D0646C8
:1054B0003FDB8D423DD3214B1C6818462146A1B1EC
:1054C0000B685B1B0ED40B2B03D90B60CC18CD5093
:1054D0001FE08C4202D1626802601AE04B68636090
:1054E0000C4616E00C464968E9E7154C23681BB9E1
:1054F000304600F027F820602946304600F022F8B8
:10550000431C014615D0C41C24F0030484420AD174
:10551000256004F10B00231D20F00700C31A0BD0F7
:105520005A42E25070BD3046611A00F00BF801306B
:10553000EED10C233360002070BD00BF3094FF1FFC
:105540002C94FF1F38B5064C0023054608462360FF
:10555000FCF704F9431C02D1236803B12B6038BD6A
:105560004894FF1F034613F8012B002AFBD1181A99
:1055700001387047FFFFFFFF00000000000000003F
:105580000907000013070000F1060000F9060000FB
:10559000F5060000FD06000065050000710500002D
:1055A0007D0500008905000095050000A1050000AB
:1055B000B1060000D5060000E9060000ED06000077
:1055C00001070000050700002F0500003B05000053
:1055D00047050000530500005F05000017070000A5
:1055E0000000000000000000890700009307000091
:1055F0007107000079070000750700007D070000B3
:10560000E5050000F1050000FD05000009060000A9
:1056100015060000210600003107000055070000B4
:10562000690700006D070000810700008507000082
:10563000AF050000BB050000C7050000D305000052
:10564000DF050000970700000000000000000000D8
:105650000908000013080000F1070000F907000026
:10566000F5070000FD070000650600007106000058
:105670007D0600008906000095060000A1060000D6
:10568000B1070000D5070000E9070000ED070000A2
:1056900001080000050800002F0600003B0600007E
:1056A00047060000530600005F06000017080000D0
:1056B0004E6F205265706C792066726F6D203A00D3
:1056C00053656E64696E67206261636B20746869FC
:1056D00073204D65737361676520746F2055534265
:1056E000203A0052656365697665642061204D65E6
:1056F00073736167652066726F6D203A0050616355
:105700006B65742069733A00726F6C6C696E672008
:1057100061727261790051554555453A2063616E59
:10572000277420706F70206974656D2066726F6DCC
:105730002071756575653A207175657565206973A9
:1057400020656D7074792E00496E636F6D696E67A8
:105750002042797465732066726F6D205553420044
:10576000436F756C64206E6F742066696E6420747C
:1057700068697320536572766F2100506F7274737D
:10578000207363616E6E65642C2049644D617020E6
:105790006C6F6F6B73206C696B6520746869733A0A
:1057A00020000D0A4008FE4340A004404408FE4388
:1057B00044A004400018FE4300C004403000FE43F3
:1057C000309004403400FE43349004401C18FE43E3
:1057D0001CC004401018FE4310C004400818FE43CB
:1057E00008C004400C18FE430CC004400C10FE43DB
:1057F0000CB004401010FE4310B004401810FE43DB
:1058000018B004401C10FE431CB004401410FE43AA
:1058100014B004400418FE4304C004400010FE43CA
:1058200000B004400008FE4300A004400408FE430A
:1058300004A004400C08FE430CA004400808FE43EA
:1058400008A004401418FE4314C004401818FE4376
:1058500018C004400410FE4304B004400810FE4386
:1058600008B004401400FE43149004404C08FE436A
:105870004CA004400420FE4304D004402410FE4306
:1058800024B004402010FE4320B004402810FE4302
:1058900028B004402C10FE432CB004400020FE43EE
:1058A00000D004404808FE4348A004401000FE43D6
:1058B00010900440FFFFFFFF000000000000000008
:1058C0001122000017220000FD210000012200002B
:1058D00005220000092200000D2200000000000047
:1058E00000000000000000000D260000252600003A
:1058F000F5250000FD250000F92500000126000027
:10590000892500009D250000BD250000C12500005F
:10591000C7250000CD250000D5250000E5250000A5
:105920000526000009260000592500006525000015
:10593000712500007D250000352600001926000095
:1059400000000000000000002127000039270000AF
:1059500009270000112700000D270000152700006F
:105960009D260000B1260000D1260000D5260000AB
:10597000DB260000E1260000E9260000F9260000F1
:10598000192700001D2700006D2600007926000061
:105990008526000091260000492700002D270000E1
:1059A0000000000000000000352800004D28000025
:1059B0001D280000252800002128000029280000BB
:1059C000B1270000C5270000E5270000E9270000F7
:1059D000EF270000F5270000FD2700000D2800003C
:1059E0002D28000031280000812700008D270000AD
:1059F00099270000A52700005D280000412800002D
:105A000000151915000100008289FF1F1200000017
:105A100000020000AC89FF1F4300000000030000EB
:105A2000068AFF1F00000000010309049489FF1F7C
:105A30000000000002030904F089FF1F00000000BD
:105A4000030309040A8AFF1F000000000000000091
:105A500000000000000000004300FFFF0000000005
:105A60000000000000000000000000000000000036
:105A70000000000000000000000000000000000026
:105A80000000000000000000000000000000000016
:105A90000000000000000000000000000000000006
:105AA00000000000000000000000000000000000F6
:105AB000000000000000000000000000F8B500BF7A
:105AC000F8BC08BC9E46704735040000DD1200009B
:105AD00021220000512600006527000079280000DF
