:1000000000800020BD010000950B0000610B000086
:10001000610B0000610B0000610B0000610B000030
:10002000610B0000610B0000610B0000950B0000EC
:10003000950B0000610B0000950B0000510B0000B8
:10004000950B0000950B0000950B0000950B000030
:10005000950B0000950B0000950B0000950B000020
:10006000950B0000950B0000950B0000950B000010
:10007000950B0000950B0000950B0000950B000000
:10008000950B0000950B0000950B0000950B0000F0
:10009000950B0000950B0000950B0000950B0000E0
:1000A000950B0000950B0000950B0000950B0000D0
:1000B000950B0000950B0000950B0000950B0000C0
:1000C000950B0000950B0000950B0000950B0000B0
:1000D000950B0000950B0000950B0000950B0000A0
:1000E000950B0000950B0000950B0000950B000090
:1000F000950B0000F5220000950B0000B1290000CF
:10010000950B0000B12E0000950B0000950B000030
:10011000950B0000950B0000950B0000950B00005F
:10012000950B0000950B0000950B0000950B00004F
:10013000950B0000950B0000950B0000950B00003F
:10014000950B0000950B0000950B0000950B00002F
:10015000950B0000950B0000950B0000950B00001F
:10016000950B0000B10F0000950B0000950B0000EF
:10017000950B0000950B0000950B0000950B0000FF
:10018000950B0000950B0000950B0000950B0000EF
:10019000950B0000950B0000950B0000950B0000DF
:1001A000950B0000950B0000950B0000950B0000CF
:1001B000950B0000950B0000950B0000564B4CF280
:1001C000205210B51A804DF628121A8000BF00BFC9
:1001D00000F0E4FC514B4FF010621A60504A9A60F4
:1001E000504ADA60A3F53043203B1A6812F480725B
:1001F00004D14D490A604FF4A8521A604B4B1A784B
:10020000110703D51A7842F008021A70484B2A22C7
:100210001A700023474A48499818884204D247492F
:10022000595899500433F5E7454A464B9A424FF0E6
:10023000000302D242F8043BF7E74349434A5958C6
:1002400099500433B3F5DE7FF7D1414B802103F899
:10025000011B40498B42F9D13F4B1A603F4B8A2228
:100260001A70A3F5805324225A70A0221A709A792A
:100270009207FCD59A79D406FCD4394B9A7902F0CE
:100280000C02082AF9D105221A7143225A719A796F
:100290009006FCD5324B9A795106FBD5314A4FF086
:1002A000817111600521516020221A702C4B9B79BD
:1002B00003F00C030C2BF9D12B4B2C4A1A602C4B5E
:1002C0002C4A1A6000225A60072243F8042C2A4A5A
:1002D000C3F80C2D62B600F051FD134B1B68DA0712
:1002E00005D5264800F0A6FC254B264A1A60264B69
:1002F0001B785B0609D5224C224A2368934204D11D
:100300001E4800F097FC0023236004F065FA00F01B
:100310004BFC00F015FCFEE70E2005403080044049
:10032000823F04000100002B14D0034002D007409C
:1003300000E007406089FF1F108AFF1FE04C0000AB
:10034000108AFF1F1491FF1F000000000082FF1F92
:1003500000E400E05FE400E008ED00E0005006404B
:10036000004006404480044004800440C010050062
:1003700014E000E03F1901000000202036781758F3
:100380001CE00340A5C3945A00F00740FFFFFFFFA5
:10039000FFFFFFFFFFFFFFFFFFFFFFFFFFFFFFFF6D
:1003A000FFFFFFFFFFFFFFFFFFFFFFFFFFFFFFFF5D
:1003B000FFFFFFFFFFFFFFFFFFFFFFFFFFFFFFFF4D
:1003C000FFFFFFFFFFFFFFFFFFFFFFFFFFFFFFFF3D
:1003D000FFFFFFFFFFFFFFFFFFFFFFFFFFFFFFFF2D
:1003E000FFFFFFFFFFFFFFFFFFFFFFFFFFFFFFFF1D
:1003F000FFFFFFFFFFFFFFFFFFFFFFFFFFFFFFFF0D
:10040000FFFFFFFFFFFFFFFFFFFFFFFFDEF9FFFF23
:1004100010B5054C237833B9044B13B10448AFF33E
:1004200000800123237010BD108AFF1F0000000010
:10043000E04C000008B5064B1BB106480649AFF377
:1004400000800648036813B1054B03B1984708BD07
:1004500000000000E04C0000148AFF1F108AFF1FFC
:100460000000000083709DF80030C3709DF80430D8
:1004700003719DF80830017043717047704708B5EB
:100480000368C9B21B68984708BD08B50368C9B2BC
:100490001B68984708BD08B50368C9B21B68984730
:1004A00008BD08B50368C9B21B68984708BD00209D
:1004B0007047704708B50368C9B21B68984708BD04
:1004C00008B50368C9B21B68984708BD08B503683A
:1004D000C9B21B68984708BD08B50368C9B21B6854
:1004E000984708BD00207047704708B50368C9B237
:1004F0001B68984708BD08B50368C9B21B689847D0
:1005000008BD08B50368C9B21B68984708BD08B59F
:100510000368C9B21B68984708BD00207047704740
:1005200038B50C461146054602F034FF044901EB8C
:1005300054012846B1FBF4F1BDE8384002F0F8BDA3
:1005400000449508034B03EB5103B3FBF1F102F0B8
:10055000EFBD00BF0044950802F046BF02F07CBF2B
:1005600003F016B803F03CB803F022B802F092BFD3
:1005700003F04EB802F0A4BF08B502F0FDFF012061
:1005800008BD02F0AFBF38B5054608460C4604F07A
:1005900049F9214602462846BDE8384002F0A2BF8C
:1005A00038B50C461146054603F02AFA044901EB1A
:1005B00054012846B1FBF4F1BDE8384003F0EEB831
:1005C00000449508034B03EB5103B3FBF1F103F037
:1005D000E5B800BF0044950803F03CBA03F072BAD6
:1005E00003F00ABB03F030BB03F016BB03F088BA7C
:1005F00003F042BB03F09ABA08B503F0F1FA012008
:1006000008BD03F0A5BA38B5054608460C4604F007
:1006100009F9214602462846BDE8384003F098BA59
:1006200038B50C461146054603F01CFD044901EBA4
:1006300054012846B1FBF4F1BDE8384003F0E2BBB9
:1006400000449508034B03EB5103B3FBF1F103F0B6
:10065000D9BB00BF00A24A0403F02EBD03F064BD65
:1006600003F0FCBD03F022BE03F008BE03F07ABD28
:1006700003F034BE03F08CBD08B503F0E3FD0120A8
:1006800008BD03F097BD38B5054608460C4604F092
:10069000C9F8214602462846BDE8384003F08ABD25
:1006A00038B5044608460D4604F0BCF823680246F7
:1006B00029465B68204698470546204600F0F8F931
:1006C000284438BD08B502490248FFF7E9FF08BDD4
:1006D00028490000788EFF1F38B51D4802F058FFEA
:1006E000002834D01B4C1A48258802F061FFADB2B7
:1006F000194BC0B258552288013292B2228022880A
:1007000092B2032A25461C4621D91A78FF2A0DD118
:100710005A78FF2A0AD1114A01211170DA78104B58
:1007200004321A600F4B104A1A6038BD0F48104946
:10073000FFF7B6FF6378DBB22370A378DBB2637098
:10074000E378DBB2A3702B88013B9BB22B8038BDD2
:10075000588BFF1F3C8AFF1F888BFF1F6689FF1F76
:100760005490FF1F6C90FF1F8D070000788EFF1FB5
:100770004649000038B50A220023044600F0A8F9D3
:100780000546204600F094F9284438BD2DE9F04193
:100790003E483F49FFF784FF3E4B1A789846002AAF
:1007A0004CD03D4C39483D493D4DFFF779FF2388FA
:1007B0009BB2032B85BF3B4BDB78042304332B8098
:1007C000394802F0E5FEC8B122882B88324E92B239
:1007D0009BB29A4212D23448378802F0E9FEBFB287
:1007E000304BC0B2D8553288284892B2995CFFF796
:1007F000C1FF338801339BB23380E1E72288264B67
:100800002A4E92B2042A1ED9264FF9781A8803314B
:1008100092B2914217DA0422326000221A80244BED
:100820001B785BB123491948FFF73AFFB97817489D
:10083000FFF7A0FFBB78204A0121D1541F4B0122B2
:100840001A70BDE8F08123889BB2032B03D9154BA6
:10085000DB7804332B802A88238892B29BB2D31A88
:10086000336033683268002A01DD642BE6DD144909
:100870000648FFF715FF0023124A88F80030124996
:100880002380012311603360D8E700BF788EFF1FFB
:10089000544900006689FF1F3C8AFF1F6F49000012
:1008A0006489FF1F888BFF1F588BFF1F5490FF1F09
:1008B000588AFF1F77490000598AFF1F868DFF1F46
:1008C000884900006C90FF1FD906000038B50B4B1B
:1008D0000B4A1A600B4B0C4A0C4D1A600C4B01244E
:1008E000284690211C6002F023FC284602F090FE6E
:1008F00021460D20BDE8384000F0CCB97090FF1FB4
:10090000C50600006C90FF1F8D070000588BFF1F6D
:100910005490FF1F70B500F02BFF00B3104C11492D
:100920001148FFF7BDFE257800F0E0FE22780F4B5E
:100930000132D2B2062A5855227025461E46EAD9FF
:1009400009480B49FFF7ACFE0024315D064801342D
:10095000FFF710FF0023072C2B70F6D1DBE770BDEB
:10096000448AFF1FB0490000788EFF1F878CFF1F4D
:10097000D049000008B5FFF7CDFF0A20BDE80840C8
:1009800000F0E6B97FB50024242601258DE850004B
:1009900002952346022104222A48FFF763FD042121
:1009A0008DE8500002950A4623462748274E284DD9
:1009B000FFF758FD274B284A1A604FF47A71274AEF
:1009C0001C7199601C735C734FF0FF331360244AF1
:1009D00024481360244A026024480260244A2548BF
:1009E00010601471916014735473234A2348136088
:1009F000234A1360234A026023480260234A2448A2
:100A0000916024491160147114735473224A136065
:100A1000224A1360224A234B1360234A4460136026
:100A2000846031462A46C46003F0C0FE1F48314648
:100A30002A4644608460C46004B0BDE8704003F09E
:100A4000B5BE00BF3E8AFF1F878DFF1F1F05000038
:100A50006089FF1F588BFF1F404800005C90FF1FFC
:100A60005490FF1F7090FF1F7D0400006C90FF1FCB
:100A7000688BFF1F904800009890FF1FB890FF1FE1
:100A80008890FF1FB3040000B490FF1F488AFF1F27
:100A90002C8AFF1FE0480000D090FF1FE490FF1F4A
:100AA000CC90FF1FE9040000C890FF1F788BFF1F48
:100AB00007B5064B1B88ADF80430036801A95B68D5
:100AC0000222984703B05DF804FB00BFF84900001C
:100AD00070B505468AB022B90368C9B21B68984749
:100AE0002CE0012A08BF0A2221B930228DF82520E6
:100AF000212413E02124B1FBF2F002FB1011C9B252
:100B000009290AAE94BF303137312644C9B206F8FC
:100B1000241C014610B1013CE4B2ECE733B1013CC6
:100B2000E4B20AAB23442D2203F8242C2B6801A93C
:100B30005B6828462144C4F1220298470AB070BD80
:100B400008B5FFF7C3FEFFF715FF00F0FDFEFAE75B
:100B5000024B1A6801321A60704700BF908DFF1F68
:100B600008B50B4C2368580301D500F021FA23681F
:100B7000590501D501F0BEFB23681A0501D501F026
:100B800017FF2368DB04ECD502F092F9E9E700BF18
:100B90003480044008B5FFF7E3FFFFFF014B10224C
:100BA0001A807047002005407047FFFFEFF3138362
:100BB0009BB9EFF3108098B9EFF3058323B10F2BA6
:100BC00004D9084A985C01E04FF48070EFF3118378
:100BD0003BB1834238BF184670474FF0FF30704733
:100BE00018467047F0E300E010B50023B0FBF2F4C4
:100BF00002FB1400092894BF30303730C0B2C8540B
:100C000020460CB10133F1E7CA18547022469A42CB
:100C100006DA885CCC5C8C54C8540132013BF6E7A0
:100C2000084610BD1030024B43F82010704700BF3B
:100C30000082FF1F044B054900221A600A60044A23
:100C4000106010221A60704714D0034004D0034093
:100C500000D00340212810B518D80D4A52F8303082
:100C600093F880423CB1012211B183F8802010BD7D
:100C700083F8002110BD02EBC00043681A6811B16F
:100C800042F0030201E022F002021A6010BD00BF30
:100C9000FC490000212810B537D81C4A02EBC003DC
:100CA00001295B68144601D004290FD154F8302083
:100CB000012082F880024FF4A2721A601A68042997
:100CC0000CBF42F0200222F020021DE052F830203A
:100CD000002082F8800211B18A1E012A12D84FF436
:100CE000807202291A6003D11A6842F003020BE0F5
:100CF00003290AD11A6842F002021A601A6822F027
:100D0000010201E040F203121A6010BDFC4900002C
:100D100072B60C4B0C491A680C4B1B68096862B61A
:100D2000490102D5322A88BF0133C2F58C324821ED
:100D300002F23F12B2FBF1F24FF47A7000FB032093
:100D4000704700BF18E000E004ED00E0908DFF1F49
:100D500038B50446FFF7DCFF054624B938BD013C31
:100D60000AD005F57A75FFF7D3FF401BB0F57A7FFF
:100D7000F5D200F0E9FDF6E738BDFFFF204B4FF458
:100D8000000210B51A604FF080721A604FF00072C6
:100D90001A604FF080621A604FF000621A60194BBF
:100DA000194A1A4C002048F6FF7118605960282330
:100DB000136093601361936113629362136393638F
:100DC0000922226004F58054043420606160A3602D
:100DD000236144F8042C04F5FE2420600C480160D3
:100DE0000C490B608B600C4B1A6000F06BFF4FF4EA
:100DF000C870FFF7ADFFBDE8104000F0D7BB00BFE3
:100E000008E100E0048003400C80034000800340C0
:100E100008800B400C800B4000800B40F0B50C4B61
:100E20000C4C1A7842F0020504EBC50682F0010270
:100E3000706009481A700678002E0CBF8827C827F2
:100E400086F0010647EA0141067044F83510F0BD0E
:100E5000FC8DFF1F0080FF1F748EFF1F431E032B9E
:100E600010B510D872B6094A52F8230048B141684B
:100E700042F82310064A018832F81340611A22F81A
:100E8000131062B610BD002010BD00BFEC8DFF1F17
:100E9000FE90FF1F013803280AD872B6054B53F89D
:100EA0002030002013B101305B68FBE762B6704769
:100EB00000207047408EFF1F10B572B60123174AFD
:100EC0001A4412F8012C12071CD59900144A52F842
:100ED00031402CB902EB431308305860114B09E044
:100EE00041F0010152F8314064B902EBC10308300E
:100EF00058600D4B42F831300C4B1A78013A1A7099
:100F000062B610BD0133052BD9D162B6074B002262
:100F10001A70BDE8104000F0C7BB00BF584C00007D
:100F20000080FF1F88004000C80040006A8EFF1F3D
:100F3000431E032B30B532D8194A400140F010004F
:100F4000104472B6174CE25C032A09D8DFE802F0BD
:100F5000160218050830022213E00830042210E0BF
:100F60001148124A50F8234014B940F8231002E007
:100F700052F82300416042F823100FE0032200E002
:100F80000522E25410F0080F01F108030A884360BB
:100F90000CBF8823C82343EA0243036062B630BD16
:100FA0000080FF1FA88DFF1F408EFF1F508EFF1F68
:100FB0002DE9F84FAB4F3C78E4B214F0040F3D46F6
:100FC00019D0A94B1B78A3B1A84A117801F0FF03EF
:100FD00021B1013BDBB2137003B900BEA44A117802
:100FE00001F0FF0329B1013BDBB213700BB900F034
:100FF00087FC04233B7004F0080303F0FF02002B7E
:1010000000F067829B4B9C4C1A78D2B215094FEACC
:10101000920840F0E48104EBC803596854F8383072
:10102000C3F38303013B0C2B00F2D681DFE813F0FE
:1010300095019501D401D401D401D401D401D40186
:10104000B001D401D401D4010D008C4D0A684B6865
:101050008B486B6001218B4B44F838302A60DFF8F5
:101060005082017092B240F2816000238242C8F83F
:1010700000302361A36117D8B2F5D06F80F01E81D4
:10108000B2F5817F00F0CF8006D8802A00F0BA80C8
:10109000822A00F0BB8031E140F202339A4200F034
:1010A000D180B2F5A06F1CE042F22100824200F034
:1010B00051810ED8B2F5086F00F09E80B2F5106F26
:1010C00040F01C81684B6C4EAA781A7006F18009BA
:1010D0000AE042F221218A4200F0088142F22133E3
:1010E0009A4200F00F8109E1336A1B0603D5706A4A
:1010F000083800F0D9FA08364E45F5D10026B14639
:10110000DFF8B0A156F80A0028B1D0F804B000F01A
:10111000CBFA5846F8E74AF806005B4BDFF898A18F
:10112000F05056F80A0028B1D0F804B000F0BCFA2C
:101130005846F8E7554B4AF80600F050544B23F850
:101140001900544B19F80320023A032A08D8DFE8A3
:1011500002F002040204002200E0012203F8092048
:1011600009F10109B9F1040F06F10406C8D14A4B8F
:1011700000221A7001269A46484A494B32443344A9
:1011800012F8012C9B0012F0080F1A704FEA860922
:1011900025D000F06BFA38B104EB461308305860E4
:1011A000404B44F8393006E09AF8003044F83900F2
:1011B00001338AF8003000F059FA49F0010338B1E0
:1011C00004EBC302083050602E4A44F8332006E096
:1011D00044F833009AF8003001338AF8003049F0BF
:1011E0000202013649F003090023052E44F832308B
:1011F00044F83930C0D186E01B4B2B4C1B78237050
:101200000B4683E0284C237063707EE0AA88042A92
:1012100074D8254C920023706370244B9B5C9E070E
:1012200073D5217071E0AA8802F07F02042A65DC80
:101230006B88002B62D191001C4A0A44117821F07E
:10124000020159E0AA8802F07F02042A56DC6B886A
:10125000002B53D19100154A0A44117841F0020144
:101260004AE000BF80200740738EFF1FFD8DFF1FE7
:10127000888EFF1F902007400080FF1F608EFF1F99
:10128000748EFF1FC8004000988DFF1F508EFF1FF7
:10129000FE90FF1FA88DFF1F6A8EFF1F584C000095
:1012A00030C80110880040006B8EFF1FC02007402F
:1012B000948DFF1FEC8DFF1F408EFF1F6A88A98849
:1012C0009F4B53F8084CA3F10C00BCB133F80C6CE5
:1012D000964209D133F80A6C8E4205D1120A032ACC
:1012E0000CBF2378038911E00C33EAE7954A1168B3
:1012F000954A1160A978954A117004E0944B0F2229
:101300001A7027E000231C4600E00223EE88B34257
:1013100038BF1E46402E34BF35464025204629465C
:10132000FFF77CFD761B2C4403D1402D12D13546AE
:1013300003E0402E34BF3546402520462946FFF7BE
:101340006DFD761B2C4401D1402D03D1814AC8F894
:10135000004016800122804B3DE0804B1A8842F20B
:1013600021039A4210D100237D4AC85C985401336E
:10137000072BF9D11368862B02D17A4B0F221A70F2
:1013800000200146FFF74AFD774B44F8383023E050
:10139000764E3568B5B1DFF8BC81B8F80090B9F188
:1013A000400F34BF4C46402428462146FFF736FD07
:1013B000C4EB09039BB2A8F800300BB9402C00D154
:1013C0002B193360654B1A88B2F5A06F04D1002247
:1013D0005A709A78664B1A7001225F4B6CE004EBEE
:1013E000C806013D736802F00802A3F10800EDB2DF
:1013F00002F0FF01002A36D000F056F95D485E4B3E
:1014000050F82520EAB1516840F8251002F1080192
:101410007160595D03290BD8DFE801F0020406086A
:10142000032104E0022102E0052100E004215955D6
:1014300016F0080F12880CBF8823C82343EA024322
:1014400042E05A5D032A07D8DFE802F04040020478
:10145000002206E0012204E016F0080F0CBF022271
:1014600003225A5532E054F83820120C23F8082C85
:1014700022B3DFF834E123F8061C43F8041C5EF8BD
:1014800025303E4913B94EF8250002E051F82530C9
:1014900058603B4B41F8250033F815100A4423F8F7
:1014A000152000F0E3F810B10830706006E0354B0D
:1014B00044F838001A7801321A7007E02A4B324A91
:1014C00016F0080F08BF134644F8383008233B7065
:1014D00070E5E0071FD520492B482C4C02230B70E8
:1014E0002B4B1A702B4B186098602B48D8601A61F0
:1014F0009A615C60164B0D2018702848FF2303701A
:101500002B700274264A1370264B9F221A700123F7
:101510000B70BDE8F88F210604D50D4B0D221A7013
:1015200080232B70A20705D51C4B1A78D2B21A70F3
:1015300002232B70E30644BF10232B70BDE8F88F05
:10154000684C0000908DFF1F1091FF1F988EFF1FA9
:10155000C0200740688EFF1F94200740608EFF1F49
:101560000891FF1FFD8DFF1FC8004000948DFF1FD5
:1015700098200740408EFF1FA88DFF1F988DFF1FEA
:10158000FE90FF1F6A8EFF1F88004000AC8DFF1F7A
:10159000FC8DFF1F0080FF1F008EFF1F882007406B
:1015A0008C20074084200740EC8DFF1F08B501F018
:1015B000E7FC00221A4B0021D15098180832882AE3
:1015C0004160F7D1174A106840F48020106002F59E
:1015D00028326832C3F307201070C3F307401B0E94
:1015E00010751376FF2302F81C3C02F8143C02F835
:1015F0008C3C012302F8083C82F8641002F8183C85
:10160000094B70226FF450711A700B444FF4007242
:101610001A6003F1C04303F5C82310221A7008BDF5
:101620000080FF1F3480044049E400E000F0A0B8CF
:1016300000F05CB800F080B800F034B900F0A6B853
:10164000084600F023B90846114600F0B7B87047C5
:10165000044B00221A714FF47A711A73024A99608E
:101660001A607047788EFF1F184B000072B60C4A44
:101670001168B1FA81F30B2B02D962B600207047D2
:101680004FF00040D84021EA0001116062B60549E0
:1016900048225343C8180022CA504260704700BF16
:1016A0006889FF1F0086FF1F0C4B4822C31AB3FB3B
:1016B000F2F30B2B11D80A4A127822B1094A127898
:1016C0000AB1FFF7F9BB72B6074A4FF0004121FAA1
:1016D00003F311681943116062B670470086FF1F5B
:1016E0006A8EFF1F738EFF1F6889FF1F10B5104C95
:1016F00023686BB120684288531C0244147A028824
:10170000934212D3FFF7D0FF094B00221A600DE07D
:10171000084B1B7813B94FF0FF3010BD0320FFF7C3
:101720009DFB20600028E5D1F5E74380204610BDF1
:10173000948EFF1F738EFF1F10B50B4C236813B1DF
:1017400023686BB902E0094B1B7813B94FF0FF30E7
:1017500010BD0320FFF782FB20600028F0D1F5E7E1
:101760005A881344187A10BD948EFF1F738EFF1F82
:10177000044B9888044B1B681BB11A885B88D31AEA
:1017800018447047FE90FF1F948EFF1F10B5094B41
:101790001B786BB1084C206818B1FFF785FF002358
:1017A00023600320FFF75AFB10B1FFF77DFFF8E736
:1017B00010BD00BF738EFF1F948EFF1F2DE9F843ED
:1017C0002D4E012307460C463370002C4FD02B4D75
:1017D0002B68A9462BBB48F60148294B1B7803F020
:1017E000FF020BB9327015E00420FFF753FB072806
:1017F00008D801233370FFF739FFC9F8000080B91A
:101800001D4B1870B8F101081E4B01D01A782AB18F
:1018100001221A704FF0FF30BDE8F88300F094F811
:10182000DBE72968174A488800231370C0F140029B
:10183000944238BF224600F1080C10448C44488082
:10184000A41A934204D0F85C0CF803000133F8E7C3
:101850001F444B883F2B06D940230B800420FFF701
:1018600067FB00232B60084B05221A70ADE734702C
:101870002046BDE8F88300BF898EFF1F8C8EFF1FB6
:10188000738EFF1F908EFF1F888EFF1F07B502AB60
:10189000012103F8010D1846FFF790FF03B05DF832
:1018A00004FBFFFF2DE9F041114B1B78F3B1114E02
:1018B000114B3468114D01271F7098464CB1002719
:1018C00063882F70042023802146FFF731FB3760A7
:1018D00009E0FFF7CBFE014620B104202C70FFF792
:1018E00027FB00E02F70002388F80030BDE8F0816E
:1018F000738EFF1F8C8EFF1F898EFF1F888EFF1F28
:1019000038B50E4B1B7803F0FF05ABB90C4C2168C2
:1019100031B14B880B800420FFF70AFB256038BDEE
:10192000FFF7A4FE014620B10420BDE83840FFF7D0
:10193000FFBA044B01221A7038BD00BF898EFF1F09
:101940008C8EFF1F888EFF1F10B50E4C2378BBB9FD
:1019500001232370FFF70CFF08B1FFF778FE00F0BA
:1019600053FC08B100F08AF800F0ACFF08B100F0B9
:101970000FF901F039FA08B100F094F9002323704F
:1019800010BD00BF998EFF1F08B50368C9B21B6860
:10199000984708BD08B50368C9B21B68984708BDD9
:1019A00008B50368C9B21B68984708BD08B5036845
:1019B000C9B21B68984708BD034800EB5100B0FB53
:1019C000F1F000F0DBB900BF0044950810B50648FF
:1019D00000EB51001446B0FBF1F000F0CFF92046C7
:1019E000BDE8104000F02EBA0044950800F054BA4B
:1019F000084600F085BA084600F0D4BA08461146F9
:101A000000F09ABA08B5084600F0F2FA003018BFA4
:101A1000012008BD08B5084600F00CFB003018BFD7
:101A2000012008BD00F0F0BB00F028BC00F0FCBBBA
:101A300000F0CEBB00F03ABC00F0D4BB08B50846BD
:101A400000F01EFB012008BD08B5084600F018FB99
:101A5000012008BD10B508461446114600F05AFB97
:101A6000204610BD38B508460D4602F0DBFE0446A0
:101A70002146284600F04EFB204638BD7047FFFF48
:101A8000044B00221A714FF47A711A73024A99605A
:101A90001A6070479C8EFF1F404B000008B503681A
:101AA000C9B21B68984708BD08B50368C9B21B686E
:101AB000984708BD08B50368C9B21B68984708BDB8
:101AC00008B50368C9B21B68984708BD034800EB16
:101AD0005100B0FBF1F000F091BC00BF004495084C
:101AE00010B5064800EB51001446B0FBF1F000F0D1
:101AF00085FC2046BDE8104000F0E4BC0044950899
:101B000000F00ABD084600F05FBD084600F0AEBD1B
:101B10000846114600F074BD08B5084600F0CEFD39
:101B2000003018BF012008BD08B5084600F0E8FDE8
:101B3000003018BF012008BD00F0C4BE00F0FCBE9C
:101B400000F0D0BE00F0A2BE00F00EBF00F0A8BEB4
:101B500008B5084600F0F2FD012008BD08B50846AA
:101B600000F0ECFD012008BD10B5084614461146F2
:101B700000F02EFE204610BD38B508460D4602F096
:101B800051FE04462146284600F022FE204638BD7C
:101B90007047FFFF044B00221A714FF47A711A73D9
:101BA000024A99601A607047AC8EFF1FA04B00007C
:101BB00008B50368C9B21B68984708BD08B5036833
:101BC000C9B21B68984708BD08B50368C9B21B684D
:101BD000984708BD08B50368C9B21B68984708BD97
:101BE000034800EB5100B0FBF1F000F065BF00BF0F
:101BF00000A24A0410B5064800EB51001446B0FBA1
:101C0000F1F000F059FF2046BDE8104000F096BF0B
:101C100000A24A0400F0BCBF084600F0EDBF084631
:101C200001F02EB80846114601F002B808B5084682
:101C300001F028F8003018BF012008BD08B508469B
:101C400001F042F8003018BF012008BD01F0CCB807
:101C500001F004B901F0D8B801F0AAB801F016B942
:101C600001F0B0B808B5084601F04CF8012008BDF5
:101C700008B5084601F046F8012008BD10B5084631
:101C80001446114601F088F8204610BD38B50846C4
:101C90000D4602F0C7FD04462146284601F07CF8B7
:101CA000204638BD7047FFFF044B00221A714FF4E5
:101CB0007A711A73024A99601A607047BC8EFF1FCE
:101CC000004C000010B5204B2048214960221A70BA
:101CD000E1225A701F4B204A1C78204B082C01D15E
:101CE000012402E00A2C03D119240460132005E02A
:101CF0000C2C0CBF15243D240460122008601460D5
:101D00001860174B17491B78174A03B101230B6062
:101D10001360164B164A1978164B012901D88021F9
:101D20000BE0042901D8842107E0082901D8852186
:101D300003E0102994BF86218721116019600E4BA2
:101D400001221A7010BD00BF0040074008B00340D8
:101D50000CB003406C89FF1F08B00B400CB00B4067
:101D6000CD8EFF1F20B0034020B00B406D89FF1FB8
:101D700024B0034024B00B40CC8EFF1F234B1A68C5
:101D800042F480621A60224A00231370214A1370C1
:101D9000214A1370214A1370214A1370214B1B787A
:101DA0002BB1152B07D140F213321F4B02E01F4B12
:101DB00040F213321A601E4B1B78012B05D0052B05
:101DC00007D14FF451721B4B02E01B4B4FF4517281
:101DD0001A601A4BC0F344321A70C0F347125A709B
:101DE0000221042200F01F0098729A70D9745A756B
:101DF00088221A743C22DA70114B40226FF44A7127
:101E00001A700B444FF400521A607047348004403B
:101E1000578FFF1FD58EFF1F608FFF1F588FFF1F2B
:101E2000D48EFF1F168FFF1F18C0044040A004402F
:101E30006E89FF1F1CC0044044A0044000A006405F
:101E40002DE400E0134A937800F0030103F0EC0363
:101E50000B43410748BF43F01003937000F00F039A
:101E6000042B0C4903D18B7943F040038B715379D8
:101E7000C20603F0EF03074A48BF43F01003537153
:101E80009379810603F0EF0348BF43F01003937189
:101E9000704700BF00A0064008B5114B1B685B05EA
:101EA00000D408BD0F4B1A7802F0FF0312B1FFF700
:101EB0004BFDF7E70C4A4FF4005111600B4A0C49F7
:101EC000D37040F203120A604A600A4A13700A4A49
:101ED00013700A4B1B680BB101221A7008BD00BFBA
:101EE00034800440D48EFF1F84E100E000A006404F
:101EF00040A00440578FFF1FD58EFF1FD08EFF1FBD
:101F000038B50446094B1B7803F0FF05002BF9D1C7
:101F100020460121FEF7BEFE20462946FEF79AFE26
:101F2000034B53F83420034B1A6038BDD48EFF1F87
:101F3000FC4900005C8FFF1F10B509B140F0800024
:101F4000144A13789842144622D0134A1268520554
:101F50001DD503F07F03012B04D0052B05D10022F2
:101F60000E4B01E00E4B00221A60002900F07F02A8
:101F70000CBF44236023012A05D0052A07D143F46E
:101F80004073064A02E0064A43F44073136020702F
:101F900010BD00BF6E89FF1F348004401CC0044088
:101FA00044A004400E4A1378984218D00D4909689D
:101FB000490513D52BB1152B05D10B4B0021196009
:101FC00001E00A490B6028B1152807D140F213310E
:101FD000054B02E0054B40F2133119601070704759
:101FE000168FFF1F3480044018C0044040A00440F6
:101FF0000D4A38B5146814F480624FF0000410D014
:1020000021280A4D0AD80A4A012152F830302B60A3
:10201000FEF740FE2B681C70012038BD2C60204666
:1020200038BD104638BD00BF34800440D08EFF1F3D
:10203000FC4900000E4B1B6813F4806316D0122875
:102040000C4B03D140F202310B4A04E0142809D1B1
:102050000A4A40F2023111605A7B42F001025A737F
:10206000012070475A7B02F0FE025A73002070472D
:102070003480044000A006400CA0044014C004407A
:10208000F8B51D4B1B685A05064633D51B4B1B681C
:102090000BB101221A701A4B1C780134402C1F46D8
:1020A00028BF0024174D2B78A34218D1FEF77EFDE0
:1020B00040280FDC144A13791B06F3D52B781349FB
:1020C0000133402B28BF0023C95CDBB2C9B2D171F8
:1020D0002B70E7E7FF28E5DDFFF736FCE2E70B4B67
:1020E000F6B21E550A4B01221A70074BE4B2BC220D
:1020F0003C70DA70F8BD00BF348004405C8FFF1F75
:10210000608FFF1F588FFF1F00A00640D68EFF1F55
:10211000D48EFF1F274B1B685A052DE9F047074651
:102120008A4644D5244B1B680BB101221A703D46E8
:1021300007EB0A039D4237D2DFF890801F4E98F8D4
:10214000004096F800900134402C28BF00245FFA2C
:1021500089F9A1451DD11A4BBC22DA70FEF726FD84
:1021600040280FDC164A13791B060FD53378154922
:102170000133402B28BF0023C95CDBB2C9B2D17147
:10218000337003E0FF2801DDFFF7DEFB33784B45BA
:10219000E4D00C4B15F8012B1A550B4B0122E4B27D
:1021A0001A7088F80040C3E7054BBC22DA70BDE81E
:1021B000F08700BF348004405C8FFF1F588FFF1FE3
:1021C00000A00640D68EFF1FD48EFF1F608FFF1F1A
:1021D00008B5034B1B7813B1FFF7B6FBF9E708BD51
:1021E000D48EFF1F064A074B1B781078DBB2C0B2B3
:1021F00083422CBF3F3000F1FF30C01A704700BF50
:10220000588FFF1F608FFF1F054B1878054B1B78F9
:10221000C0B2DBB2984238BF4030C01A704700BF2E
:10222000578FFF1FD58EFF1F10B5104B10491A781E
:102230000B78D2B2DBB29A4214D00133402B28BFC4
:1022400000230C48DCB2C05C0C700B490968C0B2BA
:1022500051B19A4238BF4032D31A1A2B04DC002302
:102260000B7010BD4FF0FF3010BD00BF578FFF1F28
:10227000D58EFF1F178FFF1FD08EFF1F084B1A78B8
:10228000084B1B78DBB29A4207D00133402B28BFA2
:102290000023054AD05CC0B270474FF0FF30704752
:1022A000578FFF1FD58EFF1F178FFF1F0C4B1B680B
:1022B0005B0514D50B4BDA7802F0CB02DA704022C2
:1022C0005A74DA7842F03402DA70074B1A78074B06
:1022D000D2B21A70064B1B680BB100221A707047FD
:1022E0003480044000A00640D58EFF1F578FFF1F8B
:1022F000D08EFF1F30B5374B1A7912F0300F31D026
:1023000072B69A7D02F0FF0022B9DA7940225A743F
:1023100062B627E062B6304A304913780978DBB2FA
:10232000C9B214462B4AD5795A1C402A28BF00222C
:102330008A42EDB202D02A4B9D541346421E12F03F
:10234000FF00EFD1DAB22270264A126852B18B42F6
:1023500036BFC1F14001C1EB03035B18272BC4BF9B
:10236000012313701B4BD978C9B20C0620D51B79F9
:1023700018061DD51C4B1D4A1D781378EDB2DBB233
:102380001046AB420CD0134A0133402B1479184C41
:1023900028BF0023E45CE4B2D471127D072AF0D98F
:1023A000DBB203700B4B1A79120644BF7C22DA7041
:1023B0004B060ED5074B1A7912F0400F194608D07C
:1023C0000C4B00221A700C4B1B6803B11A703C2393
:1023D000CB7030BD00A00640578FFF1FD58EFF1F6A
:1023E000178FFF1FD08EFF1F608FFF1F588FFF1F9B
:1023F000D68EFF1FD48EFF1F5C8FFF1F234B1A68E2
:1024000042F400621A60224A00231370214A1370BA
:10241000214A1370214A1370214A1370214B1B78F3
:10242000092B05D01A2B07D140F213321E4B02E0C4
:102430001E4B40F213321A601D4B1B780A2B05D03D
:102440001F2B07D14FF451721A4B02E01A4B4FF475
:1024500051721A60194BC0F344321A70C0F347121C
:102460005A7000F01F000422022198729A70D974E9
:102470005A7588221A743C22DA70114B40221A7065
:10248000A3F22B334FF400421A60704734800440AB
:10249000D28FFF1F698FFF1FD88FFF1FD38FFF1FA2
:1024A000688FFF1F6F89FF1F04D004400CB00440E9
:1024B0007089FF1F00D0044010B0044000B00640F7
:1024C0002FE400E0134A937800F0030103F0EC03DB
:1024D0000B43410748BF43F01003937000F00F0314
:1024E000042B0C4903D18B7943F040038B71537952
:1024F000C20603F0EF03074A48BF43F010035371CD
:102500009379810603F0EF0348BF43F01003937102
:10251000704700BF00B0064008B51E4B1B681B0586
:1025200000D408BD1C4B1B7803F0FF0213B1FFF76A
:102530000BFAF7E7194B4FF400411960184BDA70AA
:10254000184B1B78092B05D01A2B07D140F2031228
:10255000154B02E0154B40F203121A60144B1B7826
:1025600003F07F030A2B05D01F2B07D140F2031283
:10257000104B02E0104B40F203121A600F4A002386
:1025800013700F4A13700F4B1B680BB101221A70A6
:1025900008BD00BF34800440688FFF1F84E100E065
:1025A00000B006406F89FF1F04D004400CB0044007
:1025B0007089FF1F00D0044010B00440D28FFF1F6D
:1025C000698FFF1F648FFF1F38B50446094B1B78C6
:1025D00003F0FF05002BF9D120460121FEF75AFB3D
:1025E00020462946FEF736FB034B53F83420034BB5
:1025F0001A6038BD688FFF1FFC490000D48FFF1F91
:1026000010B509B140F08000144A1378984214467E
:1026100022D0134A126812051DD503F07F030A2B3E
:1026200004D01F2B05D100220E4B01E00E4B0022DF
:102630001A60002900F07F020CBF442360230A2A9D
:1026400005D01F2A07D143F44073064A02E0064A28
:1026500043F440731360207010BD00BF7089FF1FEA
:102660003480044000D0044010B004400F4A137876
:1026700098421AD00E490968090515D5092B04D0CE
:102680001A2B05D100210B4B01E00B4B00211960E7
:10269000092805D01A2807D140F21331054B02E072
:1026A000054B40F213311960107070476F89FF1F9E
:1026B0003480044004D004400CB004400D4A38B5C6
:1026C000146814F400624FF0000410D021280A4D61
:1026D0000AD80A4A012152F830302B60FEF7DAFAA4
:1026E0002B681C70012038BD2C60204638BD104678
:1026F00038BD00BF34800440648FFF1FFC490000D8
:102700000B4B1B6813F4006310D01728094B09D139
:10271000094A40F2023111605A7B42F001025A73B9
:10272000012070475A7B02F0FE025A730020704766
:102730003480044000B0064008B00440F8B51D4B9A
:102740001B681A05064633D51B4B1B680BB10122CB
:102750001A701A4B1C780134282C1F4628BF0024FD
:10276000174D2B78A34218D1FEF720FA40280FDC32
:10277000144A13791B06F3D52B7813490133282B00
:1027800028BF0023C95CDBB2C9B2D1712B70E7E767
:10279000FF28E5DDFFF7D8F8E2E70B4BF6B21E5550
:1027A0000A4B01221A70074BE4B2BC223C70DA706B
:1027B000F8BD00BF34800440D48FFF1FD88FFF1FA7
:1027C000D38FFF1F00B006406A8FFF1F688FFF1F67
:1027D000274B1B681A052DE9F04707468A4644D562
:1027E000244B1B680BB101221A703D4607EB0A030C
:1027F0009D4237D2DFF890801F4E98F8004096F83F
:1028000000900134282C28BF00245FFA89F9A145E3
:102810001DD11A4BBC22DA70FEF7C8F940280FDC34
:10282000164A13791B060FD5337815490133282B27
:1028300028BF0023C95CDBB2C9B2D171337003E099
:10284000FF2801DDFFF780F833784B45E4D00C4BCF
:1028500015F8012B1A550B4B0122E4B21A7088F8B7
:102860000040C3E7054BBC22DA70BDE8F08700BF2B
:1028700034800440D48FFF1FD38FFF1F00B0064069
:102880006A8FFF1F688FFF1FD88FFF1F08B5034B8C
:102890001B7813B1FFF758F8F9E708BD688FFF1FE1
:1028A000064A074B1B781078DBB2C0B283422CBFBC
:1028B000273000F1FF30C01A704700BFD38FFF1FD1
:1028C000D88FFF1F054B1878054B1B78C0B2DBB2C1
:1028D000984238BF4030C01A704700BFD28FFF1FE8
:1028E000698FFF1F10B5104B10491A780B78D2B2C0
:1028F000DBB29A4214D00133402B28BF00230C488E
:10290000DCB2C05C0C700B490968C0B251B19A428C
:1029100038BF4032D31A1A2B04DC00230B7010BDD1
:102920004FF0FF3010BD00BFD28FFF1F698FFF1F18
:10293000928FFF1F648FFF1F084B1A78084B1B787C
:10294000DBB29A4207D00133402B28BF0023054A4F
:10295000D05CC0B270474FF0FF307047D28FFF1F7E
:10296000698FFF1F928FFF1F0C4B1B681B0514D52F
:102970000B4BDA7802F0CB02DA7040225A74DA7824
:1029800042F03402DA70074B1A78074BD2B21A7051
:10299000064B1B680BB100221A707047348004404C
:1029A00000B00640698FFF1FD28FFF1F648FFF1F8B
:1029B00030B5374B1A7912F0300F31D072B69A7D9C
:1029C00002F0FF0022B9DA7940225A7462B627E099
:1029D00062B6304A304913780978DBB2C9B214467E
:1029E0002B4AD5795A1C402A28BF00228A42EDB2D0
:1029F00002D02A4B9D541346421E12F0FF00EFD125
:102A0000DAB22270264A126852B18B4236BFC1F147
:102A10004001C1EB03035B18272BC4BF01231370D4
:102A20001B4BD978C9B20C0620D51B7918061DD5C9
:102A30001C4B1D4A1D781378EDB2DBB21046AB4239
:102A40000CD0134A0133282B1479184C28BF0023CB
:102A5000E45CE4B2D471127D072AF0D9DBB20370D2
:102A60000B4B1A79120644BF7C22DA704B060ED546
:102A7000074B1A7912F0400F194608D00C4B002270
:102A80001A700C4B1B6803B11A703C23CB7030BD1D
:102A900000B00640D28FFF1F698FFF1F928FFF1F6C
:102AA000648FFF1FD88FFF1FD38FFF1F6A8FFF1FF9
:102AB000688FFF1FD48FFF1F174B1A6842F4805294
:102AC0001A60164A00231370154A1370154A1370C2
:102AD000154A1370154A1370154A40F213311160EC
:102AE0004FF451715160134AC0F344311170C0F377
:102AF000471100F01F0051709072937013742C23D3
:102B0000D3700D4B40226FF44B711A700B444FF48D
:102B100000321A60704700BF348004404A90FF1FA3
:102B2000E18FFF1F5090FF1F4B90FF1FE08FFF1F93
:102B300008C0044000C0064031E400E0134A937826
:102B400000F0030103F0EC030B43410748BF43F0DF
:102B50001003937000F00F03042B0C4903D18B7901
:102B600043F040038B715379C20603F0EF03074A29
:102B700048BF43F0100353719379810603F0EF03CC
:102B800048BF43F010039371704700BF00C0064078
:102B900008B5114B1B68DB0400D408BD0F4B1A7835
:102BA00002F0FF0312B1FEF7CFFEF7E70C4A4FF435
:102BB000003111600B4A0C49D37040F203120A60D5
:102BC0004A600A4A13700A4A13700A4B1B680BB119
:102BD00001221A7008BD00BF34800440E08FFF1F3F
:102BE00084E100E000C0064008C004404A90FF1F96
:102BF000E18FFF1FDC8FFF1F38B50446094B1B78A0
:102C000003F0FF05002BF9D120460121FEF742F821
:102C100020462946FEF71EF8034B53F83420034B99
:102C20001A6038BDE08FFF1FFC4900004C90FF1F69
:102C300010B509B140F080000E4A1378984217D0C1
:102C40000D4C2468E40412D503F07F03082B02D155
:102C50000A4B00241C60002900F07F030CBF4421B4
:102C60006021082B03D1054B41F4407119601070AD
:102C700010BD00BF7189FF1F348004400CC00440A8
:102C80007047FFFF0D4A38B5146814F480524FF0B6
:102C9000000410D021280A4D0AD80A4A012152F80E
:102CA00030302B60FDF7F6FF2B681C70012038BD1B
:102CB0002C60204638BD104638BD00BF348004402B
:102CC000DC8FFF1FFC4900000B4B1B6813F4805383
:102CD00010D00E28094B09D1094A40F20231116087
:102CE0005A7B42F001025A73012070475A7B02F06E
:102CF000FE025A73002070473480044000C0064032
:102D000004C00440F8B51D4B1B68DA04064633D5F1
:102D10001B4B1B680BB101221A701A4B1C78013433
:102D2000282C1F4628BF0024174D2B78A34218D10A
:102D3000FDF73CFF40280FDC144A13791B06F3D53E
:102D40002B7813490133282B28BF0023C95CDBB241
:102D5000C9B2D1712B70E7E7FF28E5DDFEF7F4FD7E
:102D6000E2E70B4BF6B21E550A4B01221A70074BD5
:102D7000E4B2AC223C70DA70F8BD00BF348004408D
:102D80004C90FF1F5090FF1F4B90FF1F00C006404C
:102D9000E28FFF1FE08FFF1F38B504464518AC4295
:102DA00004D014F8010BFFF7ADFFF8E738BDFFFFC3
:102DB00008B5034B1B7813B1FEF7C6FDF9E708BD54
:102DC000E08FFF1F064A074B1B781078DBB2C0B2BA
:102DD00083422CBF273000F1FF30C01A704700BF7C
:102DE0004B90FF1F5090FF1F054B1878054B1B7829
:102DF000C0B2DBB2984238BF4030C01A704700BF43
:102E00004A90FF1FE18FFF1F10B5104B10491A7831
:102E10000B78D2B2DBB29A4214D00133402B28BFD8
:102E200000230C48DCB2C05C0C700B490968C0B2CE
:102E300051B19A4238BF4032D31A1A2B04DC002316
:102E40000B7010BD4FF0FF3010BD00BF4A90FF1F48
:102E5000E18FFF1F0A90FF1FDC8FFF1F084B1A78BE
:102E6000084B1B78DBB29A4207D00133402B28BFB6
:102E70000023054AD05CC0B270474FF0FF30704766
:102E80004A90FF1FE18FFF1F0A90FF1F054B1A7822
:102E9000054BD2B21A70054B1B680BB100221A7099
:102EA000704700BFE18FFF1F4A90FF1FDC8FFF1F9D
:102EB00010B5294B1A79920620D5284AD87913786B
:102EC00027490133402B097828BF00238B42C0B229
:102ED00003D02449C854D9B21170234A116869B18A
:102EE000224A1278D2B2934236BFC2F14002C2EBFC
:102EF00003039B18272BC4BF01230B70164AD178FC
:102F0000C9B20C0616D51379180613D5184B1748F5
:102F10001C780378DBB29C4202D16C23D37009E0A9
:102F20000133282B28BF0023124CE45CDBB2E4B24F
:102F3000D47103704B060ED5074B1A7912F0400F6F
:102F4000194608D00C4B00221A700C4B1B6803B1B9
:102F50001A702C23CB7010BD00C006404A90FF1F92
:102F6000E18FFF1F0A90FF1FDC8FFF1F4B90FF1F99
:102F70005090FF1FE28FFF1FE08FFF1F4C90FF1F3D
:102F80001FB572B6154B70221A70154A4121117087
:102F90000F2102F8011C80221A701A781206FCD543
:102FA000104B186862B6104B984298BF0A2301ACC8
:102FB00098BF584321460A22FDF716FE0023E15C24
:102FC0000A4A29B102EB430001330A2B4180F6D1B2
:102FD00001335B00137004B010BD00BF000002405D
:102FE00007000240080002407F969800FA89FF1F00
:102FF00008B5024B1B68984708BD00BF7090FF1FC3
:1030000030B51A491A4B0A791A701A481A4B0C68CB
:103010001A780378E48A13FA84F33F2BD2B288BF7C
:10302000403B9A420446154812D093424FF00105A6
:1030300088BF40320570D01A72B60A680979D58AFD
:1030400080B2D082D58BD0830D4A117062B605E074
:10305000002202700B4A4FF4804111600A4A126844
:103060000AB100211170DBB2237030BD6490FF1FE4
:103070001F8000408490FF1F6290FF1F7890FF1F09
:103080001B80004004E200E07490FF1F08B5024B73
:103090001B68984708BD00BF6C90FF1F10B5044621
:1030A00001F06AFB204610BD10B5184B1A79184B79
:1030B0001A70184A1378013303F03F03D9B2117024
:1030C000154A1168154A1468621C154A0FD0154834
:1030D0000078C0B2834236BFC0F14000C0EB0300AD
:1030E000C01880B2A04208DA4C1C02D109E0481C8A
:1030F00003D00D48C35C8B4203D10C4B4FF40051FD
:103100001960136801221A6010BD00BF7C90FF1F78
:103110001F8000407A90FF1F5C90FF1F5490FF1F9C
:103120005890FF1F7990FF1F0084FF1F04E200E00A
:103130002DE9F84F834B01221A60834B40F2133480
:103140001C604FF451745C60804BC1F344341C70BC
:10315000C1F3471401F01F015C709972002199704E
:103160000221D9745A7588221A74AC22DA70A0220E
:10317000DA72427B1AB19A7842F080029A70744FE8
:10318000DFF804B23B68DFF804A21A69C3F810B094
:103190001A683979C3F800A04026DA8BDE83DA8A10
:1031A000DFF8EC816B48DE8201F11002002401257A
:1031B0004FF030091C755C759C711C765C769C76B2
:1031C000DC761D715C711D725C729C72DC721C730A
:1031D0005C739C73DC7383F8079048F822004A11F3
:1031E000920002F1604202F5614201F01F0105FA0E
:1031F00001F111609A8B998B92B242F002029A838C
:103200009A8B998B544992B242F008029A833B7987
:1032100003F1804303F5043383221C702E201A70BF
:10322000FDF700FD4D4B4E48C0221A704FF480430D
:1032300003603B7903F1604303F564431E703B79FF
:1032400003F1604303F564431A78464B1A80464AFB
:1032500013681968C3F800B0AAF13F011F6919612A
:10326000D98BDE831C715C71DC711C735C739C7385
:10327000DC731D755C751D725C729C72DC721C7651
:103280005C769C76DC76D98A83F80690DE821679A5
:10329000364F06F1100148F821707111890001F1D3
:1032A000604101F5614106F01F06B5400D60998B44
:1032B0009D8B89B241F002019983137903F1804318
:1032C00003F5043305461C7036231446284A11784A
:1032D000994233D0274901328A42F8D1227902F14A
:1032E000804202F5043263F07F03DBB2137023796E
:1032F000214903F1804303F5043300221A7082222E
:103300001A702D20FDF78EFC1C4BC0221A704FF452
:1033100000532B60237903F1604303F5644340229B
:103320001A702368164A03F1160111600122C3F8CE
:103330001620144B22791A70BDE8F88F0133402B08
:10334000C4D1D4E7A806904240A0044000A00640A3
:103350006490FF1F01300000F12F00002EE400E018
:1033600004E100E06090FF1F7C90FF1FA930000087
:1033700000100240101002408D3000002DE400E0EB
:103380005890FF1F1B80004007A006404084FF1F8D
:103390000082FF1F134A937801F0030003F0EC034F
:1033A0000343480748BF43F01003937001F00F0335
:1033B000042B0C4803D1837943F040038371537984
:1033C000084A03F0EF03C80648BF43F010035371E7
:1033D0009379890603F0EF0348BF43F0100393711C
:1033E000704700BF00A00640134B1B68990710B53B
:1033F00004461FD5114B1B689A071BD5104B1B6841
:103400005B0517D50F492D20FDF70CFC23682046DE
:103410005B6998471420FDF79BFC0B4A0B4800237F
:1034200040F20311D37001604160D372084A1370F7
:10343000084A137010BD00BF408004403C80044027
:1034400034800440F522000000A0064040A0044063
:103450008490FF1F6290FF1F38B50C460A4B1B7803
:1034600003F0FF0513B1FEF76FFAF7E720460121DD
:10347000FDF710FC20462946FDF7ECFB034B53F803
:103480003420034B1A6038BD7890FF1FFC490000C0
:103490007490FF1F08B5FEF757FA064B1A78064BD3
:1034A0001B789A42F7D1054B1B7813B1FEF74CFA03
:1034B000F9E708BD6290FF1F8490FF1F7890FF1FFF
:1034C000064A074B1B781078DBB2C0B283422CBF90
:1034D0003F3000F1FF30C01A704700BF8490FF1FDB
:1034E0006290FF1F2DE9F047DFF88480154698F8B9
:1034F00000600F46FFF7E4FFF6B2A84238BF05466A
:10350000AC193F2CC246DFF86C800DD9C6F14009DA
:1035100039464A46403C08EB060000F00BFF4046A7
:1035200007EB0901224603E008EB060039462A466C
:1035300000F000FFE4B20B4B8AF800401A786AB939
:1035400001221A7072B6084A13681279D88AA9B291
:10355000D982D88BD983054B1A7062B62846BDE84C
:10356000F08700BF7890FF1F6490FF1F1B80004012
:103570006290FF1F4084FF1F07B502AB012243F892
:10358000041D1946FFF7AEFF03B05DF804FBFFFF13
:10359000054B1878054B1B78C0B2DBB2984238BF98
:1035A0004030C01A704700BF7A90FF1F7990FF1F0C
:1035B000084B1978084B1A78D2B2914207D00132E1
:1035C00002F03F020549885CD2B21A7070474FF092
:1035D000FF3070477A90FF1F7990FF1F0084FF1F14
:1035E000084B1A78084B1B78DBB29A4206D001339D
:1035F00003F03F03054AD05CC0B270474FF0FF3084
:10360000704700BF7A90FF1F7990FF1F0084FF1F53
:10361000024B1A78024BD2B21A7070477A90FF1F91
:103620007990FF1F70B50C4E0C4D0D4C30460021AB
:1036300001F04EF830460B4E2246294601F0B6F80E
:103640003046002101F044F8304629462246BDE8C4
:10365000704001F0ABB800BF6490FF1F9D300000C8
:103660006089FF1F7C90FF1F08B5024B1B689847BD
:1036700008BD00BFB890FF1F30B51A491A4B0A7930
:103680001A701A481A4B0C681A780378E48A13FAED
:1036900084F33F2BD2B288BF403B9A420446154880
:1036A00012D093424FF0010588BF40320570D01A06
:1036B00072B60A680979D58A80B2D082D58BD08358
:1036C0000D4A117062B605E0002202700B4A4FF4F9
:1036D000803111600A4A12680AB100211170DBB210
:1036E000237030BDA890FF1F1F800040C090FF1FB7
:1036F0009690FF1FA490FF1F1B80004004E200E093
:10370000A090FF1F08B5024B1B68984708BD00BF7B
:10371000B490FF1F10B5184B1A79184B1A70184A3D
:103720001378013303F03F03D9B21170154A1168C1
:10373000154A1468621C154A0FD015480078C0B2AB
:10374000834236BFC0F14000C0EB0300C01880B216
:10375000A04208DA4C1C02D109E0481C03D00D48F5
:10376000C35C8B4203D10C4B4FF4004119601368CA
:1037700001221A6010BD00BF8C90FF1F1F80004007
:10378000B090FF1F9890FF1F8890FF1FBC90FF1FF5
:103790009C90FF1F8084FF1F04E200E02DE9F84F9A
:1037A000834B01221A60834B40F213341C604FF4A8
:1037B00051745C60804BC1F344341C70C1F34714F6
:1037C00001F01F015C709972002199700221D97477
:1037D0005A7588221A74AC22DA70A022DA72427BFF
:1037E0001AB19A7842F080029A70744FDFF804B2EE
:1037F0003B68DFF804A21A69C3F810B01A68397977
:10380000C3F800A04026DA8BDE83DA8ADFF8EC9179
:103810006B48DE8201F11002002401254FF03008D0
:103820001C755C759C711C765C769C76DC761D71D3
:103830005C711D725C729C72DC721C735C739C7395
:10384000DC7383F8078049F822004A11920002F1E4
:10385000604202F5614201F01F0105FA01F11160B9
:103860009A8B998B92B242F002029A839A8B998B2F
:10387000544992B242F008029A833B7903F18043A3
:1038800003F5043385221C7040461A70FDF7CAF90F
:103890004D4B4E48C0221A704FF4803303603B7981
:1038A00003F1604303F564431E703B7903F1604309
:1038B00003F564431A78464B1A80464A1368196820
:1038C000C3F800B0AAF13F011F691961D98BDE83EB
:1038D0001C715C71DC711C735C739C73DC731D75F3
:1038E0005C751D725C729C72DC721C765C769C76D8
:1038F000DC76D98A83F80680DE821679364F06F1A7
:10390000100149F821707111890001F1604101F540
:10391000614106F01F06B5400D60998B9D8B89B201
:1039200041F002019983137903F1804303F50433D5
:1039300005461C7036231446284A1178994233D024
:10394000274901328A42F8D1227902F1804202F5F8
:10395000043263F07F03DBB213702379214903F152
:10396000804303F5043300221A7084221A702F203A
:10397000FDF758F91C4BC0221A704FF400432B601E
:10398000237903F1604303F5644340221A702368EE
:10399000164A03F1160111600122C3F81620144BD8
:1039A00022791A70BDE8F88F0133402BC4D1D4E7D7
:1039B000AC0690420CB0044000B00640A890FF1F37
:1039C000793600006936000030E400E004E100E0F0
:1039D0009490FF1F8C90FF1F1537000000100240CD
:1039E00010100240053700002FE400E0BC90FF1FDC
:1039F0001B80004007B00640C084FF1F0082FF1FED
:103A0000134A937801F0030003F0EC0303434807E3
:103A100048BF43F01003937001F00F03042B0C48D0
:103A200003D1837943F0400383715379084A03F04B
:103A3000EF03C80648BF43F010035371937989061A
:103A400003F0EF0348BF43F010039371704700BFCA
:103A500000B00640134B1B68990710B504461FD5EC
:103A6000114B1B689A071BD5104B1B681B0517D5FC
:103A70000F492F20FDF7D6F8236820465B69984749
:103A80001420FDF765F90B4A0B48002340F203119F
:103A9000D37001604160D372084A1370084A1370F2
:103AA00010BD00BF408004403C800440348004408E
:103AB000B129000000B006400CB00440C090FF1FC8
:103AC0009690FF1F38B50C460A4B1B7803F0FF0594
:103AD00013B1FDF739FFF7E720460121FDF7DAF8CA
:103AE00020462946FDF7B6F8034B53F83420034B24
:103AF0001A6038BDA490FF1FFC490000A090FF1F72
:103B000008B5FDF721FF064B1A78064B1B789A4241
:103B1000F7D1054B1B7813B1FDF716FFF9E708BD88
:103B20009690FF1FC090FF1FA490FF1F064A074BEF
:103B30001B781078DBB2C0B283422CBF3F3000F15B
:103B4000FF30C01A704700BFC090FF1F9690FF1F44
:103B50002DE9F0471D4F91463D780E46FFF7E6FFF1
:103B6000EDB2484534BF8046C84608EB05043F2CFB
:103B7000BA46174F0CD9C5F1400931464A46403C78
:103B8000781900F0D7FB384606EB0901224602E01F
:103B9000781931464A4600F0CDFBE4B20D4B8AF865
:103BA00000401A7882B901221A7072B60A4A136864
:103BB0001279D98A1FFA88F8A3F81680D98BA3F84E
:103BC0001E80064B1A7062B6BDE8F0879690FF1F04
:103BD000C084FF1FA490FF1FA890FF1F1B80004000
:103BE00007B502AB012243F8041D1946FFF7B0FFE9
:103BF00003B05DF804FBFFFF054B1878054B1B78FD
:103C0000C0B2DBB2984238BF4030C01A704700BF24
:103C1000B090FF1F9C90FF1F084B1978084B1A7833
:103C2000D2B2914207D0013202F03F020549885CCE
:103C3000D2B21A7070474FF0FF307047B090FF1F3C
:103C40009C90FF1F8084FF1F084B1A78084B1B783D
:103C5000DBB29A4206D0013303F03F03054AD05C41
:103C6000C0B270474FF0FF30704700BFB090FF1FE9
:103C70009C90FF1F8084FF1F024B1A78024BD2B228
:103C80001A707047B090FF1F9C90FF1F70B50C4ECC
:103C90000C4D0D4C3046002100F01AFD30460B4E05
:103CA0002246294600F082FD3046002100F010FD3A
:103CB000304629462246BDE8704000F077BD00BF7F
:103CC000A890FF1F9D3000006089FF1F8C90FF1F90
:103CD00008B5024B1B68984708BD00BFCC90FF1F7A
:103CE00030B51A491A4B0A791A701A481A4B0C68DF
:103CF0001A780378E48A13FA84F37F2BD2B288BF50
:103D0000803B9A420446154812D093424FF0010579
:103D100088BF80320570D01A72B60A680979D58AD0
:103D200080B2D082D58BD0830D4A117062B605E087
:103D3000002202700B4A4FF4802111600A4A126877
:103D40000AB100211170DBB2237030BDF490FF1F67
:103D50001F800040E090FF1FE890FF1FE990FF1FC9
:103D60001B80004004E200E0EC90FF1F08B5024B0E
:103D70001B68984708BD00BFC890FF1F10B5184BBF
:103D80001A79184B1A70184A1378013303F07F031D
:103D9000D9B21170154A1168154A1468621C154A87
:103DA0000FD015480078C0B2834236BFC0F1800002
:103DB000C0EB0300C01880B2A04208DA4C1C02D14C
:103DC00009E0481C03D00D48C35C8B4203D10C4B67
:103DD0004FF400311960136801221A6010BD00BF52
:103DE000D490FF1F1F800040F090FF1FD090FF1F56
:103DF000E490FF1FC490FF1FDC90FF1F0085FF1F92
:103E000004E200E02DE9F84F824B01221A60824B58
:103E100040F213321A604FF451725A607F4BC1F373
:103E200044321A70C1F347125A7001F01F01002288
:103E300099729A701A74AC22DA70A022DA72427BFC
:103E40001AB19A7842F080029A70754EDFF808B283
:103E50003368DFF808A21A69C3F810B01A6831791C
:103E6000C3F800A08027DA8BDF83DA8ADFF8F081DD
:103E70006C48DF8201F11002002401254FF038095F
:103E80001C755C759C711C765C769C76DC761D716D
:103E90005C711D725C729C72DC721C735C739C732F
:103EA000DC7383F8079048F822004A11920002F16F
:103EB000604202F5614201F01F0105FA01F1116053
:103EC0009A8B998B92B242F002029A839A8B998BC9
:103ED000554992B242F008029A83337903F1804344
:103EE00003F5043387221C7032201A70FCF79AFE07
:103EF0004E4B4F48C0221A704FF480230360337931
:103F000003F1604303F5644340221A70337903F1EF
:103F1000604303F564431A78464B1A80464A136897
:103F20001968C3F800B0AAF17F011E691961D98B25
:103F3000DF831C715C71DC711C735C739C73DC73BC
:103F40001D755C751D725C729C72DC721C765C76F1
:103F50009C76DC76D98A83F80690DF821679374F13
:103F600006F1100148F821707111890001F16041DA
:103F700001F5614106F01F06B5400D60998B9D8BE0
:103F800089B241F002019983137903F1804303F56B
:103F9000043305461C7036231446294A1178994289
:103FA00033D0284901328A42F8D1227902F1804285
:103FB00002F5043263F07F03DBB2137023792249E8
:103FC00003F1804303F5043300221A7086221A702D
:103FD0003120FCF727FE1D4BC0221A704FF400332E
:103FE0002B60237903F1604303F5644340221A7088
:103FF0002368174A03F1160111600122C3F8162045
:10400000144B22791A70BDE8F88F0133402BC4D1CC
:10401000D4E700BFB006904208C0044000C006408C
:10402000F490FF1FE13C0000D13C000032E400E0CE
:1040300004E100E0DE90FF1FD490FF1F7D3D0000F3
:1040400000100240101002406D3D000031E400E01D
:10405000C490FF1F1B80004007C006408085FF1FE3
:104060000082FF1F134A937801F0030003F0EC0372
:104070000343480748BF43F01003937001F00F0358
:10408000042B0C4803D1837943F0400383715379A7
:10409000084A03F0EF03C80648BF43F0100353710A
:1040A0009379890603F0EF0348BF43F0100393713F
:1040B000704700BF00C00640134B1B68990710B53E
:1040C00004461FD5114B1B689A071BD5104B1B6864
:1040D000DB0417D50F493120FCF7A4FD23682046E7
:1040E0005B6998471420FCF733FE0B4A0B4800230A
:1040F00040F20311D37001604160D372084A13701B
:10410000084A137010BD00BF408004403C8004404A
:1041100034800440B12E000000C0064008C00440B6
:10412000E090FF1FE890FF1F38B50C460A4B1B7844
:1041300003F0FF0513B1FDF707FCF7E72046012167
:10414000FCF7A8FD20462946FCF784FD034B53F8F5
:104150003420034B1A6038BDE990FF1FFC49000072
:10416000EC90FF1F08B5FDF7EFFB064B1A78064BE6
:104170001B789A42F7D1054B1B7813B1FDF7E4FB8E
:10418000F9E708BDE890FF1FE090FF1FE990FF1FCF
:10419000064A074B1B781078DBB2C0B283422CBFB3
:1041A0007F3000F1FF30C01A704700BFE090FF1F62
:1041B000E890FF1F2DE9F0471D4F91463D780E46D0
:1041C000FFF7E6FFEDB2484534BF8046C84608EB2E
:1041D00005047F2CBA46174F0CD9C5F1800931462A
:1041E0004A46803C781900F0A5F8384606EB0901EC
:1041F000224602E0781931464A4600F09BF8E4B2C4
:104200000D4B8AF800401A7882B901221A7072B6F2
:104210000A4A13681279D98A1FFA88F8A3F8168017
:10422000D98BA3F81E80064B1A7062B6BDE8F087E2
:10423000E890FF1F8085FF1FE990FF1FF490FF1F8C
:104240001B80004007B502AB012243F8041D19464C
:10425000FFF7B0FF03B05DF804FBFFFF054B1878D4
:10426000054B1B78C0B2DBB2984238BF8030C01A11
:10427000704700BFF090FF1FDC90FF1F084B1978BC
:10428000084B1A78D2B2914207D0013202F07F0275
:104290000549885CD2B21A7070474FF0FF30704702
:1042A000F090FF1FDC90FF1F0085FF1F084B1A785E
:1042B000084B1B78DBB29A4206D0013303F07F0330
:1042C000054AD05CC0B270474FF0FF30704700BF66
:1042D000F090FF1FDC90FF1F0085FF1F024B1A7834
:1042E000024BD2B21A707047F090FF1FDC90FF1F94
:1042F00070B50C4E0C4D0D4C3046002100F0E8F925
:1043000030460B4E2246294600F050FA3046002136
:1043100000F0DEF9304629462246BDE8704000F044
:1043200045BA00BFF490FF1F9D3000006089FF1F59
:10433000D490FF1F072A2DE9F04302F1FF3200F16C
:10434000FF3501F1FF3424D8062A00F2BF81DFE8EF
:1043500002F01C1814100C0804000B7803700C46B3
:10436000054663786B700134013563786B700134F6
:10437000013563786B700134013563786B700134FB
:10438000013563786B700134013563786B70BDE87B
:10439000F08305F003038118032BC5EB010104F141
:1043A000010304D01C461B7805F8013FF1E703F038
:1043B0000303022B4FEA910CA5F10305A4F10304BA
:1043C00000F0AD80032B00F01181012B38D01CF0E0
:1043D000070F06D054F8043F45F8043F0CF1FF3CAA
:1043E000F5E74FEADC0C2A462346664616F1FF360F
:1043F00012D35F6857609F689760DF68D7601F6956
:1044000017615F6957619F699761DF69D76153F8E9
:10441000207F42F8207FE9E74FEA4C1C01F00301BE
:1044200065446444022905F1030304F1030200F02A
:104430004781032940F03D812B1D221D21793EE15A
:1044400024F0030425F0030554F8046F1CF0070F53
:1044500009D0330A54F8046F43EA066345F8043F71
:104460000CF1FF3CF2E74FEADC0C2B462246674694
:1044700017F1FF3739D3D2F804804FEA086949EAC7
:1044800016265E6096684FEA066949EA1828C3F85E
:104490000880D2F80C804FEA086949EA1626DE60E7
:1044A00016694FEA066949EA1828C3F81080D2F85D
:1044B00014804FEA086949EA16265E6196694FEA58
:1044C000066949EA1828C3F81880D2F81C804FEA18
:1044D000086949EA1626DE6152F8206F4FEA06693C
:1044E00049EA182843F8208FC2E74FEA4C1C01F034
:1044F000030165440229644405F1030309D003293B
:1045000003D0012940F0E28007E062782A712B1D78
:10451000013462785A70013401336278D5E024F0B6
:10452000030425F0030554F8046F1CF0070F09D0AD
:10453000330C54F8046F43EA064345F8043F0CF18A
:10454000FF3CF2E74FEADC0C2A462346674617F1A8
:10455000FF3739D3D3F804804FEA084949EA1646B1
:1045600056609E684FEA064949EA1848C2F8088032
:10457000D3F80C804FEA084949EA1646D6601E690E
:104580004FEA064949EA1848C2F81080D3F8148067
:104590004FEA084949EA164656619E694FEA0649BC
:1045A00049EA1848C2F81880D3F81C804FEA084935
:1045B00049EA1646D66153F8206F4FEA064949EAA0
:1045C000184842F8208FC2E74FEA4C1C01F0030163
:1045D00065446444022905F1030304F101026FD02C
:1045E000032966D12B1DA21CA17868E024F00304E6
:1045F00025F0030554F8046F1CF0070F09D0330EA3
:1046000054F8046F43EA062345F8043F0CF1FF3CDD
:10461000F2E74FEADC0C2A462346674617F1FF37DC
:1046200039D3D3F804804FEA082949EA1666566060
:104630009E684FEA062949EA1868C2F80880D3F84C
:104640000C804FEA082949EA1666D6601E694FEACF
:10465000062949EA1868C2F81080D3F814804FEA96
:10466000082949EA166656619E694FEA062949EA11
:104670001868C2F81880D3F81C804FEA082949EA64
:104680001666D66153F8206F4FEA062949EA186882
:1046900042F8208FC2E74FEA4C1C01F00301654449
:1046A0006444022905F1030304F1020208D003293E
:1046B00002D001290AD107E0E1782B1DE21C297103
:1046C000517859700132013352785A70BDE8F08345
:1046D00030B572B6254C09B9026812B92188002399
:1046E0000FE003790F2BF9D821881941C907F5D5B7
:1046F00003F1007303F59063B2EB431FEED162B692
:1047000030BD41FA03F212F0010227D101259D408C
:104710002943218062B6164CD9B20171256845F053
:104720000205256054F8045C03F1007345F00205AE
:1047300044F8045C03F590630E4C5B018225256010
:10474000A176A1772176E17703601A605A609A60BA
:10475000DA601A615A619A61DA6130BD0133102B57
:10476000CFD162B600220260037130BDFC90FF1F02
:10477000408004400080004003790F2B10D8094A84
:10478000137072B6084B0279012101FA02F21988FE
:1047900021EA02021A8062B610230371002303602B
:1047A000704700BF1A800040FC90FF1F0346084678
:1047B000194600F001B8FFFF70B5064C06460D46DD
:1047C00013462CB131462A460220AFF3008070BD5B
:1047D000204670BD0000000070B50E4B0E4DED1A66
:1047E000AD1000241E46AC4204D056F82420904759
:1047F0000134F8E700F05CFA084D094BED1AAD10F2
:1048000000241E46AC4204D056F8242090470134C0
:10481000F8E770BDBC4C0000BC4C0000E04C000050
:10482000BC4C0000034613F8012B002AFBD1181AD8
:1048300001387047FFFFFFFF00000000000000008C
:10484000790500008305000061050000690500008E
:10485000650500006D05000021050000450500000C
:10486000590500005D050000710500007505000098
:104870007F0400008B04000097040000A3040000E4
:10488000AF040000870500000000000000000000E9
:10489000F905000003060000E1050000E90500003D
:1048A000E5050000ED050000A1050000C5050000BC
:1048B000D9050000DD050000F1050000F505000048
:1048C000B5040000C1040000CD040000D9040000BC
:1048D000E5040000070600000000000000000000E2
:1048E00079060000830600006106000069060000EA
:1048F000650600006D060000210600004506000068
:10490000590600005D0600007106000075060000F3
:10491000EB040000F7040000030500000F05000091
:104920001B0500008706000074784576656E7420CC
:1049300066726F6D20506F727420412074726967C7
:10494000676572656400726F6C6C696E6720617276
:1049500072617900496E636F6D696E672042797488
:1049600065732066726F6D20506F7274204100492C
:104970004E2053594E4300486579204920666F7593
:104980006E64204964203A0057656972642062753C
:104990006666657273697A652C2073657474696ED6
:1049A000672073796E6320746F2066616C73650095
:1049B00054686572657320737475666620696E202D
:1049C00074686520555342206275666665722100E1
:1049D000526573657474696E6720436F756E746594
:1049E000722C207468652072656164207061636B4D
:1049F0006574207761733A000D0AFFFF4008FE439B
:104A000040A004404408FE4344A004400018FE4374
:104A100000C004403000FE43309004403400FE43A8
:104A2000349004401C18FE431CC004401018FE4380
:104A300010C004400818FE4308C004400C18FE4390
:104A40000CC004400C10FE430CB004401010FE4398
:104A500010B004401810FE4318B004401C10FE4370
:104A60001CB004401410FE4314B004400418FE436C
:104A700004C004400010FE4300B004400008FE43A0
:104A800000A004400408FE4304A004400C08FE43B8
:104A90000CA004400808FE4308A004401418FE437C
:104AA00014C004401818FE4318C004400410FE430C
:104AB00004B004400810FE4308B004401400FE4354
:104AC000149004404C08FE434CA004400420FE43D4
:104AD00004D004402410FE4324B004402010FE43C0
:104AE00020B004402810FE4328B004402C10FE43A0
:104AF0002CB004400020FE4300D004404808FE4390
:104B000048A004401000FE4310900440FFFFFFFF48
:104B100000000000000000004116000047160000E1
:104B20002D16000031160000351600003916000061
:104B30003D16000000000000000000000000000022
:104B40003D1A0000551A0000251A00002D1A000019
:104B5000291A0000311A0000B9190000CD1900000F
:104B6000ED190000F1190000F7190000FD1900000F
:104B7000051A0000151A0000351A0000391A000045
:104B80008919000095190000A1190000AD19000055
:104B9000651A0000491A0000000000000000000033
:104BA000511B0000691B0000391B0000411B000065
:104BB0003D1B0000451B0000CD1A0000E11A00005B
:104BC000011B0000051B00000B1B0000111B000057
:104BD000191B0000291B0000491B00004D1B000091
:104BE0009D1A0000A91A0000B51A0000C11A0000A1
:104BF000791B00005D1B00000000000000000000A9
:104C0000651C00007D1C00004D1C0000551C0000B0
:104C1000511C0000591C0000E11B0000F51B0000A6
:104C2000151C0000191C00001F1C0000251C0000A2
:104C30002D1C00003D1C00005D1C0000611C0000DC
:104C4000B11B0000BD1B0000C91B0000D51B0000EC
:104C50008D1C0000711C00000015191500010000DA
:104C60007289FF1F12000000000200009C89FF1FD4
:104C70004300000000030000F689FF1F0000000051
:104C8000010309048489FF1F0000000002030904D6
:104C9000E089FF1F0000000003030904FA89FF1FD9
:104CA0000000000000000000000000000000000004
:104CB000F8B500BFF8BC08BC9E467047350400003C
:104CC0008509000051160000811A0000951B0000A4
:104CD000A91C0000253600008D3C0000F1420000B8
:104CE0000000000004000100FFFFFFFF0A040109AB
:104CF0000A081201010102000040C01683040002EC
:104D00000102030118035400650065006E00730082
:104D100079006400750069006E006F0009024300AD
:104D2000020100C032090400000102020100052452
:104D300000100105240101010424020605240600D7
:104D4000010705820310004009040100020A000067
:104D50000007050302400000070584024000000030
:104D600016035500530042002000530065007200F6
:104D7000690061006C00040309040C0300000000DA
:104D80000000000000000000000000000000000023
:00000001FF
