:1000000000800020BD010000510900001D09000012
:100010001D0900001D0900001D0900001D09000048
:100020001D0900001D0900001D0900005109000004
:10003000510900001D090000510900000D090000D0
:100040005109000051090000510900005109000048
:100050005109000051090000510900005109000038
:100060005109000051090000510900005109000028
:100070005109000051090000510900005109000018
:100080005109000051090000510900005109000008
:1000900051090000510900005109000051090000F8
:1000A00051090000510900005109000051090000E8
:1000B00051090000510900005109000051090000D8
:1000C00051090000510900005109000051090000C8
:1000D00051090000510900005109000051090000B8
:1000E00051090000510900005109000051090000A8
:1000F00051090000B1200000510900006D270000E7
:10010000510900006D2C0000510900005109000048
:100110005109000051090000510900005109000077
:100120005109000051090000510900005109000067
:100130005109000051090000510900005109000057
:100140005109000051090000510900005109000047
:100150005109000051090000510900005109000037
:10016000510900006D0D0000510900005109000007
:100170005109000051090000510900005109000017
:100180005109000051090000510900005109000007
:1001900051090000510900005109000051090000F7
:1001A00051090000510900005109000051090000E7
:1001B000510900005109000051090000564B4CF252
:1001C000205210B51A804DF628121A8000BF00BFC9
:1001D00000F0C2FB514B4FF010621A60504A9A6017
:1001E000504ADA60A3F53043203B1A6812F480725B
:1001F00004D14D490A604FF4A8521A604B4B1A784B
:10020000110703D51A7842F008021A70484B2A22C7
:100210001A700023474A48499818884204D247492F
:10022000595899500433F5E7454A464B9A424FF0E6
:10023000000302D242F8043BF7E74349434A5958C6
:1002400099500433B3F5DE7FF7D1414B802103F899
:10025000011B40498B42F9D13F4B1A603F4B8A2228
:100260001A70A3F5805324225A70A0221A709A792A
:100270009207FCD59A79D406FCD4394B9A7902F0CE
:100280000C02082AF9D105221A7143225A719A796F
:100290009006FCD5324B9A795106FBD5314A4FF086
:1002A000817111600521516020221A702C4B9B79BD
:1002B00003F00C030C2BF9D12B4B2C4A1A602C4B5E
:1002C0002C4A1A6000225A60072243F8042C2A4A5A
:1002D000C3F80C2D62B600F02FFC134B1B68DA0735
:1002E00005D5264800F084FB254B264A1A60264B8C
:1002F0001B785B0609D5224C224A2368934204D11D
:100300001E4800F075FB0023236003F0DDFA00F0C7
:1003100029FB00F0F3FAFEE70E2005403080044090
:10032000823F04000100002B14D0034002D007409C
:1003300000E00740E087FF1F9088FF1FB83C0000E7
:100340009088FF1FD48CFF1F000000000082FF1F59
:1003500000E400E05FE400E008ED00E0005006404B
:10036000004006404480044004800440C010050062
:1003700014E000E03F19010000002020D9BB105814
:100380001CE00340A5C3945A00F00740FFFFFFFFA5
:10039000FFFFFFFFFFFFFFFFFFFFFFFFFFFFFFFF6D
:1003A000FFFFFFFFFFFFFFFFFFFFFFFFFFFFFFFF5D
:1003B000FFFFFFFFFFFFFFFFFFFFFFFFFFFFFFFF4D
:1003C000FFFFFFFFFFFFFFFFFFFFFFFFFFFFFFFF3D
:1003D000FFFFFFFFFFFFFFFFFFFFFFFFFFFFFFFF2D
:1003E000FFFFFFFFFFFFFFFFFFFFFFFFFFFFFFFF1D
:1003F000FFFFFFFFFFFFFFFFFFFFFFFFFFFFFFFF0D
:10040000FFFFFFFFFFFFFFFFFFFFFFFFDEF9FFFF23
:1004100010B5054C237833B9044B13B10448AFF33E
:1004200000800123237010BD9088FF1F0000000092
:10043000B83C000008B5064B1BB106480649AFF3AF
:1004400000800648036813B1054B03B1984708BD07
:1004500000000000B83C00009488FF1F9088FF1F38
:100460000000000010B583709DF80830C3709DF83F
:100470000C3003719DF8103001704270437110BD53
:1004800010B50023C0B000220DF803200133FF2B6C
:10049000F9D142788DF800308DF8013003788DF86D
:1004A000023004328378D2B28DF803200BB10323DB
:1004B00004E0C3780BB1042300E002238DF804307C
:1004C00003798DF8053043798DF806300223934285
:1004D00005DA1DF803000144C9B20133F7E7C94347
:1004E0000DF8021000249DF803309C420BDA1DF831
:1004F000041006480A22002300F0C0F9034800F067
:10050000ADF90134EFE740B010BD00BFB08AFF1F66
:10051000704708B50368C9B21B68984708BD08B59D
:100520000368C9B21B68984708BD08B50368C9B21B
:100530001B68984708BD08B50368C9B21B6898478F
:1005400008BD00207047704738B50C461146054677
:1005500002F0FEFD044901EB54012846B1FBF4F121
:10056000BDE8384002F0C2BC00449508034B03EBE1
:100570005103B3FBF1F102F0B9BC00BF0044950890
:1005800002F010BE02F046BE02F0E0BE02F006BF6E
:1005900002F0ECBE02F05CBE02F018BF02F06EBECC
:1005A00008B502F0C7FE012008BD02F079BE38B5DB
:1005B000054608460C4603F0ADF92146024628469A
:1005C000BDE8384002F06CBE38B5044608460D461A
:1005D00003F0A0F92368024629465B682046984745
:1005E0000546204600F03AF9284438BD38B50A22BD
:1005F0000023044600F042F90546204600F02EF99B
:10060000284438BD38B50D4C204602F0DFFE0C4BB7
:100610000C4A1A600C4B0D4A1A600D4B01252046FE
:1006200090211D6002F062FC204602F0CFFE2946B8
:100630000D20BDE8384000F00BBA00BFB088FF1FA6
:10064000A88CFF1F47050000A48CFF1FD5060000E3
:100650008C8CFF1F08B501210D2000F0D9F9064848
:10066000FFF70EFF4FF4FA6000F050FA0D20002162
:10067000BDE8084000F0CCB9C089FF1F10B50023C9
:10068000C0B000240DF803400133FF2BF9D18DF8E1
:10069000062006328DF8051011448DF8020008443A
:1006A0008DF800308DF80130C04304238DF80330FD
:1006B0008DF8070002236946082205488DF80430AA
:1006C000FFF773FF024802F0C3FD40B010BD00BF4A
:1006D000B088FF1F2DE9F0413C4F3B78002B4ED0F6
:1006E0003B4C3C483C493D4DFFF76EFF23889BB295
:1006F000032B85BF3A4BDB78042304332B80394826
:1007000002F024FEE0B122882B88314E92B29BB2D7
:100710009A4215D23348B6F8008002F027FE1FFA3D
:1007200088F82F4BC0B203F808003288294892B2EB
:10073000995CFFF75BFF338801339BB23380DEE7C0
:100740002288234B284E92B2042A29D823889BB2B0
:10075000032B03D9224BDB7804332B802A88238890
:1007600092B29BB2D31A336033683268002A23DD19
:10077000642B21DC042024210246FFF77FFF1B4964
:100780001448FFF721FF184B1248196800F0AEF823
:10079000104800F063F8164B01221A70BDE8F08192
:1007A0000F4AD1781A88033192B29142CEDA0422EC
:1007B000326000221A80DDE706480E49FFF704FF89
:1007C00000233B70238001233360D3E7E687FF1FBC
:1007D000AC88FF1FB08AFF1F9A390000E487FF1F13
:1007E000C088FF1FB088FF1F8C8CFF1FCA39000014
:1007F000C689FF1FA23900001FB5002403230193FF
:10080000009423460294022104220C48FFF72AFE9A
:100810000B4B4FF47A729A600A4A1A600A4A1C71AA
:100820001C735C734FF0FF331360084A1360084A6F
:10083000084B1360084A136004B010BDC089FF1F45
:10084000B088FF1F30390000948CFF1F8C8CFF1F75
:10085000A88CFF1F11050000A48CFF1F07B5064BD5
:100860001B88ADF80430036801A95B680222984731
:1008700003B05DF804FB00BFD839000070B5054631
:100880008AB022B90368C9B21B6898472CE0012AD4
:1008900008BF0A2221B930228DF82520212413E037
:1008A0002124B1FBF2F002FB1011C9B209290AAEF2
:1008B00094BF303137312644C9B206F8241C0146B2
:1008C00010B1013CE4B2ECE733B1013CE4B20AAB55
:1008D00023442D2203F8242C2B6801A95B682846A9
:1008E0002144C4F1220298470AB070BD0029BABF62
:1008F00049422D2300230A22FFF7C0BF08B5FFF7A6
:1009000081FEFFF7A7FE00F0FDFEFAE7024B1A6832
:1009100001321A60704700BFC889FF1F08B50B4C31
:100920002368580301D500F021FA2368590501D541
:1009300001F0BEFB23681A0501D501F017FF2368FB
:10094000DB04ECD502F092F9E9E700BF3480044003
:1009500008B5FFF7E3FFFFFF014B10221A80704735
:10096000002005407047FFFFEFF313839BB9EFF3BF
:10097000108098B9EFF3058323B10F2B04D9084AEF
:10098000985C01E04FF48070EFF311833BB1834238
:1009900038BF184670474FF0FF3070471846704711
:1009A000F0E300E010B50023B0FBF2F402FB14000A
:1009B000092894BF30303730C0B2C85420460CB13B
:1009C0000133F1E7CA18547022469A4206DA885C6D
:1009D000CC5C8C54C8540132013BF6E7084610BD8C
:1009E0001030024B43F82010704700BF0082FF1FF9
:1009F000044B054900221A600A60044A1060102264
:100A00001A60704714D0034004D0034000D0034064
:100A1000212810B518D80D4A52F8303093F880428A
:100A20003CB1012211B183F8802010BD83F8002170
:100A300010BD02EBC00043681A6811B142F0030216
:100A400001E022F002021A6010BD00BFDC39000094
:100A5000212810B537D81C4A02EBC00301295B6876
:100A6000144601D004290FD154F83020012082F817
:100A700080024FF4A2721A601A6804290CBF42F077
:100A8000200222F020021DE052F83020002082F8DF
:100A9000800211B18A1E012A12D84FF480720229F5
:100AA0001A6003D11A6842F003020BE003290AD14D
:100AB0001A6842F002021A601A6822F0010201E08C
:100AC00040F203121A6010BDDC39000072B60C4B04
:100AD0000C491A680C4B1B68096862B6490102D5BB
:100AE000322A88BF0133C2F58C32482102F23F120C
:100AF000B2FBF1F24FF47A7000FB0320704700BFA5
:100B000018E000E004ED00E0C889FF1F38B5044696
:100B1000FFF7DCFF054624B938BD013C0AD005F5D6
:100B20007A75FFF7D3FF401BB0F57A7FF5D200F05E
:100B3000E9FDF6E738BDFFFF204B4FF4000210B58A
:100B40001A604FF080721A604FF000721A604FF016
:100B500080621A604FF000621A60194B194A1A4CF1
:100B6000002048F6FF7118605960282313609360D5
:100B7000136193611362936213639363092222608A
:100B800004F58054043420606160A360236144F85C
:100B9000042C04F5FE2420600C4801600C490B6015
:100BA0008B600C4B1A6000F06BFF4FF4C870FFF7BE
:100BB000ADFFBDE8104000F0D7BB00BF08E100E08A
:100BC000048003400C8003400080034008800B40F9
:100BD0000C800B4000800B40F0B50C4B0C4C1A788D
:100BE00042F0020504EBC50682F00102706009487C
:100BF0001A700678002E0CBF8827C82786F00106D9
:100C000047EA0141067044F83510F0BD348AFF1FF1
:100C10000080FF1FAC8AFF1F431E032B10B510D8A6
:100C200072B6094A52F8230048B1416842F82310CD
:100C3000064A018832F81340611A22F8131062B68E
:100C400010BD002010BD00BF248AFF1FC08CFF1FF5
:100C5000013803280AD872B6054B53F8203000201B
:100C600013B101305B68FBE762B670470020704744
:100C7000788AFF1F10B572B60123174A1A4412F87A
:100C8000012C12071CD59900144A52F831402CB996
:100C900002EB431308305860114B09E041F00101A9
:100CA00052F8314064B902EBC103083058600D4B73
:100CB00042F831300C4B1A78013A1A7062B610BD06
:100CC0000133052BD9D162B6074B00221A70BDE85B
:100CD000104000F0C7BB00BF383C00000080FF1F81
:100CE00088004000C8004000A28AFF1F431E032B5B
:100CF00030B532D8194A400140F01000104472B6A5
:100D0000174CE25C032A09D8DFE802F01602180546
:100D10000830022213E00830042210E01148124A81
:100D200050F8234014B940F8231002E052F8230091
:100D3000416042F823100FE0032200E00522E25454
:100D400010F0080F01F108030A8843600CBF8823E4
:100D5000C82343EA0243036062B630BD0080FF1F30
:100D6000E089FF1F788AFF1F888AFF1F2DE9F84F4F
:100D7000AB4F3C78E4B214F0040F3D4619D0A94BB8
:100D80001B78A3B1A84A117801F0FF0321B1013B00
:100D9000DBB2137003B900BEA44A117801F0FF035F
:100DA00029B1013BDBB213700BB900F087FC0423BF
:100DB0003B7004F0080303F0FF02002B00F0678291
:100DC0009B4B9C4C1A78D2B215094FEA920840F01E
:100DD000E48104EBC803596854F83830C3F3830343
:100DE000013B0C2B00F2D681DFE813F09501950151
:100DF000D401D401D401D401D401D401B001D4016F
:100E0000D401D4010D008C4D0A684B688B486B608F
:100E100001218B4B44F838302A60DFF85082017092
:100E200092B240F2816000238242C8F80030236110
:100E3000A36117D8B2F5D06F80F01E81B2F5817F23
:100E400000F0CF8006D8802A00F0BA80822A00F015
:100E5000BB8031E140F202339A4200F0D180B2F51A
:100E6000A06F1CE042F22100824200F051810ED8B6
:100E7000B2F5086F00F09E80B2F5106F40F01C8153
:100E8000684B6C4EAA781A7006F180090AE042F2AB
:100E900021218A4200F0088142F221339A4200F077
:100EA0000F8109E1336A1B0603D5706A083800F028
:100EB000D9FA08364E45F5D10026B146DFF8B0A183
:100EC00056F80A0028B1D0F804B000F0CBFA584622
:100ED000F8E74AF806005B4BDFF898A1F05056F8A7
:100EE0000A0028B1D0F804B000F0BCFA5846F8E780
:100EF000554B4AF80600F050544B23F81900544B58
:100F000019F80320023A032A08D8DFE802F00204A5
:100F10000204002200E0012203F8092009F101097E
:100F2000B9F1040F06F10406C8D14A4B00221A7029
:100F300001269A46484A494B3244334412F8012C60
:100F40009B0012F0080F1A704FEA860925D000F0B6
:100F50006BFA38B104EB461308305860404B44F844
:100F6000393006E09AF8003044F8390001338AF845
:100F7000003000F059FA49F0010338B104EBC30224
:100F8000083050602E4A44F8332006E044F833001D
:100F90009AF8003001338AF8003049F00202013635
:100FA00049F003090023052E44F8323044F8393063
:100FB000C0D186E01B4B2B4C1B7823700B4683E083
:100FC000284C237063707EE0AA88042A74D8254CCC
:100FD000920023706370244B9B5C9E0773D5217035
:100FE00071E0AA8802F07F02042A65DC6B88002B7E
:100FF00062D191001C4A0A44117821F0020159E0A3
:10100000AA8802F07F02042A56DC6B88002B53D199
:101010009100154A0A44117841F002014AE000BFEC
:1010200080200740AB8AFF1F358AFF1FC08AFF1F41
:10103000902007400080FF1F988AFF1FAC8AFF1F87
:10104000C8004000D089FF1F888AFF1FC08CFF1F87
:10105000E089FF1FA28AFF1F383C000030C8011042
:1010600088004000A38AFF1FC0200740CC89FF1FD3
:10107000248AFF1F788AFF1F6A88A9889F4B53F82C
:10108000084CA3F10C00BCB133F80C6C964209D1AA
:1010900033F80A6C8E4205D1120A032A0CBF23785A
:1010A000038911E00C33EAE7954A1168954A11600B
:1010B000A978954A117004E0944B0F221A7027E02A
:1010C00000231C4600E00223EE88B34238BF1E46D0
:1010D000402E34BF3546402520462946FFF77CFD8B
:1010E000761B2C4403D1402D12D1354603E0402E0F
:1010F00034BF3546402520462946FFF76DFD761B57
:101100002C4401D1402D03D1814AC8F800401680FB
:101110000122804B3DE0804B1A8842F221039A4223
:1011200010D100237D4AC85C98540133072BF9D1B4
:101130001368862B02D17A4B0F221A7000200146C9
:10114000FFF74AFD774B44F8383023E0764E356898
:10115000B5B1DFF8BC81B8F80090B9F1400F34BFE9
:101160004C46402428462146FFF736FDC4EB0903D0
:101170009BB2A8F800300BB9402C00D12B1933607A
:10118000654B1A88B2F5A06F04D100225A709A7884
:10119000664B1A7001225F4B6CE004EBC806013D00
:1011A000736802F00802A3F10800EDB202F0FF013B
:1011B000002A36D000F056F95D485E4B50F82520E5
:1011C000EAB1516840F8251002F108017160595DDB
:1011D00003290BD8DFE801F002040608032104E02C
:1011E000022102E0052100E00421595516F0080F04
:1011F00012880CBF8823C82343EA024342E05A5DA9
:10120000032A07D8DFE802F040400204002206E08B
:10121000012204E016F0080F0CBF022203225A55E7
:1012200032E054F83820120C23F8082C22B3DFF8EF
:1012300034E123F8061C43F8041C5EF825303E49CF
:1012400013B94EF8250002E051F8253058603B4BA9
:1012500041F8250033F815100A4423F8152000F052
:10126000E3F810B10830706006E0354B44F8380000
:101270001A7801321A7007E02A4B324A16F0080F2A
:1012800008BF134644F8383008233B7070E5E00788
:101290001FD520492B482C4C02230B702B4B1A7066
:1012A0002B4B186098602B48D8601A619A615C607B
:1012B000164B0D2018702848FF2303702B70027402
:1012C000264A1370264B9F221A7001230B70BDE82B
:1012D000F88F210604D50D4B0D221A7080232B7038
:1012E000A20705D51C4B1A78D2B21A7002232B70B4
:1012F000E30644BF10232B70BDE8F88F483C000084
:10130000C889FF1FD08CFF1FD08AFF1FC020074055
:10131000A08AFF1F94200740988AFF1FC88CFF1FD8
:10132000358AFF1FC8004000CC89FF1F9820074066
:10133000788AFF1FE089FF1FD089FF1FC08CFF1F25
:10134000A28AFF1F88004000E489FF1F348AFF1F24
:101350000080FF1F388AFF1F882007408C2007402D
:1013600084200740248AFF1F08B501F0E7FC002213
:101370001A4B0021D15098180832882A4160F7D1C1
:10138000174A106840F48020106002F52832683255
:10139000C3F307201070C3F307401B0E10751376BC
:1013A000FF2302F81C3C02F8143C02F88C3C012399
:1013B00002F8083C82F8641002F8183C094B7022CD
:1013C0006FF450711A700B444FF400721A6003F1FD
:1013D000C04303F5C82310221A7008BD0080FF1F08
:1013E0003480044049E400E000F0A0B800F05CB8AC
:1013F00000F080B800F034B900F0A6B8084600F05C
:1014000023B90846114600F0B7B87047044B0022D4
:101410001A714FF47A711A73024A99601A60704710
:10142000B08AFF1FF83A000072B60C4A1168B1FA90
:1014300081F30B2B02D962B6002070474FF00040B9
:10144000D84021EA0001116062B6054948225343A1
:10145000C8180022CA504260704700BFE887FF1FCB
:101460008084FF1F0C4B4822C31AB3FBF2F30B2BF3
:1014700011D80A4A127822B1094A12780AB1FFF744
:10148000F9BB72B6074A4FF0004121FA03F3116825
:101490001943116062B670478084FF1FA28AFF1F44
:1014A000AB8AFF1FE887FF1F10B5104C23686BB194
:1014B00020684288531C0244147A0288934212D353
:1014C000FFF7D0FF094B00221A600DE0084B1B7894
:1014D00013B94FF0FF3010BD0320FFF79DFB2060D4
:1014E0000028E5D1F5E74380204610BDCC8AFF1FD8
:1014F000AB8AFF1F10B50B4C236813B123686BB97F
:1015000002E0094B1B7813B94FF0FF3010BD0320E8
:10151000FFF782FB20600028F0D1F5E75A881344DA
:10152000187A10BDCC8AFF1FAB8AFF1F044B988826
:10153000044B1B681BB11A885B88D31A1844704788
:10154000C08CFF1FCC8AFF1F10B5094B1B786BB1F5
:10155000084C206818B1FFF785FF002323600320A3
:10156000FFF75AFB10B1FFF77DFFF8E710BD00BF92
:10157000AB8AFF1FCC8AFF1F2DE9F8432D4E0123B4
:1015800007460C463370002C4FD02B4D2B68A946D4
:101590002BBB48F60148294B1B7803F0FF020BB91F
:1015A000327015E00420FFF753FB072808D8012309
:1015B0003370FFF739FFC9F8000080B91D4B187070
:1015C000B8F101081E4B01D01A782AB101221A7015
:1015D0004FF0FF30BDE8F88300F094F8DBE72968AE
:1015E000174A488800231370C0F14002944238BF64
:1015F000224600F1080C10448C444880A41A9342FF
:1016000004D0F85C0CF803000133F8E71F444B8862
:101610003F2B06D940230B800420FFF767FB0023F4
:101620002B60084B05221A70ADE734702046BDE8E8
:10163000F88300BFC18AFF1FC48AFF1FAB8AFF1F48
:10164000C88AFF1FC08AFF1F07B502AB012103F83C
:10165000010D1846FFF790FF03B05DF804FBFFFF94
:101660002DE9F041114B1B78F3B1114E114B346849
:10167000114D01271F7098464CB1002763882F70C9
:10168000042023802146FFF731FB376009E0FFF794
:10169000CBFE014620B104202C70FFF727FB00E0B1
:1016A0002F70002388F80030BDE8F081AB8AFF1F5F
:1016B000C48AFF1FC18AFF1FC08AFF1F38B50E4BA7
:1016C0001B7803F0FF05ABB90C4C216831B14B8896
:1016D0000B800420FFF70AFB256038BDFFF7A4FE4E
:1016E000014620B10420BDE83840FFF7FFBA044BA3
:1016F00001221A7038BD00BFC18AFF1FC48AFF1FB4
:10170000C08AFF1F10B50E4C2378BBB9012323708C
:10171000FFF70CFF08B1FFF778FE00F053FC08B1AB
:1017200000F08AF800F0ACFF08B100F00FF901F00A
:1017300039FA08B100F094F90023237010BD00BFFE
:10174000D18AFF1F08B50368C9B21B68984708BD56
:1017500008B50368C9B21B68984708BD08B5036897
:10176000C9B21B68984708BD08B50368C9B21B68B1
:10177000984708BD034800EB5100B0FBF1F000F0C2
:10178000DBB900BF0044950810B5064800EB5100D6
:101790001446B0FBF1F000F0CFF92046BDE8104050
:1017A00000F02EBA0044950800F054BA084600F044
:1017B00085BA084600F0D4BA0846114600F09ABA35
:1017C00008B5084600F0F2FA003018BF012008BD45
:1017D00008B5084600F00CFB003018BF012008BD1A
:1017E00000F0F0BB00F028BC00F0FCBB00F0CEBB6A
:1017F00000F03ABC00F0D4BB08B5084600F01EFB70
:10180000012008BD08B5084600F018FB012008BDFE
:1018100010B508461446114600F05AFB204610BD8C
:1018200038B508460D4602F075F8044621462846AC
:1018300000F04EFB204638BD7047FFFF044B0022EE
:101840001A714FF47A711A73024A99601A607047DC
:10185000D48AFF1F203B000008B50368C9B21B688B
:10186000984708BD08B50368C9B21B68984708BD0A
:1018700008B50368C9B21B68984708BD08B5036876
:10188000C9B21B68984708BD034800EB5100B0FB84
:10189000F1F000F091BC00BF0044950810B5064877
:1018A00000EB51001446B0FBF1F000F085FC20463F
:1018B000BDE8104000F0E4BC0044950800F00ABD0B
:1018C000084600F05FBD084600F0AEBD0846114670
:1018D00000F074BD08B5084600F0CEFD003018BF1A
:1018E000012008BD08B5084600F0E8FD003018BF2B
:1018F000012008BD00F0C4BE00F0FCBE00F0D0BE68
:1019000000F0A2BE00F00EBF00F0A8BE08B5084669
:1019100000F0F2FD012008BD08B5084600F0ECFD1E
:10192000012008BD10B508461446114600F02EFEF1
:10193000204610BD38B508460D4601F0EBFF0446C1
:101940002146284600F022FE204638BD7047FFFFA2
:10195000044B00221A714FF47A711A73024A99608B
:101960001A607047E48AFF1F803B000008B50368D7
:10197000C9B21B68984708BD08B50368C9B21B689F
:10198000984708BD08B50368C9B21B68984708BDE9
:1019900008B50368C9B21B68984708BD034800EB47
:1019A0005100B0FBF1F000F065BF00BF00A24A0497
:1019B00010B5064800EB51001446B0FBF1F000F002
:1019C00059FF2046BDE8104000F096BF00A24A042F
:1019D00000F0BCBF084600F0EDBF084601F02EB88D
:1019E0000846114601F002B808B5084601F028F88B
:1019F000003018BF012008BD08B5084601F042F8C4
:101A0000003018BF012008BD01F0CCB801F004B9C6
:101A100001F0D8B801F0AAB801F016B901F0B0B8D9
:101A200008B5084601F04CF8012008BD08B5084685
:101A300001F046F8012008BD10B5084614461146CD
:101A400001F088F8204610BD38B508460D4601F073
:101A500061FF04462146284601F07CF8204638BD47
:101A60007047FFFF044B00221A714FF47A711A730A
:101A7000024A99601A607047F48AFF1FE03B000039
:101A800010B5204B2048214960221A70E1225A707B
:101A90001F4B204A1C78204B082C01D1012402E066
:101AA0000A2C03D119240460132005E00C2C0CBF70
:101AB00015243D2404601220086014601860174B40
:101AC00017491B78174A03B101230B601360164BAB
:101AD000164A1978164B012901D880210BE00429F8
:101AE00001D8842107E0082901D8852103E01029C5
:101AF00094BF86218721116019600E4B01221A7054
:101B000010BD00BF0040074008B003400CB00340C8
:101B1000EC87FF1F08B00B400CB00B40058BFF1F7C
:101B200020B0034020B00B40ED87FF1F24B00340DE
:101B300024B00B40048BFF1F234B1A6842F48062D1
:101B40001A60224A00231370214A1370214A13702D
:101B5000214A1370214A1370214B1B782BB1152B8E
:101B600007D140F213321F4B02E01F4B40F21332F9
:101B70001A601E4B1B78012B05D0052B07D14FF4A3
:101B800051721B4B02E01B4B4FF451721A601A4BFF
:101B9000C0F344321A70C0F347125A700221042273
:101BA00000F01F0098729A70D9745A7588221A74BE
:101BB0003C22DA70114B40226FF44A711A700B44C8
:101BC0004FF400521A607047348004408F8BFF1F1F
:101BD0000D8BFF1F988BFF1F908BFF1F0C8BFF1F20
:101BE0004E8BFF1F18C0044040A00440EE87FF1F2B
:101BF0001CC0044044A0044000A006402DE400E0C6
:101C0000134A937800F0030103F0EC030B43410700
:101C100048BF43F01003937000F00F03042B0C49EE
:101C200003D18B7943F040038B715379C20603F0E3
:101C3000EF03074A48BF43F01003537193798106BD
:101C400003F0EF0348BF43F010039371704700BFE8
:101C500000A0064008B5114B1B685B0500D408BD09
:101C60000F4B1A7802F0FF0312B1FFF74BFDF7E7B5
:101C70000C4A4FF4005111600B4A0C49D37040F2EA
:101C800003120A604A600A4A13700A4A13700A4B28
:101C90001B680BB101221A7008BD00BF34800440DC
:101CA0000C8BFF1F84E100E000A0064040A0044030
:101CB0008F8BFF1F0D8BFF1F088BFF1F38B504464E
:101CC000094B1B7803F0FF05002BF9D120460121B9
:101CD000FEF7BEFE20462946FEF79AFE034B53F858
:101CE0003420034B1A6038BD0C8BFF1FDC39000019
:101CF000948BFF1F10B509B140F08000144A13788F
:101D00009842144622D0134A126852051DD503F09A
:101D10007F03012B04D0052B05D100220E4B01E0DF
:101D20000E4B00221A60002900F07F020CBF4423F2
:101D30006023012A05D0052A07D143F44073064ADF
:101D400002E0064A43F440731360207010BD00BFE8
:101D5000EE87FF1F348004401CC0044044A00440B0
:101D60000E4A1378984218D00D490968490513D5D1
:101D70002BB1152B05D10B4B0021196001E00A494D
:101D80000B6028B1152807D140F21331054B02E052
:101D9000054B40F213311960107070474E8BFF1FD6
:101DA0003480044018C0044040A004400D4A38B5B7
:101DB000146814F480624FF0000410D021280A4DFA
:101DC0000AD80A4A012152F830302B60FEF740FE53
:101DD0002B681C70012038BD2C60204638BD104691
:101DE00038BD00BF34800440088BFF1FDC39000081
:101DF0000E4B1B6813F4806316D012280C4B03D1D2
:101E000040F202310B4A04E0142809D10A4A40F298
:101E1000023111605A7B42F001025A73012070476F
:101E20005A7B02F0FE025A7300207047348004404F
:101E300000A006400CA0044014C00440F8B51D4B9F
:101E40001B685A05064633D51B4B1B680BB1012294
:101E50001A701A4B1C780134402C1F4628BF0024EE
:101E6000174D2B78A34218D1FEF77EFD40280FDCDA
:101E7000144A13791B06F3D52B7813490133402BF1
:101E800028BF0023C95CDBB2C9B2D1712B70E7E770
:101E9000FF28E5DDFFF736FCE2E70B4BF6B21E55F7
:101EA0000A4B01221A70074BE4B2BC223C70DA7074
:101EB000F8BD00BF34800440948BFF1F988BFF1F38
:101EC000908BFF1F00A006400E8BFF1F0C8BFF1F87
:101ED000274B1B685A052DE9F04707468A4644D52B
:101EE000244B1B680BB101221A703D4607EB0A0315
:101EF0009D4237D2DFF890801F4E98F8004096F848
:101F000000900134402C28BF00245FFA89F9A145D4
:101F10001DD11A4BBC22DA70FEF726FD40280FDCDB
:101F2000164A13791B060FD5337815490133402B18
:101F300028BF0023C95CDBB2C9B2D171337003E0A2
:101F4000FF2801DDFFF7DEFB33784B45E4D00C4B77
:101F500015F8012B1A550B4B0122E4B21A7088F8C0
:101F60000040C3E7054BBC22DA70BDE8F08700BF34
:101F700034800440948BFF1F908BFF1F00A006400D
:101F80000E8BFF1F0C8BFF1F988BFF1F08B5034B99
:101F90001B7813B1FFF7B6FBF9E708BD0C8BFF1FE9
:101FA000064A074B1B781078DBB2C0B283422CBFC5
:101FB0003F3000F1FF30C01A704700BF908BFF1F09
:101FC000988BFF1F054B1878054B1B78C0B2DBB20E
:101FD000984238BF4030C01A704700BF8F8BFF1F38
:101FE0000D8BFF1F10B5104B10491A780B78D2B229
:101FF000DBB29A4214D00133402B28BF00230C4897
:10200000DCB2C05C0C700B490968C0B251B19A4295
:1020100038BF4032D31A1A2B04DC00230B7010BDDA
:102020004FF0FF3010BD00BF8F8BFF1F0D8BFF1FC8
:102030004F8BFF1F088BFF1F084B1A78084B1B782C
:10204000DBB29A4207D00133402B28BF0023054A58
:10205000D05CC0B270474FF0FF3070478F8BFF1FCE
:102060000D8BFF1F4F8BFF1F0C4B1B685B0514D59F
:102070000B4BDA7802F0CB02DA7040225A74DA782D
:1020800042F03402DA70074B1A78074BD2B21A705A
:10209000064B1B680BB100221A7070473480044055
:1020A00000A006400D8BFF1F8F8BFF1F088BFF1FAB
:1020B00030B5374B1A7912F0300F31D072B69A7DA5
:1020C00002F0FF0022B9DA7940225A7462B627E0A2
:1020D00062B6304A304913780978DBB2C9B2144687
:1020E0002B4AD5795A1C402A28BF00228A42EDB2D9
:1020F00002D02A4B9D541346421E12F0FF00EFD12E
:10210000DAB22270264A126852B18B4236BFC1F150
:102110004001C1EB03035B18272BC4BF01231370DD
:102120001B4BD978C9B20C0620D51B7918061DD5D2
:102130001C4B1D4A1D781378EDB2DBB21046AB4242
:102140000CD0134A0133402B1479184C28BF0023BC
:10215000E45CE4B2D471127D072AF0D9DBB20370DB
:102160000B4B1A79120644BF7C22DA704B060ED54F
:10217000074B1A7912F0400F194608D00C4B002279
:102180001A700C4B1B6803B11A703C23CB7030BD26
:1021900000A006408F8BFF1F0D8BFF1F4F8BFF1F73
:1021A000088BFF1F988BFF1F908BFF1F0E8BFF1F4D
:1021B0000C8BFF1F948BFF1F234B1A6842F40062A5
:1021C0001A60224A00231370214A1370214A1370A7
:1021D000214A1370214A1370214B1B78092B05D01B
:1021E0001A2B07D140F213321E4B02E01E4B40F275
:1021F00013321A601D4B1B780A2B05D01F2B07D1F9
:102200004FF451721A4B02E01A4B4FF451721A609C
:10221000194BC0F344321A70C0F347125A7000F0E1
:102220001F000422022198729A70D9745A7588226C
:102230001A743C22DA70114B40221A70A3F22B332D
:102240004FF400421A607047348004400A8CFF1F2C
:10225000A18BFF1F108CFF1F0B8CFF1FA08BFF1F7C
:10226000EF87FF1F04D004400CB00440F087FF1F2D
:1022700000D0044010B0044000B006402FE400E05D
:10228000134A937800F0030103F0EC030B4341077A
:1022900048BF43F01003937000F00F03042B0C4968
:1022A00003D18B7943F040038B715379C20603F05D
:1022B000EF03074A48BF43F0100353719379810637
:1022C00003F0EF0348BF43F010039371704700BF62
:1022D00000B0064008B51E4B1B681B0500D408BDA6
:1022E0001C4B1B7803F0FF0213B1FFF70BFAF7E763
:1022F000194B4FF400411960184BDA70184B1B78DA
:10230000092B05D01A2B07D140F20312154B02E01E
:10231000154B40F203121A60144B1B7803F07F0335
:102320000A2B05D01F2B07D140F20312104B02E0FD
:10233000104B40F203121A600F4A002313700F4A29
:1023400013700F4B1B680BB101221A7008BD00BF40
:1023500034800440A08BFF1F84E100E000B0064001
:10236000EF87FF1F04D004400CB00440F087FF1F2C
:1023700000D0044010B004400A8CFF1FA18BFF1F47
:102380009C8BFF1F38B50446094B1B7803F0FF05F3
:10239000002BF9D120460121FEF75AFB20462946A1
:1023A000FEF736FB034B53F83420034B1A6038BD5D
:1023B000A08BFF1FDC3900000C8CFF1F10B509B18A
:1023C00040F08000144A13789842144622D0134AF1
:1023D000126812051DD503F07F030A2B04D01F2BB2
:1023E00005D100220E4B01E00E4B00221A6000299D
:1023F00000F07F020CBF442360230A2A05D01F2A65
:1024000007D143F44073064A02E0064A43F440739E
:102410001360207010BD00BFF087FF1F34800440A0
:1024200000D0044010B004400F4A137898421AD0EC
:102430000E490968090515D5092B04D01A2B05D1B9
:1024400000210B4B01E00B4B00211960092805D03E
:102450001A2807D140F21331054B02E0054B40F238
:102460001331196010707047EF87FF1F34800440EC
:1024700004D004400CB004400D4A38B5146814F47C
:1024800000624FF0000410D021280A4D0AD80A4AF1
:10249000012152F830302B60FEF7DAFA2B681C70FD
:1024A000012038BD2C60204638BD104638BD00BF25
:1024B000348004409C8BFF1FDC3900000B4B1B68F1
:1024C00013F4006310D01728094B09D1094A40F2D0
:1024D000023111605A7B42F001025A7301207047A9
:1024E0005A7B02F0FE025A73002070473480044089
:1024F00000B0064008B00440F8B51D4B1B681A0533
:10250000064633D51B4B1B680BB101221A701A4BC0
:102510001C780134282C1F4628BF0024174D2B7827
:10252000A34218D1FEF720FA40280FDC144A137991
:102530001B06F3D52B7813490133282B28BF002322
:10254000C95CDBB2C9B2D1712B70E7E7FF28E5DDCA
:10255000FFF7D8F8E2E70B4BF6B21E550A4B012203
:102560001A70074BE4B2BC223C70DA70F8BD00BFB1
:10257000348004400C8CFF1F108CFF1F0B8CFF1F3E
:1025800000B00640A28BFF1FA08BFF1F274B1B68CC
:102590001A052DE9F04707468A4644D5244B1B68A7
:1025A0000BB101221A703D4607EB0A039D4237D258
:1025B000DFF890801F4E98F8004096F800900134A4
:1025C000282C28BF00245FFA89F9A1451DD11A4B98
:1025D000BC22DA70FEF7C8F940280FDC164A1379DE
:1025E0001B060FD5337815490133282B28BF00234C
:1025F000C95CDBB2C9B2D171337003E0FF2801DDE1
:10260000FFF780F833784B45E4D00C4B15F8012BDD
:102610001A550B4B0122E4B21A7088F80040C3E748
:10262000054BBC22DA70BDE8F08700BF348004405F
:102630000C8CFF1F0B8CFF1F00B00640A28BFF1FEE
:10264000A08BFF1F108CFF1F08B5034B1B7813B125
:10265000FFF758F8F9E708BDA08BFF1F064A074BA4
:102660001B781078DBB2C0B283422CBF273000F158
:10267000FF30C01A704700BF0B8CFF1F108CFF1F6C
:10268000054B1878054B1B78C0B2DBB2984238BFB7
:102690004030C01A704700BF0A8CFF1FA18BFF1F7C
:1026A00010B5104B10491A780B78D2B2DBB29A42AF
:1026B00014D00133402B28BF00230C48DCB2C05C8F
:1026C0000C700B490968C0B251B19A4238BF403210
:1026D000D31A1A2B04DC00230B7010BD4FF0FF300F
:1026E00010BD00BF0A8CFF1FA18BFF1FCA8BFF1FED
:1026F0009C8BFF1F084B1A78084B1B78DBB29A4261
:1027000007D00133402B28BF0023054AD05CC0B25C
:1027100070474FF0FF3070470A8CFF1FA18BFF1FDF
:10272000CA8BFF1F0C4B1B681B0514D50B4BDA78AB
:1027300002F0CB02DA7040225A74DA7842F03402A6
:10274000DA70074B1A78074BD2B21A70064B1B6827
:102750000BB100221A7070473480044000B006406C
:10276000A18BFF1F0A8CFF1F9C8BFF1F30B5374BBF
:102770001A7912F0300F31D072B69A7D02F0FF0054
:1027800022B9DA7940225A7462B627E062B6304A3A
:10279000304913780978DBB2C9B214462B4AD5798F
:1027A0005A1C402A28BF00228A42EDB202D02A4B8E
:1027B0009D541346421E12F0FF00EFD1DAB2227090
:1027C000264A126852B18B4236BFC1F14001C1EBBB
:1027D00003035B18272BC4BF012313701B4BD9784D
:1027E000C9B20C0620D51B7918061DD51C4B1D4AF5
:1027F0001D781378EDB2DBB21046AB420CD0134A11
:102800000133282B1479184C28BF0023E45CE4B270
:10281000D471127D072AF0D9DBB203700B4B1A7901
:10282000120644BF7C22DA704B060ED5074B1A798C
:1028300012F0400F194608D00C4B00221A700C4BB6
:102840001B6803B11A703C23CB7030BD00B006404A
:102850000A8CFF1FA18BFF1FCA8BFF1F9C8BFF1FC2
:10286000108CFF1F0B8CFF1FA28BFF1FA08BFF1F65
:102870000C8CFF1F174B1A6842F480521A60164ADC
:1028800000231370154A1370154A1370154A1370FC
:10289000154A1370154A40F2133111604FF451710B
:1028A0005160134AC0F344311170C0F3471100F076
:1028B0001F0051709072937013742C23D3700D4BC2
:1028C00040226FF44B711A700B444FF400321A60BF
:1028D000704700BF34800440828CFF1F198CFF1F9B
:1028E000888CFF1F838CFF1F188CFF1F08C00440BB
:1028F00000C0064031E400E0134A937800F0030181
:1029000003F0EC030B43410748BF43F010039370FF
:1029100000F00F03042B0C4903D18B7943F04003E3
:102920008B715379C20603F0EF03074A48BF43F0A7
:10293000100353719379810603F0EF0348BF43F00E
:1029400010039371704700BF00C0064008B5114BDB
:102950001B68DB0400D408BD0F4B1A7802F0FF039C
:1029600012B1FEF7CFFEF7E70C4A4FF400311160C9
:102970000B4A0C49D37040F203120A604A600A4ABB
:1029800013700A4A13700A4B1B680BB101221A70AC
:1029900008BD00BF34800440188CFF1F84E100E0B4
:1029A00000C0064008C00440828CFF1F198CFF1F26
:1029B000148CFF1F38B50446094B1B7803F0FF0544
:1029C000002BF9D120460121FEF742F82046294686
:1029D000FEF71EF8034B53F83420034B1A6038BD42
:1029E000188CFF1FDC390000848CFF1F10B509B163
:1029F00040F080000E4A1378984217D00D4C24689E
:102A0000E40412D503F07F03082B02D10A4B002403
:102A10001C60002900F07F030CBF44216021082BBB
:102A200003D1054B41F440711960107010BD00BF17
:102A3000F187FF1F348004400CC004407047FFFF43
:102A40000D4A38B5146814F480524FF0000410D0C9
:102A500021280A4D0AD80A4A012152F830302B6049
:102A6000FDF7F6FF2B681C70012038BD2C60204656
:102A700038BD104638BD00BF34800440148CFF1FA1
:102A8000DC3900000B4B1B6813F4805310D00E2868
:102A9000094B09D1094A40F2023111605A7B42F0D8
:102AA00001025A73012070475A7B02F0FE025A73EA
:102AB000002070473480044000C0064004C0044039
:102AC000F8B51D4B1B68DA04064633D51B4B1B6853
:102AD0000BB101221A701A4B1C780134282C1F46A6
:102AE00028BF0024174D2B78A34218D1FDF73CFFD7
:102AF00040280FDC144A13791B06F3D52B781349B1
:102B00000133282B28BF0023C95CDBB2C9B2D171C5
:102B10002B70E7E7FF28E5DDFEF7F4FDE2E70B4B5E
:102B2000F6B21E550A4B01221A70074BE4B2AC22D2
:102B30003C70DA70F8BD00BF34800440848CFF1F05
:102B4000888CFF1F838CFF1F00C006401A8CFF1F5C
:102B5000188CFF1F38B504464518AC4204D014F851
:102B6000010BFFF7ADFFF8E738BDFFFF08B5034BDA
:102B70001B7813B1FEF7C6FDF9E708BD188CFF1FDF
:102B8000064A074B1B781078DBB2C0B283422CBFD9
:102B9000273000F1FF30C01A704700BF838CFF1F41
:102BA000888CFF1F054B1878054B1B78C0B2DBB231
:102BB000984238BF4030C01A704700BF828CFF1F58
:102BC000198CFF1F10B5104B10491A780B78D2B230
:102BD000DBB29A4214D00133402B28BF00230C48AB
:102BE000DCB2C05C0C700B490968C0B251B19A42AA
:102BF00038BF4032D31A1A2B04DC00230B7010BDEF
:102C00004FF0FF3010BD00BF828CFF1F198CFF1FDB
:102C1000428CFF1F148CFF1F084B1A78084B1B783F
:102C2000DBB29A4207D00133402B28BF0023054A6C
:102C3000D05CC0B270474FF0FF307047828CFF1FEE
:102C4000198CFF1F428CFF1F054B1A78054BD2B21F
:102C50001A70054B1B680BB100221A70704700BF39
:102C6000198CFF1F828CFF1F148CFF1F10B5294B7E
:102C70001A79920620D5284AD87913782749013342
:102C8000402B097828BF00238B42C0B203D02449CF
:102C9000C854D9B21170234A116869B1224A127816
:102CA000D2B2934236BFC2F14002C2EB03039B187B
:102CB000272BC4BF01230B70164AD178C9B20C066A
:102CC00016D51379180613D5184B17481C780378B6
:102CD000DBB29C4202D16C23D37009E00133282B74
:102CE00028BF0023124CE45CDBB2E4B2D471037061
:102CF0004B060ED5074B1A7912F0400F194608D033
:102D00000C4B00221A700C4B1B6803B11A702C2359
:102D1000CB7010BD00C00640828CFF1F198CFF1FB6
:102D2000428CFF1F148CFF1F838CFF1F888CFF1F9A
:102D30001A8CFF1F188CFF1F848CFF1F1FB572B6E3
:102D4000154B70221A70154A412111700F2102F89B
:102D5000011C80221A701A781206FCD5104B1868D4
:102D600062B6104B984298BF0A2301AC98BF5843F3
:102D700021460A22FDF716FE0023E15C0A4A29B12A
:102D800002EB430001330A2B4180F6D101335B0093
:102D9000137004B010BD00BF0000024007000240E5
:102DA000080002407F9698007A88FF1F08B5024B02
:102DB0001B68984708BD00BFA88CFF1F30B51A4993
:102DC0001A4B0A791A701A481A4B0C681A78037849
:102DD000E48A13FA84F33F2BD2B288BF403B9A4275
:102DE0000446154812D093424FF0010588BF403287
:102DF0000570D01A72B60A680979D58A80B2D08275
:102E0000D58BD0830D4A117062B605E000220270A6
:102E10000B4A4FF4804111600A4A12680AB100213E
:102E20001170DBB2237030BD9C8CFF1F1F800040EF
:102E3000BC8CFF1F9A8CFF1FB08CFF1F1B800040B3
:102E400004E200E0AC8CFF1F08B5024B1B689847FA
:102E500008BD00BFA48CFF1F10B5044600F004FDA0
:102E6000204610BD10B5184B1A79184B1A70184A25
:102E70001378013303F03F03D9B21170154A11687A
:102E8000154A1468621C154A0FD015480078C0B264
:102E9000834236BFC0F14000C0EB0300C01880B2CF
:102EA000A04208DA4C1C02D109E0481C03D00D48AE
:102EB000C35C8B4203D10C4B4FF400511960136873
:102EC00001221A6010BD00BFB48CFF1F1F8000409C
:102ED000B28CFF1F948CFF1F8C8CFF1F908CFF1FE8
:102EE000B18CFF1F0084FF1F04E200E02DE9F84FC2
:102EF000834B01221A60834B40F213341C604FF461
:102F000051745C60804BC1F344341C70C1F34714AE
:102F100001F01F015C709972002199700221D9742F
:102F20005A7588221A74AC22DA70A022DA72427BB7
:102F30001AB19A7842F080029A70744FDFF804B2A6
:102F40003B68DFF804A21A69C3F810B01A6839792F
:102F5000C3F800A04026DA8BDE83DA8ADFF8EC8142
:102F60006B48DE8201F11002002401254FF0300988
:102F70001C755C759C711C765C769C76DC761D718C
:102F80005C711D725C729C72DC721C735C739C734E
:102F9000DC7383F8079048F822004A11920002F18E
:102FA000604202F5614201F01F0105FA01F1116072
:102FB0009A8B998B92B242F002029A839A8B998BE8
:102FC000544992B242F008029A833B7903F180435C
:102FD00003F5043383221C702E201A70FDF700FDC8
:102FE0004D4B4E48C0221A704FF4804303603B792A
:102FF00003F1604303F564431E703B7903F16043C2
:1030000003F564431A78464B1A80464A13681968D8
:10301000C3F800B0AAF13F011F691961D98BDE83A3
:103020001C715C71DC711C735C739C73DC731D75AB
:103030005C751D725C729C72DC721C765C769C7690
:10304000DC76D98A83F80690DE821679364F06F14F
:10305000100148F821707111890001F1604101F5FA
:10306000614106F01F06B5400D60998B9D8B89B2BA
:1030700041F002019983137903F1804303F504338E
:1030800005461C7036231446284A1178994233D0DD
:10309000274901328A42F8D1227902F1804202F5B1
:1030A000043263F07F03DBB213702379214903F10B
:1030B000804303F5043300221A7082221A702D20F7
:1030C000FDF78EFC1C4BC0221A704FF400532B608E
:1030D000237903F1604303F5644340221A702368A7
:1030E000164A03F1160111600122C3F81620144B91
:1030F00022791A70BDE8F88F0133402BC4D1D4E790
:10310000A806904240A0044000A006409C8CFF1FEF
:10311000BD2D0000AD2D00002EE400E004E100E034
:10312000988CFF1FB48CFF1F652E0000001002401A
:1031300010100240492E00002DE400E0908CFF1F8B
:103140001B80004007A006404084FF1F0082FF1F35
:10315000134A937801F0030003F0EC03034348079C
:1031600048BF43F01003937001F00F03042B0C4889
:1031700003D1837943F0400383715379084A03F004
:10318000EF03C80648BF43F01003537193798906D3
:1031900003F0EF0348BF43F010039371704700BF83
:1031A00000A00640134B1B68990710B504461FD5B5
:1031B000114B1B689A071BD5104B1B685B0517D575
:1031C0000F492D20FDF70CFC236820465B699847CA
:1031D0001420FDF79BFC0B4A0B48002340F203111F
:1031E000D37001604160D372084A1370084A1370AB
:1031F00010BD00BF408004403C8004403480044047
:10320000B120000000A0064040A00440BC8CFF1F7D
:103210009A8CFF1F38B50C460A4B1B7803F0FF054C
:1032200013B1FEF76FFAF7E720460121FDF710FC16
:1032300020462946FDF7ECFB034B53F83420034BA3
:103240001A6038BDB08CFF1FDC390000AC8CFF1F4A
:1032500008B5FEF757FA064B1A78064B1B789A42C8
:10326000F7D1054B1B7813B1FEF74CFAF9E708BD0F
:103270009A8CFF1FBC8CFF1FB08CFF1F064A074BA8
:103280001B781078DBB2C0B283422CBF3F3000F114
:10329000FF30C01A704700BFBC8CFF1F9A8CFF1F05
:1032A0002DE9F047DFF88480154698F800600F4656
:1032B000FFF7E4FFF6B2A84238BF0546AC193F2C31
:1032C000C246DFF86C800DD9C6F1400939464A463E
:1032D000403C08EB060000F0A5F8404607EB09016A
:1032E000224603E008EB060039462A4600F09AF829
:1032F000E4B20B4B8AF800401A786AB901221A70BE
:1033000072B6084A13681279D88AA9B2D982D88BC2
:10331000D983054B1A7062B62846BDE8F08700BF16
:10332000B08CFF1F9C8CFF1F1B8000409A8CFF1FDE
:103330004084FF1F07B502AB012243F8041D194664
:10334000FFF7AEFF03B05DF804FBFFFF054B1878F5
:10335000054B1B78C0B2DBB2984238BF4030C01A70
:10336000704700BFB28CFF1FB18CFF1F084B19784C
:10337000084B1A78D2B2914207D0013202F03F02D4
:103380000549885CD2B21A7070474FF0FF30704721
:10339000B28CFF1FB18CFF1F0084FF1F084B1A78EF
:1033A000084B1B78DBB29A4206D0013303F03F038F
:1033B000054AD05CC0B270474FF0FF30704700BF85
:1033C000B28CFF1FB18CFF1F0084FF1F024B1A78C5
:1033D000024BD2B21A707047B28CFF1FB18CFF1F24
:1033E00070B50C4E0C4D0D4C3046002100F0E8F944
:1033F00030460B4E2246294600F050FA3046002156
:1034000000F0DEF9304629462246BDE8704000F063
:1034100045BA00BF9C8CFF1F592E0000E087FF1F9C
:10342000B48CFF1F072A2DE9F04302F1FF3200F1AF
:10343000FF3501F1FF3424D8062A00F2BF81DFE80E
:1034400002F01C1814100C0804000B7803700C46D2
:10345000054663786B700134013563786B70013415
:10346000013563786B700134013563786B7001341A
:10347000013563786B700134013563786B70BDE89A
:10348000F08305F003038118032BC5EB010104F160
:10349000010304D01C461B7805F8013FF1E703F057
:1034A0000303022B4FEA910CA5F10305A4F10304D9
:1034B00000F0AD80032B00F01181012B38D01CF0FF
:1034C000070F06D054F8043F45F8043F0CF1FF3CC9
:1034D000F5E74FEADC0C2A462346664616F1FF362E
:1034E00012D35F6857609F689760DF68D7601F6975
:1034F00017615F6957619F699761DF69D76153F809
:10350000207F42F8207FE9E74FEA4C1C01F00301DD
:1035100065446444022905F1030304F1030200F049
:103520004781032940F03D812B1D221D21793EE179
:1035300024F0030425F0030554F8046F1CF0070F72
:1035400009D0330A54F8046F43EA066345F8043F90
:103550000CF1FF3CF2E74FEADC0C2B4622466746B3
:1035600017F1FF3739D3D2F804804FEA086949EAE6
:1035700016265E6096684FEA066949EA1828C3F87D
:103580000880D2F80C804FEA086949EA1626DE6006
:1035900016694FEA066949EA1828C3F81080D2F87C
:1035A00014804FEA086949EA16265E6196694FEA77
:1035B000066949EA1828C3F81880D2F81C804FEA37
:1035C000086949EA1626DE6152F8206F4FEA06695B
:1035D00049EA182843F8208FC2E74FEA4C1C01F053
:1035E000030165440229644405F1030309D003295A
:1035F00003D0012940F0E28007E062782A712B1D98
:10360000013462785A70013401336278D5E024F0D5
:10361000030425F0030554F8046F1CF0070F09D0CC
:10362000330C54F8046F43EA064345F8043F0CF1A9
:10363000FF3CF2E74FEADC0C2A462346674617F1C7
:10364000FF3739D3D3F804804FEA084949EA1646D0
:1036500056609E684FEA064949EA1848C2F8088051
:10366000D3F80C804FEA084949EA1646D6601E692D
:103670004FEA064949EA1848C2F81080D3F8148086
:103680004FEA084949EA164656619E694FEA0649DB
:1036900049EA1848C2F81880D3F81C804FEA084954
:1036A00049EA1646D66153F8206F4FEA064949EABF
:1036B000184842F8208FC2E74FEA4C1C01F0030182
:1036C00065446444022905F1030304F101026FD04B
:1036D000032966D12B1DA21CA17868E024F0030405
:1036E00025F0030554F8046F1CF0070F09D0330EC2
:1036F00054F8046F43EA062345F8043F0CF1FF3CFD
:10370000F2E74FEADC0C2A462346674617F1FF37FB
:1037100039D3D3F804804FEA082949EA166656607F
:103720009E684FEA062949EA1868C2F80880D3F86B
:103730000C804FEA082949EA1666D6601E694FEAEE
:10374000062949EA1868C2F81080D3F814804FEAB5
:10375000082949EA166656619E694FEA062949EA30
:103760001868C2F81880D3F81C804FEA082949EA83
:103770001666D66153F8206F4FEA062949EA1868A1
:1037800042F8208FC2E74FEA4C1C01F00301654468
:103790006444022905F1030304F1020208D003295D
:1037A00002D001290AD107E0E1782B1DE21C297122
:1037B000517859700132013352785A70BDE8F08364
:1037C00030B572B6254C09B9026812B921880023B8
:1037D0000FE003790F2BF9D821881941C907F5D5D6
:1037E00003F1007303F59063B2EB431FEED162B6B1
:1037F00030BD41FA03F212F0010227D101259D40AC
:103800002943218062B6164CD9B20171256845F072
:103810000205256054F8045C03F1007345F00205CD
:1038200044F8045C03F590630E4C5B01822525602F
:10383000A176A1772176E17703601A605A609A60D9
:10384000DA601A615A619A61DA6130BD0133102B76
:10385000CFD162B600220260037130BDBE8CFF1F63
:10386000408004400080004003790F2B10D8094AA3
:10387000137072B6084B0279012101FA02F219881D
:1038800021EA02021A8062B610230371002303604A
:10389000704700BF1A800040BE8CFF1F03460846D9
:1038A000194600F001B8FFFF70B5064C06460D46FC
:1038B00013462CB131462A460220AFF3008070BD7A
:1038C000204670BD0000000070B50E4B0E4DED1A85
:1038D000AD1000241E46AC4204D056F82420904778
:1038E0000134F8E700F0D4F9084D094BED1AAD109A
:1038F00000241E46AC4204D056F8242090470134E0
:10390000F8E770BD9C3C00009C3C0000B83C000007
:103910009C3C0000034613F8012B002AFBD1181A27
:1039200001387047FFFFFFFF0000000000000000AB
:10393000A1050000AB05000089050000910500000D
:103940008D05000095050000490500006D0500008B
:103950008105000085050000990500009D05000017
:10396000130500001F0500002B05000037050000AF
:1039700043050000AF05000053656E74206F666656
:10398000206172726179207761733A00726F6C6C9A
:10399000696E6720617272617900494E2053594EF9
:1039A0004300576569726420627566666572736963
:1039B0007A652C2073657474696E672073796E6301
:1039C00020746F2066616C7365004255464645520F
:1039D00054524947474552000D0AFFFF4008FE4335
:1039E00040A004404408FE4344A004400018FE43A5
:1039F00000C004403000FE43309004403400FE43D9
:103A0000349004401C18FE431CC004401018FE43B0
:103A100010C004400818FE4308C004400C18FE43C0
:103A20000CC004400C10FE430CB004401010FE43C8
:103A300010B004401810FE4318B004401C10FE43A0
:103A40001CB004401410FE4314B004400418FE439C
:103A500004C004400010FE4300B004400008FE43D0
:103A600000A004400408FE4304A004400C08FE43E8
:103A70000CA004400808FE4308A004401418FE43AC
:103A800014C004401818FE4318C004400410FE433C
:103A900004B004400810FE4308B004401400FE4384
:103AA000149004404C08FE434CA004400420FE4304
:103AB00004D004402410FE4324B004402010FE43F0
:103AC00020B004402810FE4328B004402C10FE43D0
:103AD0002CB004400020FE4300D004404808FE43C0
:103AE00048A004401000FE4310900440FFFFFFFF79
:103AF0000000000000000000FD130000031400009F
:103B0000E9130000ED130000F1130000F5130000AD
:103B1000F913000000000000000000000000000099
:103B2000F917000011180000E1170000E917000064
:103B3000E5170000ED170000751700008917000059
:103B4000A9170000AD170000B3170000B917000057
:103B5000C1170000D1170000F1170000F517000091
:103B600045170000511700005D170000691700009D
:103B700021180000051800000000000000000000EF
:103B80000D19000025190000F5180000FD180000AF
:103B9000F918000001190000891800009D180000A4
:103BA000BD180000C1180000C7180000CD180000A3
:103BB000D5180000E51800000519000009190000DB
:103BC0005918000065180000711800007D180000E9
:103BD0003519000019190000000000000000000065
:103BE000211A0000391A0000091A0000111A0000F9
:103BF0000D1A0000151A00009D190000B1190000EF
:103C0000D1190000D5190000DB190000E1190000EE
:103C1000E9190000F9190000191A00001D1A000026
:103C20006D19000079190000851900009119000034
:103C3000491A00002D1A0000001519150001000096
:103C4000F287FF1F12000000000200001C88FF1F07
:103C500043000000000300007688FF1F0000000002
:103C6000010309040488FF1F000000000203090487
:103C70006088FF1F00000000030309047A88FF1F0B
:103C80000000000000000000000000000000000034
:103C9000F8B500BFF8BC08BC9E467047350400006C
:103CA000F90700000D1400003D1800005119000034
:083CB000651A0000E133000079
:103CB8000000000004000100FFFFFFFF0A040109E3
:103CC8000A081201010102000040C0168304000224
:103CD8000102030118035400650065006E007300BB
:103CE80079006400750069006E006F0009024300E6
:103CF800020100C03209040000010202010005248B
:103D0800001001052401010104240206052406000F
:103D1800010705820310004009040100020A00009F
:103D28000007050302400000070584024000000068
:103D3800160355005300420020005300650072002E
:103D4800690061006C00040309040C030000000012
:103D5800000000000000000000000000000000005B
:00000001FF
